{
  "abi": [
    {
      "inputs": [
        {
          "internalType": "contract IEntryPoint",
          "name": "_entrypoint",
          "type": "address"
        }
      ],
      "stateMutability": "nonpayable",
      "type": "constructor"
    },
    {
      "anonymous": false,
      "inputs": [
        {
          "indexed": false,
          "internalType": "string",
          "name": "prevURI",
          "type": "string"
        },
        {
          "indexed": false,
          "internalType": "string",
          "name": "newURI",
          "type": "string"
        }
      ],
      "name": "ContractURIUpdated",
      "type": "event"
    },
    {
      "anonymous": false,
      "inputs": [
        {
          "indexed": false,
          "internalType": "uint8",
          "name": "version",
          "type": "uint8"
        }
      ],
      "name": "Initialized",
      "type": "event"
    },
    {
      "anonymous": false,
      "inputs": [
        {
          "indexed": true,
          "internalType": "bytes32",
          "name": "role",
          "type": "bytes32"
        },
        {
          "indexed": true,
          "internalType": "bytes32",
          "name": "previousAdminRole",
          "type": "bytes32"
        },
        {
          "indexed": true,
          "internalType": "bytes32",
          "name": "newAdminRole",
          "type": "bytes32"
        }
      ],
      "name": "RoleAdminChanged",
      "type": "event"
    },
    {
      "anonymous": false,
      "inputs": [
        {
          "indexed": true,
          "internalType": "bytes32",
          "name": "role",
          "type": "bytes32"
        },
        {
          "indexed": true,
          "internalType": "address",
          "name": "account",
          "type": "address"
        },
        {
          "indexed": true,
          "internalType": "address",
          "name": "sender",
          "type": "address"
        }
      ],
      "name": "RoleGranted",
      "type": "event"
    },
    {
      "anonymous": false,
      "inputs": [
        {
          "indexed": true,
          "internalType": "bytes32",
          "name": "role",
          "type": "bytes32"
        },
        {
          "indexed": true,
          "internalType": "address",
          "name": "account",
          "type": "address"
        },
        {
          "indexed": true,
          "internalType": "address",
          "name": "sender",
          "type": "address"
        }
      ],
      "name": "RoleRevoked",
      "type": "event"
    },
    {
      "anonymous": false,
      "inputs": [
        {
          "indexed": false,
          "internalType": "bytes32",
          "name": "opHash",
          "type": "bytes32"
        }
      ],
      "name": "TWAccountMsgHash",
      "type": "event"
    },
    {
      "anonymous": false,
      "inputs": [
        {
          "indexed": false,
          "internalType": "bytes32",
          "name": "opHash",
          "type": "bytes32"
        }
      ],
      "name": "TWAccountOpHash",
      "type": "event"
    },
    {
      "inputs": [],
      "name": "DEFAULT_ADMIN_ROLE",
      "outputs": [
        {
          "internalType": "bytes32",
          "name": "",
          "type": "bytes32"
        }
      ],
      "stateMutability": "view",
      "type": "function"
    },
    {
      "inputs": [],
      "name": "SIGNER_ROLE",
      "outputs": [
        {
          "internalType": "bytes32",
          "name": "",
          "type": "bytes32"
        }
      ],
      "stateMutability": "view",
      "type": "function"
    },
    {
      "inputs": [],
      "name": "addDeposit",
      "outputs": [],
      "stateMutability": "payable",
      "type": "function"
    },
    {
      "inputs": [],
      "name": "contractURI",
      "outputs": [
        {
          "internalType": "string",
          "name": "",
          "type": "string"
        }
      ],
      "stateMutability": "view",
      "type": "function"
    },
    {
      "inputs": [],
      "name": "entryPoint",
      "outputs": [
        {
          "internalType": "contract IEntryPoint",
          "name": "",
          "type": "address"
        }
      ],
      "stateMutability": "view",
      "type": "function"
    },
    {
      "inputs": [
        {
          "internalType": "address",
          "name": "_target",
          "type": "address"
        },
        {
          "internalType": "uint256",
          "name": "_value",
          "type": "uint256"
        },
        {
          "internalType": "bytes",
          "name": "_calldata",
          "type": "bytes"
        }
      ],
      "name": "execute",
      "outputs": [],
      "stateMutability": "nonpayable",
      "type": "function"
    },
    {
      "inputs": [
        {
          "internalType": "address[]",
          "name": "_target",
          "type": "address[]"
        },
        {
          "internalType": "uint256[]",
          "name": "_value",
          "type": "uint256[]"
        },
        {
          "internalType": "bytes[]",
          "name": "_calldata",
          "type": "bytes[]"
        }
      ],
      "name": "executeBatch",
      "outputs": [],
      "stateMutability": "nonpayable",
      "type": "function"
    },
    {
      "inputs": [],
      "name": "getDeposit",
      "outputs": [
        {
          "internalType": "uint256",
          "name": "",
          "type": "uint256"
        }
      ],
      "stateMutability": "view",
      "type": "function"
    },
    {
      "inputs": [
        {
          "internalType": "bytes32",
          "name": "role",
          "type": "bytes32"
        }
      ],
      "name": "getRoleAdmin",
      "outputs": [
        {
          "internalType": "bytes32",
          "name": "",
          "type": "bytes32"
        }
      ],
      "stateMutability": "view",
      "type": "function"
    },
    {
      "inputs": [
        {
          "internalType": "bytes32",
          "name": "role",
          "type": "bytes32"
        },
        {
          "internalType": "uint256",
          "name": "index",
          "type": "uint256"
        }
      ],
      "name": "getRoleMember",
      "outputs": [
        {
          "internalType": "address",
          "name": "member",
          "type": "address"
        }
      ],
      "stateMutability": "view",
      "type": "function"
    },
    {
      "inputs": [
        {
          "internalType": "bytes32",
          "name": "role",
          "type": "bytes32"
        }
      ],
      "name": "getRoleMemberCount",
      "outputs": [
        {
          "internalType": "uint256",
          "name": "count",
          "type": "uint256"
        }
      ],
      "stateMutability": "view",
      "type": "function"
    },
    {
      "inputs": [
        {
          "internalType": "bytes32",
          "name": "role",
          "type": "bytes32"
        },
        {
          "internalType": "address",
          "name": "account",
          "type": "address"
        }
      ],
      "name": "grantRole",
      "outputs": [],
      "stateMutability": "nonpayable",
      "type": "function"
    },
    {
      "inputs": [
        {
          "internalType": "bytes32",
          "name": "role",
          "type": "bytes32"
        },
        {
          "internalType": "address",
          "name": "account",
          "type": "address"
        }
      ],
      "name": "hasRole",
      "outputs": [
        {
          "internalType": "bool",
          "name": "",
          "type": "bool"
        }
      ],
      "stateMutability": "view",
      "type": "function"
    },
    {
      "inputs": [
        {
          "internalType": "bytes32",
          "name": "role",
          "type": "bytes32"
        },
        {
          "internalType": "address",
          "name": "account",
          "type": "address"
        }
      ],
      "name": "hasRoleWithSwitch",
      "outputs": [
        {
          "internalType": "bool",
          "name": "",
          "type": "bool"
        }
      ],
      "stateMutability": "view",
      "type": "function"
    },
    {
      "inputs": [
        {
          "internalType": "address",
          "name": "_defaultAdmin",
          "type": "address"
        }
      ],
      "name": "initialize",
      "outputs": [],
      "stateMutability": "nonpayable",
      "type": "function"
    },
    {
      "inputs": [
        {
          "internalType": "address",
          "name": "_signer",
          "type": "address"
        }
      ],
      "name": "isValidSigner",
      "outputs": [
        {
          "internalType": "bool",
          "name": "",
          "type": "bool"
        }
      ],
      "stateMutability": "view",
      "type": "function"
    },
    {
      "inputs": [
        {
          "internalType": "bytes[]",
          "name": "data",
          "type": "bytes[]"
        }
      ],
      "name": "multicall",
      "outputs": [
        {
          "internalType": "bytes[]",
          "name": "results",
          "type": "bytes[]"
        }
      ],
      "stateMutability": "nonpayable",
      "type": "function"
    },
    {
      "inputs": [],
      "name": "nonce",
      "outputs": [
        {
          "internalType": "uint256",
          "name": "",
          "type": "uint256"
        }
      ],
      "stateMutability": "view",
      "type": "function"
    },
    {
      "inputs": [
        {
          "internalType": "address",
          "name": "",
          "type": "address"
        },
        {
          "internalType": "address",
          "name": "",
          "type": "address"
        },
        {
          "internalType": "uint256[]",
          "name": "",
          "type": "uint256[]"
        },
        {
          "internalType": "uint256[]",
          "name": "",
          "type": "uint256[]"
        },
        {
          "internalType": "bytes",
          "name": "",
          "type": "bytes"
        }
      ],
      "name": "onERC1155BatchReceived",
      "outputs": [
        {
          "internalType": "bytes4",
          "name": "",
          "type": "bytes4"
        }
      ],
      "stateMutability": "nonpayable",
      "type": "function"
    },
    {
      "inputs": [
        {
          "internalType": "address",
          "name": "",
          "type": "address"
        },
        {
          "internalType": "address",
          "name": "",
          "type": "address"
        },
        {
          "internalType": "uint256",
          "name": "",
          "type": "uint256"
        },
        {
          "internalType": "uint256",
          "name": "",
          "type": "uint256"
        },
        {
          "internalType": "bytes",
          "name": "",
          "type": "bytes"
        }
      ],
      "name": "onERC1155Received",
      "outputs": [
        {
          "internalType": "bytes4",
          "name": "",
          "type": "bytes4"
        }
      ],
      "stateMutability": "nonpayable",
      "type": "function"
    },
    {
      "inputs": [
        {
          "internalType": "address",
          "name": "",
          "type": "address"
        },
        {
          "internalType": "address",
          "name": "",
          "type": "address"
        },
        {
          "internalType": "uint256",
          "name": "",
          "type": "uint256"
        },
        {
          "internalType": "bytes",
          "name": "",
          "type": "bytes"
        }
      ],
      "name": "onERC721Received",
      "outputs": [
        {
          "internalType": "bytes4",
          "name": "",
          "type": "bytes4"
        }
      ],
      "stateMutability": "nonpayable",
      "type": "function"
    },
    {
      "inputs": [
        {
          "internalType": "bytes32",
          "name": "role",
          "type": "bytes32"
        },
        {
          "internalType": "address",
          "name": "account",
          "type": "address"
        }
      ],
      "name": "renounceRole",
      "outputs": [],
      "stateMutability": "nonpayable",
      "type": "function"
    },
    {
      "inputs": [
        {
          "internalType": "bytes32",
          "name": "role",
          "type": "bytes32"
        },
        {
          "internalType": "address",
          "name": "account",
          "type": "address"
        }
      ],
      "name": "revokeRole",
      "outputs": [],
      "stateMutability": "nonpayable",
      "type": "function"
    },
    {
      "inputs": [
        {
          "internalType": "string",
          "name": "_uri",
          "type": "string"
        }
      ],
      "name": "setContractURI",
      "outputs": [],
      "stateMutability": "nonpayable",
      "type": "function"
    },
    {
      "inputs": [
        {
          "internalType": "bytes4",
          "name": "interfaceId",
          "type": "bytes4"
        }
      ],
      "name": "supportsInterface",
      "outputs": [
        {
          "internalType": "bool",
          "name": "",
          "type": "bool"
        }
      ],
      "stateMutability": "view",
      "type": "function"
    },
    {
      "inputs": [
        {
          "components": [
            {
              "internalType": "address",
              "name": "sender",
              "type": "address"
            },
            {
              "internalType": "uint256",
              "name": "nonce",
              "type": "uint256"
            },
            {
              "internalType": "bytes",
              "name": "initCode",
              "type": "bytes"
            },
            {
              "internalType": "bytes",
              "name": "callData",
              "type": "bytes"
            },
            {
              "internalType": "uint256",
              "name": "callGasLimit",
              "type": "uint256"
            },
            {
              "internalType": "uint256",
              "name": "verificationGasLimit",
              "type": "uint256"
            },
            {
              "internalType": "uint256",
              "name": "preVerificationGas",
              "type": "uint256"
            },
            {
              "internalType": "uint256",
              "name": "maxFeePerGas",
              "type": "uint256"
            },
            {
              "internalType": "uint256",
              "name": "maxPriorityFeePerGas",
              "type": "uint256"
            },
            {
              "internalType": "bytes",
              "name": "paymasterAndData",
              "type": "bytes"
            },
            {
              "internalType": "bytes",
              "name": "signature",
              "type": "bytes"
            }
          ],
          "internalType": "struct UserOperation",
          "name": "userOp",
          "type": "tuple"
        },
        {
          "internalType": "bytes32",
          "name": "userOpHash",
          "type": "bytes32"
        },
        {
          "internalType": "uint256",
          "name": "missingAccountFunds",
          "type": "uint256"
        }
      ],
      "name": "validateUserOp",
      "outputs": [
        {
          "internalType": "uint256",
          "name": "validationData",
          "type": "uint256"
        }
      ],
      "stateMutability": "nonpayable",
      "type": "function"
    },
    {
      "inputs": [
        {
          "internalType": "address payable",
          "name": "withdrawAddress",
          "type": "address"
        },
        {
          "internalType": "uint256",
          "name": "amount",
          "type": "uint256"
        }
      ],
      "name": "withdrawDepositTo",
      "outputs": [],
      "stateMutability": "nonpayable",
      "type": "function"
    },
    {
      "stateMutability": "payable",
      "type": "receive"
    }
  ],
  "bytecode": {
    "object": "0x60a06040523480156200001157600080fd5b506040516200296b3803806200296b833981016040819052620000349162000046565b6001600160a01b031660805262000078565b6000602082840312156200005957600080fd5b81516001600160a01b03811681146200007157600080fd5b9392505050565b6080516128ad620000be6000396000818161048a015281816107a501528181610916015281816109a201528181610d1a01528181610db301526112b701526128ad6000f3fe6080604052600436106101b05760003560e01c8063a217fddf116100ec578063c399ec881161008a578063d547741f11610064578063d547741f1461054f578063d5f505821461056f578063e8a3d4851461058f578063f23a6e61146105b157600080fd5b8063c399ec88146104fa578063c4d66de81461050f578063ca15c8731461052f57600080fd5b8063affed0e0116100c6578063affed0e014610447578063b0d691fe1461047b578063b61d27f6146104ae578063bc197c81146104ce57600080fd5b8063a217fddf146103e5578063a32fa5b3146103fa578063ac9650d81461041a57600080fd5b806347e1da2a116101595780639010d07c116101335780639010d07c1461033957806391d1485414610371578063938e3d7b14610391578063a1ebf35d146103b157600080fd5b806347e1da2a146102f15780634a58db19146103115780634d44560d1461031957600080fd5b80632f2ff15d1161018a5780632f2ff15d1461028f57806336568abe146102b15780633a871cdd146102d157600080fd5b806301ffc9a7146101bc578063150b7a02146101f1578063248a9ca31461023557600080fd5b366101b757005b600080fd5b3480156101c857600080fd5b506101dc6101d7366004611f17565b6105dd565b60405190151581526020015b60405180910390f35b3480156101fd57600080fd5b5061021c61020c366004612015565b630a85bd0160e11b949350505050565b6040516001600160e01b031990911681526020016101e8565b34801561024157600080fd5b50610281610250366004612081565b60009081527fd0ebebe8e6445c62babf8fef767eb39f1002bb957bb5b83258275a4e46428ed6602052604090205490565b6040519081526020016101e8565b34801561029b57600080fd5b506102af6102aa36600461209a565b610623565b005b3480156102bd57600080fd5b506102af6102cc36600461209a565b6106f0565b3480156102dd57600080fd5b506102816102ec3660046120ca565b610756565b3480156102fd57600080fd5b506102af61030c366004612163565b61079a565b6102af610914565b34801561032557600080fd5b506102af6103343660046121fd565b610994565b34801561034557600080fd5b50610359610354366004612229565b610a21565b6040516001600160a01b0390911681526020016101e8565b34801561037d57600080fd5b506101dc61038c36600461209a565b610b2f565b34801561039d57600080fd5b506102af6103ac36600461224b565b610b67565b3480156103bd57600080fd5b506102817fe2f4eaae4a9751e85a3e4a7b9587827a877f29914755229b07a7b2da98285f7081565b3480156103f157600080fd5b50610281600081565b34801561040657600080fd5b506101dc61041536600461209a565b610bb8565b34801561042657600080fd5b5061043a61043536600461229c565b610c1a565b6040516101e89190612336565b34801561045357600080fd5b507f6f265e404054a781955e6f16f70e749f59f16f06413e507cab627ce5381a9e3354610281565b34801561048757600080fd5b507f0000000000000000000000000000000000000000000000000000000000000000610359565b3480156104ba57600080fd5b506102af6104c9366004612398565b610d0f565b3480156104da57600080fd5b5061021c6104e93660046124a1565b63bc197c8160e01b95945050505050565b34801561050657600080fd5b50610281610daf565b34801561051b57600080fd5b506102af61052a36600461254f565b610e41565b34801561053b57600080fd5b5061028161054a366004612081565b610f71565b34801561055b57600080fd5b506102af61056a36600461209a565b61101a565b34801561057b57600080fd5b506101dc61058a36600461254f565b61106c565b34801561059b57600080fd5b506105a46110a9565b6040516101e8919061256c565b3480156105bd57600080fd5b5061021c6105cc36600461257f565b63f23a6e6160e01b95945050505050565b60006001600160e01b03198216630271189760e51b148061060e57506001600160e01b03198216630a85bd0160e11b145b8061061d575061061d8261115f565b92915050565b60008281527fd0ebebe8e6445c62babf8fef767eb39f1002bb957bb5b83258275a4e46428ed660205260409020546000805160206128318339815191529061066b9033611194565b6000838152602082815260408083206001600160a01b038616845290915290205460ff16156106e15760405162461bcd60e51b815260206004820152601d60248201527f43616e206f6e6c79206772616e7420746f206e6f6e20686f6c6465727300000060448201526064015b60405180910390fd5b6106eb8383611222565b505050565b336001600160a01b038216146107485760405162461bcd60e51b815260206004820152601a60248201527f43616e206f6e6c792072656e6f756e636520666f722073656c6600000000000060448201526064016106d8565b6107528282611236565b5050565b60006107606112ac565b61076a8484611326565b905061077960408501856125e8565b1515905061078a5761078a8461146a565b610793826114fd565b9392505050565b336001600160a01b037f00000000000000000000000000000000000000000000000000000000000000001614806107d757506107d7600033610b2f565b6107f35760405162461bcd60e51b81526004016106d89061262f565b848114801561080157508483145b61084d5760405162461bcd60e51b815260206004820152601f60248201527f54574163636f756e743a2077726f6e67206172726179206c656e677468732e0060448201526064016106d8565b60005b8581101561090b576108f987878381811061086d5761086d612672565b9050602002016020810190610882919061254f565b86868481811061089457610894612672565b905060200201358585858181106108ad576108ad612672565b90506020028101906108bf91906125e8565b8080601f01602080910402602001604051908101604052809392919081815260200183838082843760009201919091525061154a92505050565b806109038161269e565b915050610850565b50505050505050565b7f000000000000000000000000000000000000000000000000000000000000000060405163b760faf960e01b81523060048201526001600160a01b03919091169063b760faf99034906024016000604051808303818588803b15801561097957600080fd5b505af115801561098d573d6000803e3d6000fd5b5050505050565b60006109a08133611194565b7f000000000000000000000000000000000000000000000000000000000000000060405163040b850f60e31b81526001600160a01b03858116600483015260248201859052919091169063205c287890604401600060405180830381600087803b158015610a0d57600080fd5b505af115801561090b573d6000803e3d6000fd5b60008281527f0c4ba382c0009cf238e4c1ca1a52f51c61e6248a70bdfb34e5ed49d5578a5c0c6020819052604082205482805b82811015610b25576000878152602085815260408083208484526001019091529020546001600160a01b031615610ad05785821415610abe576000878152602094855260408082209282526001909201909452909220546001600160a01b0316925061061d915050565b610ac96001836126b9565b9150610b13565b610adb876000610b2f565b8015610b00575060008781526020858152604080832083805260020190915290205481145b15610b1357610b106001836126b9565b91505b610b1e6001826126b9565b9050610a54565b5050505092915050565b6000918252600080516020612831833981519152602090815260408084206001600160a01b0393909316845291905290205460ff1690565b610b6f6115ba565b610bac5760405162461bcd60e51b815260206004820152600e60248201526d139bdd08185d5d1a1bdc9a5e995960921b60448201526064016106d8565b610bb5816115c6565b50565b60008281526000805160206128318339815191526020818152604080842084805290915282205460ff16610c10576000848152602091825260408082206001600160a01b0386168352909252205460ff16905061061d565b5060019392505050565b60608167ffffffffffffffff811115610c3557610c35611f56565b604051908082528060200260200182016040528015610c6857816020015b6060815260200190600190039081610c535790505b50905060005b82811015610d0857610cd830858584818110610c8c57610c8c612672565b9050602002810190610c9e91906125e8565b8080601f0160208091040260200160405190810160405280939291908181526020018383808284376000920191909152506116ca92505050565b828281518110610cea57610cea612672565b60200260200101819052508080610d009061269e565b915050610c6e565b5092915050565b336001600160a01b037f0000000000000000000000000000000000000000000000000000000000000000161480610d4c5750610d4c600033610b2f565b610d685760405162461bcd60e51b81526004016106d89061262f565b610da9848484848080601f01602080910402602001604051908101604052809392919081815260200183838082843760009201919091525061154a92505050565b50505050565b60007f00000000000000000000000000000000000000000000000000000000000000006040516370a0823160e01b81523060048201526001600160a01b0391909116906370a0823190602401602060405180830381865afa158015610e18573d6000803e3d6000fd5b505050506040513d601f19601f82011682018060405250810190610e3c91906126d1565b905090565b7f627d6cbb4eb558f37de3c2ec08b04710e54e06be936a302f087f7bfb80f39ae0805460ff808216916101009004168015808015610e82575060018360ff16105b80610e9a5750303b158015610e9a57508260ff166001145b610efd5760405162461bcd60e51b815260206004820152602e60248201527f496e697469616c697a61626c653a20636f6e747261637420697320616c72656160448201526d191e481a5b9a5d1a585b1a5e995960921b60648201526084016106d8565b835460ff191660011784558015610f1c57835461ff0019166101001784555b610f27600086611222565b801561098d57835461ff0019168455604051600181527f7f26b83ff96e1f2b6a682f133852f6798a09c465da95921460cefb38474024989060200160405180910390a15050505050565b60008181527f0c4ba382c0009cf238e4c1ca1a52f51c61e6248a70bdfb34e5ed49d5578a5c0c60208190526040822054825b81811015610ff4576000858152602084815260408083208484526001019091529020546001600160a01b031615610fe257610fdf6001856126b9565b93505b610fed6001826126b9565b9050610fa3565b50611000846000610b2f565b15611013576110106001846126b9565b92505b5050919050565b60008281527fd0ebebe8e6445c62babf8fef767eb39f1002bb957bb5b83258275a4e46428ed66020526040902054600080516020612831833981519152906110629033611194565b6106eb8383611236565b60006110987fe2f4eaae4a9751e85a3e4a7b9587827a877f29914755229b07a7b2da98285f7083610b2f565b8061061d575061061d600083610b2f565b7fa7d40346e44ca145e94a946aa34a7d4a67245577dc18699a626fe0ffc6ce328180546060919081906110db906126ea565b80601f0160208091040260200160405190810160405280929190818152602001828054611107906126ea565b80156111545780601f1061112957610100808354040283529160200191611154565b820191906000526020600020905b81548152906001019060200180831161113757829003601f168201915b505050505091505090565b60006001600160e01b03198216630271189760e51b148061061d57506301ffc9a760e01b6001600160e01b031983161461061d565b6000828152600080516020612831833981519152602081815260408084206001600160a01b03861685529091529091205460ff166106eb576111e0826001600160a01b031660146116ef565b6111eb8460206116ef565b6040516020016111fc929190612725565b60408051601f198184030181529082905262461bcd60e51b82526106d89160040161256c565b61122c828261188b565b61075282826118f5565b6112408282611983565b60008281527f0c4ba382c0009cf238e4c1ca1a52f51c61e6248a70bdfb34e5ed49d5578a5c0c602090815260408083206001600160a01b03851680855260028201808552838620805487526001909301855292852080546001600160a01b031916905584529152555050565b336001600160a01b037f000000000000000000000000000000000000000000000000000000000000000016146113245760405162461bcd60e51b815260206004820152601c60248201527f6163636f756e743a206e6f742066726f6d20456e747279506f696e740000000060448201526064016106d8565b565b60007fa7ccc54391ad205b5bf1c1d4cf4d299360028d13109f7ac4de775e094daee01a8260405161135991815260200190565b60405180910390a160006113ba836040517f19457468657265756d205369676e6564204d6573736167653a0a3332000000006020820152603c8101829052600090605c01604051602081830303815290604052805190602001209050919050565b90507f2a06a035e7b559c24a267b48441e225b7799813ef5ec642c974189cd568ae7b4816040516113ed91815260200190565b60405180910390a160006114456114086101408701876125e8565b8080601f01602080910402602001604051908101604052809392919081815260200183838082843760009201919091525086939250506119f39050565b90506114508161106c565b61145f5760019250505061061d565b506000949350505050565b7f6f265e404054a781955e6f16f70e749f59f16f06413e507cab627ce5381a9e3380546020830135146114df5760405162461bcd60e51b815260206004820152601860248201527f54574163636f756e743a20696e76616c6964206e6f6e6365000000000000000060448201526064016106d8565b60018160000160008282546114f491906126b9565b90915550505050565b8015610bb557604051600090339060001990849084818181858888f193505050503d806000811461098d576040519150601f19603f3d011682016040523d82523d6000602084013e61098d565b600080846001600160a01b03168484604051611566919061279a565b60006040518083038185875af1925050503d80600081146115a3576040519150601f19603f3d011682016040523d82523d6000602084013e6115a8565b606091505b50915091508161098d57805160208201fd5b6000610e3c8133610b2f565b7fa7d40346e44ca145e94a946aa34a7d4a67245577dc18699a626fe0ffc6ce3281805460009082906115f7906126ea565b80601f0160208091040260200160405190810160405280929190818152602001828054611623906126ea565b80156116705780601f1061164557610100808354040283529160200191611670565b820191906000526020600020905b81548152906001019060200180831161165357829003601f168201915b5050865193945061168b938693506020880192509050611e7e565b507fc9c7c3fe08b88b4df9d4d47ef47d2c43d55c025a0ba88ca442580ed9e7348a1681846040516116bd9291906127b6565b60405180910390a1505050565b6060610793838360405180606001604052806027815260200161285160279139611a17565b606060006116fe8360026127e4565b6117099060026126b9565b67ffffffffffffffff81111561172157611721611f56565b6040519080825280601f01601f19166020018201604052801561174b576020820181803683370190505b509050600360fc1b8160008151811061176657611766612672565b60200101906001600160f81b031916908160001a905350600f60fb1b8160018151811061179557611795612672565b60200101906001600160f81b031916908160001a90535060006117b98460026127e4565b6117c49060016126b9565b90505b600181111561183c576f181899199a1a9b1b9c1cb0b131b232b360811b85600f16601081106117f8576117f8612672565b1a60f81b82828151811061180e5761180e612672565b60200101906001600160f81b031916908160001a90535060049490941c9361183581612803565b90506117c7565b5083156107935760405162461bcd60e51b815260206004820181905260248201527f537472696e67733a20686578206c656e67746820696e73756666696369656e7460448201526064016106d8565b6000828152600080516020612831833981519152602081815260408084206001600160a01b0386168086529252808420805460ff19166001179055519192339286917f2f8788117e7eff1d82e926ec794901d17c78024a50270940304540a733656f0d91a4505050565b60008281527f0c4ba382c0009cf238e4c1ca1a52f51c61e6248a70bdfb34e5ed49d5578a5c0c602081905260408220805491926001919061193683856126b9565b909155505060009384526020918252604080852082865260018101845281862080546001600160a01b039096166001600160a01b0319909616861790559385526002909301909152912055565b60008051602061283183398151915261199c8383611194565b6000838152602082815260408083206001600160a01b0386168085529252808320805460ff1916905551339286917ff6391f5c32d9c69d2a47ea670b442974b53935d1edc7fd64eb21e047a839171b9190a4505050565b6000806000611a028585611af4565b91509150611a0f81611b64565b509392505050565b60606001600160a01b0384163b611a7f5760405162461bcd60e51b815260206004820152602660248201527f416464726573733a2064656c65676174652063616c6c20746f206e6f6e2d636f6044820152651b9d1c9858dd60d21b60648201526084016106d8565b600080856001600160a01b031685604051611a9a919061279a565b600060405180830381855af49150503d8060008114611ad5576040519150601f19603f3d011682016040523d82523d6000602084013e611ada565b606091505b5091509150611aea828286611d1f565b9695505050505050565b600080825160411415611b2b5760208301516040840151606085015160001a611b1f87828585611d58565b94509450505050611b5d565b825160401415611b555760208301516040840151611b4a868383611e45565b935093505050611b5d565b506000905060025b9250929050565b6000816004811115611b7857611b7861281a565b1415611b815750565b6001816004811115611b9557611b9561281a565b1415611be35760405162461bcd60e51b815260206004820152601860248201527f45434453413a20696e76616c6964207369676e6174757265000000000000000060448201526064016106d8565b6002816004811115611bf757611bf761281a565b1415611c455760405162461bcd60e51b815260206004820152601f60248201527f45434453413a20696e76616c6964207369676e6174757265206c656e6774680060448201526064016106d8565b6003816004811115611c5957611c5961281a565b1415611cb25760405162461bcd60e51b815260206004820152602260248201527f45434453413a20696e76616c6964207369676e6174757265202773272076616c604482015261756560f01b60648201526084016106d8565b6004816004811115611cc657611cc661281a565b1415610bb55760405162461bcd60e51b815260206004820152602260248201527f45434453413a20696e76616c6964207369676e6174757265202776272076616c604482015261756560f01b60648201526084016106d8565b60608315611d2e575081610793565b825115611d3e5782518084602001fd5b8160405162461bcd60e51b81526004016106d8919061256c565b6000807f7fffffffffffffffffffffffffffffff5d576e7357a4501ddfe92f46681b20a0831115611d8f5750600090506003611e3c565b8460ff16601b14158015611da757508460ff16601c14155b15611db85750600090506004611e3c565b6040805160008082526020820180845289905260ff881692820192909252606081018690526080810185905260019060a0016020604051602081039080840390855afa158015611e0c573d6000803e3d6000fd5b5050604051601f1901519150506001600160a01b038116611e3557600060019250925050611e3c565b9150600090505b94509492505050565b6000806001600160ff1b03831681611e6260ff86901c601b6126b9565b9050611e7087828885611d58565b935093505050935093915050565b828054611e8a906126ea565b90600052602060002090601f016020900481019282611eac5760008555611ef2565b82601f10611ec557805160ff1916838001178555611ef2565b82800160010185558215611ef2579182015b82811115611ef2578251825591602001919060010190611ed7565b50611efe929150611f02565b5090565b5b80821115611efe5760008155600101611f03565b600060208284031215611f2957600080fd5b81356001600160e01b03198116811461079357600080fd5b6001600160a01b0381168114610bb557600080fd5b634e487b7160e01b600052604160045260246000fd5b604051601f8201601f1916810167ffffffffffffffff81118282101715611f9557611f95611f56565b604052919050565b600067ffffffffffffffff831115611fb757611fb7611f56565b611fca601f8401601f1916602001611f6c565b9050828152838383011115611fde57600080fd5b828260208301376000602084830101529392505050565b600082601f83011261200657600080fd5b61079383833560208501611f9d565b6000806000806080858703121561202b57600080fd5b843561203681611f41565b9350602085013561204681611f41565b925060408501359150606085013567ffffffffffffffff81111561206957600080fd5b61207587828801611ff5565b91505092959194509250565b60006020828403121561209357600080fd5b5035919050565b600080604083850312156120ad57600080fd5b8235915060208301356120bf81611f41565b809150509250929050565b6000806000606084860312156120df57600080fd5b833567ffffffffffffffff8111156120f657600080fd5b8401610160818703121561210957600080fd5b95602085013595506040909401359392505050565b60008083601f84011261213057600080fd5b50813567ffffffffffffffff81111561214857600080fd5b6020830191508360208260051b8501011115611b5d57600080fd5b6000806000806000806060878903121561217c57600080fd5b863567ffffffffffffffff8082111561219457600080fd5b6121a08a838b0161211e565b909850965060208901359150808211156121b957600080fd5b6121c58a838b0161211e565b909650945060408901359150808211156121de57600080fd5b506121eb89828a0161211e565b979a9699509497509295939492505050565b6000806040838503121561221057600080fd5b823561221b81611f41565b946020939093013593505050565b6000806040838503121561223c57600080fd5b50508035926020909101359150565b60006020828403121561225d57600080fd5b813567ffffffffffffffff81111561227457600080fd5b8201601f8101841361228557600080fd5b61229484823560208401611f9d565b949350505050565b600080602083850312156122af57600080fd5b823567ffffffffffffffff8111156122c657600080fd5b6122d28582860161211e565b90969095509350505050565b60005b838110156122f95781810151838201526020016122e1565b83811115610da95750506000910152565b600081518084526123228160208601602086016122de565b601f01601f19169290920160200192915050565b6000602080830181845280855180835260408601915060408160051b870101925083870160005b8281101561238b57603f1988860301845261237985835161230a565b9450928501929085019060010161235d565b5092979650505050505050565b600080600080606085870312156123ae57600080fd5b84356123b981611f41565b935060208501359250604085013567ffffffffffffffff808211156123dd57600080fd5b818701915087601f8301126123f157600080fd5b81358181111561240057600080fd5b88602082850101111561241257600080fd5b95989497505060200194505050565b600082601f83011261243257600080fd5b8135602067ffffffffffffffff82111561244e5761244e611f56565b8160051b61245d828201611f6c565b928352848101820192828101908785111561247757600080fd5b83870192505b848310156124965782358252918301919083019061247d565b979650505050505050565b600080600080600060a086880312156124b957600080fd5b85356124c481611f41565b945060208601356124d481611f41565b9350604086013567ffffffffffffffff808211156124f157600080fd5b6124fd89838a01612421565b9450606088013591508082111561251357600080fd5b61251f89838a01612421565b9350608088013591508082111561253557600080fd5b5061254288828901611ff5565b9150509295509295909350565b60006020828403121561256157600080fd5b813561079381611f41565b602081526000610793602083018461230a565b600080600080600060a0868803121561259757600080fd5b85356125a281611f41565b945060208601356125b281611f41565b93506040860135925060608601359150608086013567ffffffffffffffff8111156125dc57600080fd5b61254288828901611ff5565b6000808335601e198436030181126125ff57600080fd5b83018035915067ffffffffffffffff82111561261a57600080fd5b602001915036819003821315611b5d57600080fd5b60208082526023908201527f54574163636f756e743a206e6f742061646d696e206f7220456e747279506f69604082015262373a1760e91b606082015260800190565b634e487b7160e01b600052603260045260246000fd5b634e487b7160e01b600052601160045260246000fd5b60006000198214156126b2576126b2612688565b5060010190565b600082198211156126cc576126cc612688565b500190565b6000602082840312156126e357600080fd5b5051919050565b600181811c908216806126fe57607f821691505b6020821081141561271f57634e487b7160e01b600052602260045260246000fd5b50919050565b7f5065726d697373696f6e733a206163636f756e7420000000000000000000000081526000835161275d8160158501602088016122de565b7001034b99036b4b9b9b4b733903937b6329607d1b601591840191820152835161278e8160268401602088016122de565b01602601949350505050565b600082516127ac8184602087016122de565b9190910192915050565b6040815260006127c9604083018561230a565b82810360208401526127db818561230a565b95945050505050565b60008160001904831182151516156127fe576127fe612688565b500290565b60008161281257612812612688565b506000190190565b634e487b7160e01b600052602160045260246000fdfed0ebebe8e6445c62babf8fef767eb39f1002bb957bb5b83258275a4e46428ed5416464726573733a206c6f772d6c6576656c2064656c65676174652063616c6c206661696c6564a26469706673582212208805dd37cdf3564a2e4517db0a3810eee03b961e0af6da8026d8b50554211f9a64736f6c634300080c0033",
    "linkReferences": {}
  },
  "methodIdentifiers": {
    "DEFAULT_ADMIN_ROLE()": "a217fddf",
    "SIGNER_ROLE()": "a1ebf35d",
    "addDeposit()": "4a58db19",
    "contractURI()": "e8a3d485",
    "entryPoint()": "b0d691fe",
    "execute(address,uint256,bytes)": "b61d27f6",
    "executeBatch(address[],uint256[],bytes[])": "47e1da2a",
    "getDeposit()": "c399ec88",
    "getRoleAdmin(bytes32)": "248a9ca3",
    "getRoleMember(bytes32,uint256)": "9010d07c",
    "getRoleMemberCount(bytes32)": "ca15c873",
    "grantRole(bytes32,address)": "2f2ff15d",
    "hasRole(bytes32,address)": "91d14854",
    "hasRoleWithSwitch(bytes32,address)": "a32fa5b3",
    "initialize(address)": "c4d66de8",
    "isValidSigner(address)": "d5f50582",
    "multicall(bytes[])": "ac9650d8",
    "nonce()": "affed0e0",
    "onERC1155BatchReceived(address,address,uint256[],uint256[],bytes)": "bc197c81",
    "onERC1155Received(address,address,uint256,uint256,bytes)": "f23a6e61",
    "onERC721Received(address,address,uint256,bytes)": "150b7a02",
    "renounceRole(bytes32,address)": "36568abe",
    "revokeRole(bytes32,address)": "d547741f",
    "setContractURI(string)": "938e3d7b",
    "supportsInterface(bytes4)": "01ffc9a7",
    "validateUserOp((address,uint256,bytes,bytes,uint256,uint256,uint256,uint256,uint256,bytes,bytes),bytes32,uint256)": "3a871cdd",
    "withdrawDepositTo(address,uint256)": "4d44560d"
  },
  "id": 276
}