{
  "abi": [
    {
      "inputs": [
        {
          "internalType": "contract IEntryPoint",
          "name": "_entrypoint",
          "type": "address"
        }
      ],
      "stateMutability": "nonpayable",
      "type": "constructor"
    },
    {
      "anonymous": false,
      "inputs": [
        {
          "indexed": false,
          "internalType": "string",
          "name": "prevURI",
          "type": "string"
        },
        {
          "indexed": false,
          "internalType": "string",
          "name": "newURI",
          "type": "string"
        }
      ],
      "name": "ContractURIUpdated",
      "type": "event"
    },
    {
      "anonymous": false,
      "inputs": [
        {
          "indexed": true,
          "internalType": "bytes32",
          "name": "role",
          "type": "bytes32"
        },
        {
          "indexed": true,
          "internalType": "bytes32",
          "name": "previousAdminRole",
          "type": "bytes32"
        },
        {
          "indexed": true,
          "internalType": "bytes32",
          "name": "newAdminRole",
          "type": "bytes32"
        }
      ],
      "name": "RoleAdminChanged",
      "type": "event"
    },
    {
      "anonymous": false,
      "inputs": [
        {
          "indexed": true,
          "internalType": "bytes32",
          "name": "role",
          "type": "bytes32"
        },
        {
          "indexed": true,
          "internalType": "address",
          "name": "account",
          "type": "address"
        },
        {
          "indexed": true,
          "internalType": "address",
          "name": "sender",
          "type": "address"
        }
      ],
      "name": "RoleGranted",
      "type": "event"
    },
    {
      "anonymous": false,
      "inputs": [
        {
          "indexed": true,
          "internalType": "bytes32",
          "name": "role",
          "type": "bytes32"
        },
        {
          "indexed": true,
          "internalType": "address",
          "name": "account",
          "type": "address"
        },
        {
          "indexed": true,
          "internalType": "address",
          "name": "sender",
          "type": "address"
        }
      ],
      "name": "RoleRevoked",
      "type": "event"
    },
    {
      "inputs": [],
      "name": "DEFAULT_ADMIN_ROLE",
      "outputs": [
        {
          "internalType": "bytes32",
          "name": "",
          "type": "bytes32"
        }
      ],
      "stateMutability": "view",
      "type": "function"
    },
    {
      "inputs": [],
      "name": "SIGNER_ROLE",
      "outputs": [
        {
          "internalType": "bytes32",
          "name": "",
          "type": "bytes32"
        }
      ],
      "stateMutability": "view",
      "type": "function"
    },
    {
      "inputs": [],
      "name": "addDeposit",
      "outputs": [],
      "stateMutability": "payable",
      "type": "function"
    },
    {
      "inputs": [],
      "name": "contractURI",
      "outputs": [
        {
          "internalType": "string",
          "name": "",
          "type": "string"
        }
      ],
      "stateMutability": "view",
      "type": "function"
    },
    {
      "inputs": [],
      "name": "entryPoint",
      "outputs": [
        {
          "internalType": "contract IEntryPoint",
          "name": "",
          "type": "address"
        }
      ],
      "stateMutability": "view",
      "type": "function"
    },
    {
      "inputs": [
        {
          "internalType": "address",
          "name": "_target",
          "type": "address"
        },
        {
          "internalType": "uint256",
          "name": "_value",
          "type": "uint256"
        },
        {
          "internalType": "bytes",
          "name": "_calldata",
          "type": "bytes"
        }
      ],
      "name": "execute",
      "outputs": [],
      "stateMutability": "nonpayable",
      "type": "function"
    },
    {
      "inputs": [
        {
          "internalType": "address[]",
          "name": "_target",
          "type": "address[]"
        },
        {
          "internalType": "uint256[]",
          "name": "_value",
          "type": "uint256[]"
        },
        {
          "internalType": "bytes[]",
          "name": "_calldata",
          "type": "bytes[]"
        }
      ],
      "name": "executeBatch",
      "outputs": [],
      "stateMutability": "nonpayable",
      "type": "function"
    },
    {
      "inputs": [],
      "name": "getDeposit",
      "outputs": [
        {
          "internalType": "uint256",
          "name": "",
          "type": "uint256"
        }
      ],
      "stateMutability": "view",
      "type": "function"
    },
    {
      "inputs": [
        {
          "internalType": "bytes32",
          "name": "role",
          "type": "bytes32"
        }
      ],
      "name": "getRoleAdmin",
      "outputs": [
        {
          "internalType": "bytes32",
          "name": "",
          "type": "bytes32"
        }
      ],
      "stateMutability": "view",
      "type": "function"
    },
    {
      "inputs": [
        {
          "internalType": "bytes32",
          "name": "role",
          "type": "bytes32"
        },
        {
          "internalType": "uint256",
          "name": "index",
          "type": "uint256"
        }
      ],
      "name": "getRoleMember",
      "outputs": [
        {
          "internalType": "address",
          "name": "member",
          "type": "address"
        }
      ],
      "stateMutability": "view",
      "type": "function"
    },
    {
      "inputs": [
        {
          "internalType": "bytes32",
          "name": "role",
          "type": "bytes32"
        }
      ],
      "name": "getRoleMemberCount",
      "outputs": [
        {
          "internalType": "uint256",
          "name": "count",
          "type": "uint256"
        }
      ],
      "stateMutability": "view",
      "type": "function"
    },
    {
      "inputs": [
        {
          "internalType": "bytes32",
          "name": "role",
          "type": "bytes32"
        },
        {
          "internalType": "address",
          "name": "account",
          "type": "address"
        }
      ],
      "name": "grantRole",
      "outputs": [],
      "stateMutability": "nonpayable",
      "type": "function"
    },
    {
      "inputs": [
        {
          "internalType": "bytes32",
          "name": "role",
          "type": "bytes32"
        },
        {
          "internalType": "address",
          "name": "account",
          "type": "address"
        }
      ],
      "name": "hasRole",
      "outputs": [
        {
          "internalType": "bool",
          "name": "",
          "type": "bool"
        }
      ],
      "stateMutability": "view",
      "type": "function"
    },
    {
      "inputs": [
        {
          "internalType": "bytes32",
          "name": "role",
          "type": "bytes32"
        },
        {
          "internalType": "address",
          "name": "account",
          "type": "address"
        }
      ],
      "name": "hasRoleWithSwitch",
      "outputs": [
        {
          "internalType": "bool",
          "name": "",
          "type": "bool"
        }
      ],
      "stateMutability": "view",
      "type": "function"
    },
    {
      "inputs": [
        {
          "internalType": "address",
          "name": "_signer",
          "type": "address"
        }
      ],
      "name": "isValidSigner",
      "outputs": [
        {
          "internalType": "bool",
          "name": "",
          "type": "bool"
        }
      ],
      "stateMutability": "view",
      "type": "function"
    },
    {
      "inputs": [],
      "name": "nonce",
      "outputs": [
        {
          "internalType": "uint256",
          "name": "",
          "type": "uint256"
        }
      ],
      "stateMutability": "view",
      "type": "function"
    },
    {
      "inputs": [
        {
          "internalType": "address",
          "name": "",
          "type": "address"
        },
        {
          "internalType": "address",
          "name": "",
          "type": "address"
        },
        {
          "internalType": "uint256[]",
          "name": "",
          "type": "uint256[]"
        },
        {
          "internalType": "uint256[]",
          "name": "",
          "type": "uint256[]"
        },
        {
          "internalType": "bytes",
          "name": "",
          "type": "bytes"
        }
      ],
      "name": "onERC1155BatchReceived",
      "outputs": [
        {
          "internalType": "bytes4",
          "name": "",
          "type": "bytes4"
        }
      ],
      "stateMutability": "nonpayable",
      "type": "function"
    },
    {
      "inputs": [
        {
          "internalType": "address",
          "name": "",
          "type": "address"
        },
        {
          "internalType": "address",
          "name": "",
          "type": "address"
        },
        {
          "internalType": "uint256",
          "name": "",
          "type": "uint256"
        },
        {
          "internalType": "uint256",
          "name": "",
          "type": "uint256"
        },
        {
          "internalType": "bytes",
          "name": "",
          "type": "bytes"
        }
      ],
      "name": "onERC1155Received",
      "outputs": [
        {
          "internalType": "bytes4",
          "name": "",
          "type": "bytes4"
        }
      ],
      "stateMutability": "nonpayable",
      "type": "function"
    },
    {
      "inputs": [
        {
          "internalType": "address",
          "name": "",
          "type": "address"
        },
        {
          "internalType": "address",
          "name": "",
          "type": "address"
        },
        {
          "internalType": "uint256",
          "name": "",
          "type": "uint256"
        },
        {
          "internalType": "bytes",
          "name": "",
          "type": "bytes"
        }
      ],
      "name": "onERC721Received",
      "outputs": [
        {
          "internalType": "bytes4",
          "name": "",
          "type": "bytes4"
        }
      ],
      "stateMutability": "nonpayable",
      "type": "function"
    },
    {
      "inputs": [
        {
          "internalType": "bytes32",
          "name": "role",
          "type": "bytes32"
        },
        {
          "internalType": "address",
          "name": "account",
          "type": "address"
        }
      ],
      "name": "renounceRole",
      "outputs": [],
      "stateMutability": "nonpayable",
      "type": "function"
    },
    {
      "inputs": [
        {
          "internalType": "bytes32",
          "name": "role",
          "type": "bytes32"
        },
        {
          "internalType": "address",
          "name": "account",
          "type": "address"
        }
      ],
      "name": "revokeRole",
      "outputs": [],
      "stateMutability": "nonpayable",
      "type": "function"
    },
    {
      "inputs": [
        {
          "internalType": "string",
          "name": "_uri",
          "type": "string"
        }
      ],
      "name": "setContractURI",
      "outputs": [],
      "stateMutability": "nonpayable",
      "type": "function"
    },
    {
      "inputs": [
        {
          "internalType": "bytes4",
          "name": "interfaceId",
          "type": "bytes4"
        }
      ],
      "name": "supportsInterface",
      "outputs": [
        {
          "internalType": "bool",
          "name": "",
          "type": "bool"
        }
      ],
      "stateMutability": "view",
      "type": "function"
    },
    {
      "inputs": [
        {
          "components": [
            {
              "internalType": "address",
              "name": "sender",
              "type": "address"
            },
            {
              "internalType": "uint256",
              "name": "nonce",
              "type": "uint256"
            },
            {
              "internalType": "bytes",
              "name": "initCode",
              "type": "bytes"
            },
            {
              "internalType": "bytes",
              "name": "callData",
              "type": "bytes"
            },
            {
              "internalType": "uint256",
              "name": "callGasLimit",
              "type": "uint256"
            },
            {
              "internalType": "uint256",
              "name": "verificationGasLimit",
              "type": "uint256"
            },
            {
              "internalType": "uint256",
              "name": "preVerificationGas",
              "type": "uint256"
            },
            {
              "internalType": "uint256",
              "name": "maxFeePerGas",
              "type": "uint256"
            },
            {
              "internalType": "uint256",
              "name": "maxPriorityFeePerGas",
              "type": "uint256"
            },
            {
              "internalType": "bytes",
              "name": "paymasterAndData",
              "type": "bytes"
            },
            {
              "internalType": "bytes",
              "name": "signature",
              "type": "bytes"
            }
          ],
          "internalType": "struct UserOperation",
          "name": "userOp",
          "type": "tuple"
        },
        {
          "internalType": "bytes32",
          "name": "userOpHash",
          "type": "bytes32"
        },
        {
          "internalType": "uint256",
          "name": "missingAccountFunds",
          "type": "uint256"
        }
      ],
      "name": "validateUserOp",
      "outputs": [
        {
          "internalType": "uint256",
          "name": "validationData",
          "type": "uint256"
        }
      ],
      "stateMutability": "nonpayable",
      "type": "function"
    },
    {
      "inputs": [
        {
          "internalType": "address payable",
          "name": "withdrawAddress",
          "type": "address"
        },
        {
          "internalType": "uint256",
          "name": "amount",
          "type": "uint256"
        }
      ],
      "name": "withdrawDepositTo",
      "outputs": [],
      "stateMutability": "nonpayable",
      "type": "function"
    },
    {
      "stateMutability": "payable",
      "type": "receive"
    }
  ],
  "bytecode": {
    "object": "0x60a060405234801561001057600080fd5b50604051620024203803806200242083398101604081905261003191610042565b6001600160a01b0316608052610072565b60006020828403121561005457600080fd5b81516001600160a01b038116811461006b57600080fd5b9392505050565b608051612368620000b86000396000818161044701528181610733015281816108a40152818161093001528181610bb301528181610c4c0152610feb01526123686000f3fe60806040526004361061019a5760003560e01c8063a1ebf35d116100e1578063bc197c811161008a578063d547741f11610064578063d547741f146104ec578063d5f505821461050c578063e8a3d4851461052c578063f23a6e611461054e57600080fd5b8063bc197c811461048b578063c399ec88146104b7578063ca15c873146104cc57600080fd5b8063affed0e0116100bb578063affed0e014610404578063b0d691fe14610438578063b61d27f61461046b57600080fd5b8063a1ebf35d1461039b578063a217fddf146103cf578063a32fa5b3146103e457600080fd5b806347e1da2a116101435780639010d07c1161011d5780639010d07c1461032357806391d148541461035b578063938e3d7b1461037b57600080fd5b806347e1da2a146102db5780634a58db19146102fb5780634d44560d1461030357600080fd5b80632f2ff15d116101745780632f2ff15d1461027957806336568abe1461029b5780633a871cdd146102bb57600080fd5b806301ffc9a7146101a6578063150b7a02146101db578063248a9ca31461021f57600080fd5b366101a157005b600080fd5b3480156101b257600080fd5b506101c66101c1366004611a9d565b61057a565b60405190151581526020015b60405180910390f35b3480156101e757600080fd5b506102066101f6366004611b9b565b630a85bd0160e11b949350505050565b6040516001600160e01b031990911681526020016101d2565b34801561022b57600080fd5b5061026b61023a366004611c07565b60009081527fd0ebebe8e6445c62babf8fef767eb39f1002bb957bb5b83258275a4e46428ed6602052604090205490565b6040519081526020016101d2565b34801561028557600080fd5b50610299610294366004611c20565b6105b1565b005b3480156102a757600080fd5b506102996102b6366004611c20565b61067e565b3480156102c757600080fd5b5061026b6102d6366004611c50565b6106e4565b3480156102e757600080fd5b506102996102f6366004611ce9565b610728565b6102996108a2565b34801561030f57600080fd5b5061029961031e366004611d83565b610922565b34801561032f57600080fd5b5061034361033e366004611daf565b6109af565b6040516001600160a01b0390911681526020016101d2565b34801561036757600080fd5b506101c6610376366004611c20565b610abd565b34801561038757600080fd5b50610299610396366004611dd1565b610af5565b3480156103a757600080fd5b5061026b7fe2f4eaae4a9751e85a3e4a7b9587827a877f29914755229b07a7b2da98285f7081565b3480156103db57600080fd5b5061026b600081565b3480156103f057600080fd5b506101c66103ff366004611c20565b610b46565b34801561041057600080fd5b507f6f265e404054a781955e6f16f70e749f59f16f06413e507cab627ce5381a9e335461026b565b34801561044457600080fd5b507f0000000000000000000000000000000000000000000000000000000000000000610343565b34801561047757600080fd5b50610299610486366004611e22565b610ba8565b34801561049757600080fd5b506102066104a6366004611f2b565b63bc197c8160e01b95945050505050565b3480156104c357600080fd5b5061026b610c48565b3480156104d857600080fd5b5061026b6104e7366004611c07565b610cda565b3480156104f857600080fd5b50610299610507366004611c20565b610d83565b34801561051857600080fd5b506101c6610527366004611fd9565b610dd5565b34801561053857600080fd5b50610541610e12565b6040516101d2919061204e565b34801561055a57600080fd5b50610206610569366004612061565b63f23a6e6160e01b95945050505050565b60006001600160e01b03198216630271189760e51b14806105ab57506301ffc9a760e01b6001600160e01b03198316145b92915050565b60008281527fd0ebebe8e6445c62babf8fef767eb39f1002bb957bb5b83258275a4e46428ed66020526040902054600080516020612313833981519152906105f99033610ec8565b6000838152602082815260408083206001600160a01b038616845290915290205460ff161561066f5760405162461bcd60e51b815260206004820152601d60248201527f43616e206f6e6c79206772616e7420746f206e6f6e20686f6c6465727300000060448201526064015b60405180910390fd5b6106798383610f56565b505050565b336001600160a01b038216146106d65760405162461bcd60e51b815260206004820152601a60248201527f43616e206f6e6c792072656e6f756e636520666f722073656c660000000000006044820152606401610666565b6106e08282610f6a565b5050565b60006106ee610fe0565b6106f8848461105a565b905061070760408501856120ca565b15159050610718576107188461112b565b610721826111be565b9392505050565b336001600160a01b037f00000000000000000000000000000000000000000000000000000000000000001614806107655750610765600033610abd565b6107815760405162461bcd60e51b815260040161066690612111565b848114801561078f57508483145b6107db5760405162461bcd60e51b815260206004820152601f60248201527f54574163636f756e743a2077726f6e67206172726179206c656e677468732e006044820152606401610666565b60005b85811015610899576108878787838181106107fb576107fb612154565b90506020020160208101906108109190611fd9565b86868481811061082257610822612154565b9050602002013585858581811061083b5761083b612154565b905060200281019061084d91906120ca565b8080601f01602080910402602001604051908101604052809392919081815260200183838082843760009201919091525061120b92505050565b8061089181612180565b9150506107de565b50505050505050565b7f000000000000000000000000000000000000000000000000000000000000000060405163b760faf960e01b81523060048201526001600160a01b03919091169063b760faf99034906024016000604051808303818588803b15801561090757600080fd5b505af115801561091b573d6000803e3d6000fd5b5050505050565b600061092e8133610ec8565b7f000000000000000000000000000000000000000000000000000000000000000060405163040b850f60e31b81526001600160a01b03858116600483015260248201859052919091169063205c287890604401600060405180830381600087803b15801561099b57600080fd5b505af1158015610899573d6000803e3d6000fd5b60008281527f0c4ba382c0009cf238e4c1ca1a52f51c61e6248a70bdfb34e5ed49d5578a5c0c6020819052604082205482805b82811015610ab3576000878152602085815260408083208484526001019091529020546001600160a01b031615610a5e5785821415610a4c576000878152602094855260408082209282526001909201909452909220546001600160a01b031692506105ab915050565b610a5760018361219b565b9150610aa1565b610a69876000610abd565b8015610a8e575060008781526020858152604080832083805260020190915290205481145b15610aa157610a9e60018361219b565b91505b610aac60018261219b565b90506109e2565b5050505092915050565b6000918252600080516020612313833981519152602090815260408084206001600160a01b0393909316845291905290205460ff1690565b610afd61127b565b610b3a5760405162461bcd60e51b815260206004820152600e60248201526d139bdd08185d5d1a1bdc9a5e995960921b6044820152606401610666565b610b4381611287565b50565b60008281526000805160206123138339815191526020818152604080842084805290915282205460ff16610b9e576000848152602091825260408082206001600160a01b0386168352909252205460ff1690506105ab565b5060019392505050565b336001600160a01b037f0000000000000000000000000000000000000000000000000000000000000000161480610be55750610be5600033610abd565b610c015760405162461bcd60e51b815260040161066690612111565b610c42848484848080601f01602080910402602001604051908101604052809392919081815260200183838082843760009201919091525061120b92505050565b50505050565b60007f00000000000000000000000000000000000000000000000000000000000000006040516370a0823160e01b81523060048201526001600160a01b0391909116906370a0823190602401602060405180830381865afa158015610cb1573d6000803e3d6000fd5b505050506040513d601f19601f82011682018060405250810190610cd591906121b3565b905090565b60008181527f0c4ba382c0009cf238e4c1ca1a52f51c61e6248a70bdfb34e5ed49d5578a5c0c60208190526040822054825b81811015610d5d576000858152602084815260408083208484526001019091529020546001600160a01b031615610d4b57610d4860018561219b565b93505b610d5660018261219b565b9050610d0c565b50610d69846000610abd565b15610d7c57610d7960018461219b565b92505b5050919050565b60008281527fd0ebebe8e6445c62babf8fef767eb39f1002bb957bb5b83258275a4e46428ed6602052604090205460008051602061231383398151915290610dcb9033610ec8565b6106798383610f6a565b6000610e017fe2f4eaae4a9751e85a3e4a7b9587827a877f29914755229b07a7b2da98285f7083610abd565b806105ab57506105ab600083610abd565b7fa7d40346e44ca145e94a946aa34a7d4a67245577dc18699a626fe0ffc6ce32818054606091908190610e44906121cc565b80601f0160208091040260200160405190810160405280929190818152602001828054610e70906121cc565b8015610ebd5780601f10610e9257610100808354040283529160200191610ebd565b820191906000526020600020905b815481529060010190602001808311610ea057829003601f168201915b505050505091505090565b6000828152600080516020612313833981519152602081815260408084206001600160a01b03861685529091529091205460ff1661067957610f14826001600160a01b0316601461138b565b610f1f84602061138b565b604051602001610f30929190612207565b60408051601f198184030181529082905262461bcd60e51b82526106669160040161204e565b610f608282611527565b6106e08282611591565b610f74828261161f565b60008281527f0c4ba382c0009cf238e4c1ca1a52f51c61e6248a70bdfb34e5ed49d5578a5c0c602090815260408083206001600160a01b03851680855260028201808552838620805487526001909301855292852080546001600160a01b031916905584529152555050565b336001600160a01b037f000000000000000000000000000000000000000000000000000000000000000016146110585760405162461bcd60e51b815260206004820152601c60248201527f6163636f756e743a206e6f742066726f6d20456e747279506f696e74000000006044820152606401610666565b565b6000806110b4836040517f19457468657265756d205369676e6564204d6573736167653a0a3332000000006020820152603c8101829052600090605c01604051602081830303815290604052805190602001209050919050565b905060006111066110c96101408701876120ca565b8080601f016020809104026020016040519081016040528093929190818152602001838380828437600092019190915250869392505061168f9050565b905061111181610dd5565b611120576001925050506105ab565b506000949350505050565b7f6f265e404054a781955e6f16f70e749f59f16f06413e507cab627ce5381a9e3380546020830135146111a05760405162461bcd60e51b815260206004820152601860248201527f54574163636f756e743a20696e76616c6964206e6f6e636500000000000000006044820152606401610666565b60018160000160008282546111b5919061219b565b90915550505050565b8015610b4357604051600090339060001990849084818181858888f193505050503d806000811461091b576040519150601f19603f3d011682016040523d82523d6000602084013e61091b565b600080846001600160a01b03168484604051611227919061227c565b60006040518083038185875af1925050503d8060008114611264576040519150601f19603f3d011682016040523d82523d6000602084013e611269565b606091505b50915091508161091b57805160208201fd5b6000610cd58133610abd565b7fa7d40346e44ca145e94a946aa34a7d4a67245577dc18699a626fe0ffc6ce3281805460009082906112b8906121cc565b80601f01602080910402602001604051908101604052809291908181526020018280546112e4906121cc565b80156113315780601f1061130657610100808354040283529160200191611331565b820191906000526020600020905b81548152906001019060200180831161131457829003601f168201915b5050865193945061134c938693506020880192509050611a04565b507fc9c7c3fe08b88b4df9d4d47ef47d2c43d55c025a0ba88ca442580ed9e7348a16818460405161137e929190612298565b60405180910390a1505050565b6060600061139a8360026122c6565b6113a590600261219b565b67ffffffffffffffff8111156113bd576113bd611adc565b6040519080825280601f01601f1916602001820160405280156113e7576020820181803683370190505b509050600360fc1b8160008151811061140257611402612154565b60200101906001600160f81b031916908160001a905350600f60fb1b8160018151811061143157611431612154565b60200101906001600160f81b031916908160001a90535060006114558460026122c6565b61146090600161219b565b90505b60018111156114d8576f181899199a1a9b1b9c1cb0b131b232b360811b85600f166010811061149457611494612154565b1a60f81b8282815181106114aa576114aa612154565b60200101906001600160f81b031916908160001a90535060049490941c936114d1816122e5565b9050611463565b5083156107215760405162461bcd60e51b815260206004820181905260248201527f537472696e67733a20686578206c656e67746820696e73756666696369656e746044820152606401610666565b6000828152600080516020612313833981519152602081815260408084206001600160a01b0386168086529252808420805460ff19166001179055519192339286917f2f8788117e7eff1d82e926ec794901d17c78024a50270940304540a733656f0d91a4505050565b60008281527f0c4ba382c0009cf238e4c1ca1a52f51c61e6248a70bdfb34e5ed49d5578a5c0c60208190526040822080549192600191906115d2838561219b565b909155505060009384526020918252604080852082865260018101845281862080546001600160a01b039096166001600160a01b0319909616861790559385526002909301909152912055565b6000805160206123138339815191526116388383610ec8565b6000838152602082815260408083206001600160a01b0386168085529252808320805460ff1916905551339286917ff6391f5c32d9c69d2a47ea670b442974b53935d1edc7fd64eb21e047a839171b9190a4505050565b600080600061169e85856116b3565b915091506116ab81611723565b509392505050565b6000808251604114156116ea5760208301516040840151606085015160001a6116de878285856118de565b9450945050505061171c565b82516040141561171457602083015160408401516117098683836119cb565b93509350505061171c565b506000905060025b9250929050565b6000816004811115611737576117376122fc565b14156117405750565b6001816004811115611754576117546122fc565b14156117a25760405162461bcd60e51b815260206004820152601860248201527f45434453413a20696e76616c6964207369676e617475726500000000000000006044820152606401610666565b60028160048111156117b6576117b66122fc565b14156118045760405162461bcd60e51b815260206004820152601f60248201527f45434453413a20696e76616c6964207369676e6174757265206c656e677468006044820152606401610666565b6003816004811115611818576118186122fc565b14156118715760405162461bcd60e51b815260206004820152602260248201527f45434453413a20696e76616c6964207369676e6174757265202773272076616c604482015261756560f01b6064820152608401610666565b6004816004811115611885576118856122fc565b1415610b435760405162461bcd60e51b815260206004820152602260248201527f45434453413a20696e76616c6964207369676e6174757265202776272076616c604482015261756560f01b6064820152608401610666565b6000807f7fffffffffffffffffffffffffffffff5d576e7357a4501ddfe92f46681b20a083111561191557506000905060036119c2565b8460ff16601b1415801561192d57508460ff16601c14155b1561193e57506000905060046119c2565b6040805160008082526020820180845289905260ff881692820192909252606081018690526080810185905260019060a0016020604051602081039080840390855afa158015611992573d6000803e3d6000fd5b5050604051601f1901519150506001600160a01b0381166119bb576000600192509250506119c2565b9150600090505b94509492505050565b6000806001600160ff1b038316816119e860ff86901c601b61219b565b90506119f6878288856118de565b935093505050935093915050565b828054611a10906121cc565b90600052602060002090601f016020900481019282611a325760008555611a78565b82601f10611a4b57805160ff1916838001178555611a78565b82800160010185558215611a78579182015b82811115611a78578251825591602001919060010190611a5d565b50611a84929150611a88565b5090565b5b80821115611a845760008155600101611a89565b600060208284031215611aaf57600080fd5b81356001600160e01b03198116811461072157600080fd5b6001600160a01b0381168114610b4357600080fd5b634e487b7160e01b600052604160045260246000fd5b604051601f8201601f1916810167ffffffffffffffff81118282101715611b1b57611b1b611adc565b604052919050565b600067ffffffffffffffff831115611b3d57611b3d611adc565b611b50601f8401601f1916602001611af2565b9050828152838383011115611b6457600080fd5b828260208301376000602084830101529392505050565b600082601f830112611b8c57600080fd5b61072183833560208501611b23565b60008060008060808587031215611bb157600080fd5b8435611bbc81611ac7565b93506020850135611bcc81611ac7565b925060408501359150606085013567ffffffffffffffff811115611bef57600080fd5b611bfb87828801611b7b565b91505092959194509250565b600060208284031215611c1957600080fd5b5035919050565b60008060408385031215611c3357600080fd5b823591506020830135611c4581611ac7565b809150509250929050565b600080600060608486031215611c6557600080fd5b833567ffffffffffffffff811115611c7c57600080fd5b84016101608187031215611c8f57600080fd5b95602085013595506040909401359392505050565b60008083601f840112611cb657600080fd5b50813567ffffffffffffffff811115611cce57600080fd5b6020830191508360208260051b850101111561171c57600080fd5b60008060008060008060608789031215611d0257600080fd5b863567ffffffffffffffff80821115611d1a57600080fd5b611d268a838b01611ca4565b90985096506020890135915080821115611d3f57600080fd5b611d4b8a838b01611ca4565b90965094506040890135915080821115611d6457600080fd5b50611d7189828a01611ca4565b979a9699509497509295939492505050565b60008060408385031215611d9657600080fd5b8235611da181611ac7565b946020939093013593505050565b60008060408385031215611dc257600080fd5b50508035926020909101359150565b600060208284031215611de357600080fd5b813567ffffffffffffffff811115611dfa57600080fd5b8201601f81018413611e0b57600080fd5b611e1a84823560208401611b23565b949350505050565b60008060008060608587031215611e3857600080fd5b8435611e4381611ac7565b935060208501359250604085013567ffffffffffffffff80821115611e6757600080fd5b818701915087601f830112611e7b57600080fd5b813581811115611e8a57600080fd5b886020828501011115611e9c57600080fd5b95989497505060200194505050565b600082601f830112611ebc57600080fd5b8135602067ffffffffffffffff821115611ed857611ed8611adc565b8160051b611ee7828201611af2565b9283528481018201928281019087851115611f0157600080fd5b83870192505b84831015611f2057823582529183019190830190611f07565b979650505050505050565b600080600080600060a08688031215611f4357600080fd5b8535611f4e81611ac7565b94506020860135611f5e81611ac7565b9350604086013567ffffffffffffffff80821115611f7b57600080fd5b611f8789838a01611eab565b94506060880135915080821115611f9d57600080fd5b611fa989838a01611eab565b93506080880135915080821115611fbf57600080fd5b50611fcc88828901611b7b565b9150509295509295909350565b600060208284031215611feb57600080fd5b813561072181611ac7565b60005b83811015612011578181015183820152602001611ff9565b83811115610c425750506000910152565b6000815180845261203a816020860160208601611ff6565b601f01601f19169290920160200192915050565b6020815260006107216020830184612022565b600080600080600060a0868803121561207957600080fd5b853561208481611ac7565b9450602086013561209481611ac7565b93506040860135925060608601359150608086013567ffffffffffffffff8111156120be57600080fd5b611fcc88828901611b7b565b6000808335601e198436030181126120e157600080fd5b83018035915067ffffffffffffffff8211156120fc57600080fd5b60200191503681900382131561171c57600080fd5b60208082526023908201527f54574163636f756e743a206e6f742061646d696e206f7220456e747279506f69604082015262373a1760e91b606082015260800190565b634e487b7160e01b600052603260045260246000fd5b634e487b7160e01b600052601160045260246000fd5b60006000198214156121945761219461216a565b5060010190565b600082198211156121ae576121ae61216a565b500190565b6000602082840312156121c557600080fd5b5051919050565b600181811c908216806121e057607f821691505b6020821081141561220157634e487b7160e01b600052602260045260246000fd5b50919050565b7f5065726d697373696f6e733a206163636f756e7420000000000000000000000081526000835161223f816015850160208801611ff6565b7001034b99036b4b9b9b4b733903937b6329607d1b6015918401918201528351612270816026840160208801611ff6565b01602601949350505050565b6000825161228e818460208701611ff6565b9190910192915050565b6040815260006122ab6040830185612022565b82810360208401526122bd8185612022565b95945050505050565b60008160001904831182151516156122e0576122e061216a565b500290565b6000816122f4576122f461216a565b506000190190565b634e487b7160e01b600052602160045260246000fdfed0ebebe8e6445c62babf8fef767eb39f1002bb957bb5b83258275a4e46428ed5a26469706673582212203505ff8430f14fe60f90d9110dd02032200f85c261f405aa1014e103f1a7cdac64736f6c634300080c0033",
    "linkReferences": {}
  },
  "methodIdentifiers": {
    "DEFAULT_ADMIN_ROLE()": "a217fddf",
    "SIGNER_ROLE()": "a1ebf35d",
    "addDeposit()": "4a58db19",
    "contractURI()": "e8a3d485",
    "entryPoint()": "b0d691fe",
    "execute(address,uint256,bytes)": "b61d27f6",
    "executeBatch(address[],uint256[],bytes[])": "47e1da2a",
    "getDeposit()": "c399ec88",
    "getRoleAdmin(bytes32)": "248a9ca3",
    "getRoleMember(bytes32,uint256)": "9010d07c",
    "getRoleMemberCount(bytes32)": "ca15c873",
    "grantRole(bytes32,address)": "2f2ff15d",
    "hasRole(bytes32,address)": "91d14854",
    "hasRoleWithSwitch(bytes32,address)": "a32fa5b3",
    "isValidSigner(address)": "d5f50582",
    "nonce()": "affed0e0",
    "onERC1155BatchReceived(address,address,uint256[],uint256[],bytes)": "bc197c81",
    "onERC1155Received(address,address,uint256,uint256,bytes)": "f23a6e61",
    "onERC721Received(address,address,uint256,bytes)": "150b7a02",
    "renounceRole(bytes32,address)": "36568abe",
    "revokeRole(bytes32,address)": "d547741f",
    "setContractURI(string)": "938e3d7b",
    "supportsInterface(bytes4)": "01ffc9a7",
    "validateUserOp((address,uint256,bytes,bytes,uint256,uint256,uint256,uint256,uint256,bytes,bytes),bytes32,uint256)": "3a871cdd",
    "withdrawDepositTo(address,uint256)": "4d44560d"
  },
  "id": 276
}