{
  "abi": [
    {
      "inputs": [
        {
          "internalType": "contract IEntryPoint",
          "name": "_entrypoint",
          "type": "address"
        }
      ],
      "stateMutability": "nonpayable",
      "type": "constructor"
    },
    {
      "anonymous": false,
      "inputs": [
        {
          "indexed": false,
          "internalType": "string",
          "name": "prevURI",
          "type": "string"
        },
        {
          "indexed": false,
          "internalType": "string",
          "name": "newURI",
          "type": "string"
        }
      ],
      "name": "ContractURIUpdated",
      "type": "event"
    },
    {
      "anonymous": false,
      "inputs": [
        {
          "indexed": false,
          "internalType": "uint8",
          "name": "version",
          "type": "uint8"
        }
      ],
      "name": "Initialized",
      "type": "event"
    },
    {
      "anonymous": false,
      "inputs": [
        {
          "indexed": true,
          "internalType": "bytes32",
          "name": "role",
          "type": "bytes32"
        },
        {
          "indexed": true,
          "internalType": "bytes32",
          "name": "previousAdminRole",
          "type": "bytes32"
        },
        {
          "indexed": true,
          "internalType": "bytes32",
          "name": "newAdminRole",
          "type": "bytes32"
        }
      ],
      "name": "RoleAdminChanged",
      "type": "event"
    },
    {
      "anonymous": false,
      "inputs": [
        {
          "indexed": true,
          "internalType": "bytes32",
          "name": "role",
          "type": "bytes32"
        },
        {
          "indexed": true,
          "internalType": "address",
          "name": "account",
          "type": "address"
        },
        {
          "indexed": true,
          "internalType": "address",
          "name": "sender",
          "type": "address"
        }
      ],
      "name": "RoleGranted",
      "type": "event"
    },
    {
      "anonymous": false,
      "inputs": [
        {
          "indexed": true,
          "internalType": "bytes32",
          "name": "role",
          "type": "bytes32"
        },
        {
          "indexed": true,
          "internalType": "address",
          "name": "account",
          "type": "address"
        },
        {
          "indexed": true,
          "internalType": "address",
          "name": "sender",
          "type": "address"
        }
      ],
      "name": "RoleRevoked",
      "type": "event"
    },
    {
      "inputs": [],
      "name": "DEFAULT_ADMIN_ROLE",
      "outputs": [
        {
          "internalType": "bytes32",
          "name": "",
          "type": "bytes32"
        }
      ],
      "stateMutability": "view",
      "type": "function"
    },
    {
      "inputs": [],
      "name": "SIGNER_ROLE",
      "outputs": [
        {
          "internalType": "bytes32",
          "name": "",
          "type": "bytes32"
        }
      ],
      "stateMutability": "view",
      "type": "function"
    },
    {
      "inputs": [],
      "name": "addDeposit",
      "outputs": [],
      "stateMutability": "payable",
      "type": "function"
    },
    {
      "inputs": [],
      "name": "contractURI",
      "outputs": [
        {
          "internalType": "string",
          "name": "",
          "type": "string"
        }
      ],
      "stateMutability": "view",
      "type": "function"
    },
    {
      "inputs": [],
      "name": "entryPoint",
      "outputs": [
        {
          "internalType": "contract IEntryPoint",
          "name": "",
          "type": "address"
        }
      ],
      "stateMutability": "view",
      "type": "function"
    },
    {
      "inputs": [
        {
          "internalType": "address",
          "name": "_target",
          "type": "address"
        },
        {
          "internalType": "uint256",
          "name": "_value",
          "type": "uint256"
        },
        {
          "internalType": "bytes",
          "name": "_calldata",
          "type": "bytes"
        }
      ],
      "name": "execute",
      "outputs": [],
      "stateMutability": "nonpayable",
      "type": "function"
    },
    {
      "inputs": [
        {
          "internalType": "address[]",
          "name": "_target",
          "type": "address[]"
        },
        {
          "internalType": "uint256[]",
          "name": "_value",
          "type": "uint256[]"
        },
        {
          "internalType": "bytes[]",
          "name": "_calldata",
          "type": "bytes[]"
        }
      ],
      "name": "executeBatch",
      "outputs": [],
      "stateMutability": "nonpayable",
      "type": "function"
    },
    {
      "inputs": [],
      "name": "getDeposit",
      "outputs": [
        {
          "internalType": "uint256",
          "name": "",
          "type": "uint256"
        }
      ],
      "stateMutability": "view",
      "type": "function"
    },
    {
      "inputs": [
        {
          "internalType": "bytes32",
          "name": "role",
          "type": "bytes32"
        }
      ],
      "name": "getRoleAdmin",
      "outputs": [
        {
          "internalType": "bytes32",
          "name": "",
          "type": "bytes32"
        }
      ],
      "stateMutability": "view",
      "type": "function"
    },
    {
      "inputs": [
        {
          "internalType": "bytes32",
          "name": "role",
          "type": "bytes32"
        },
        {
          "internalType": "uint256",
          "name": "index",
          "type": "uint256"
        }
      ],
      "name": "getRoleMember",
      "outputs": [
        {
          "internalType": "address",
          "name": "member",
          "type": "address"
        }
      ],
      "stateMutability": "view",
      "type": "function"
    },
    {
      "inputs": [
        {
          "internalType": "bytes32",
          "name": "role",
          "type": "bytes32"
        }
      ],
      "name": "getRoleMemberCount",
      "outputs": [
        {
          "internalType": "uint256",
          "name": "count",
          "type": "uint256"
        }
      ],
      "stateMutability": "view",
      "type": "function"
    },
    {
      "inputs": [
        {
          "internalType": "bytes32",
          "name": "role",
          "type": "bytes32"
        },
        {
          "internalType": "address",
          "name": "account",
          "type": "address"
        }
      ],
      "name": "grantRole",
      "outputs": [],
      "stateMutability": "nonpayable",
      "type": "function"
    },
    {
      "inputs": [
        {
          "internalType": "bytes32",
          "name": "role",
          "type": "bytes32"
        },
        {
          "internalType": "address",
          "name": "account",
          "type": "address"
        }
      ],
      "name": "hasRole",
      "outputs": [
        {
          "internalType": "bool",
          "name": "",
          "type": "bool"
        }
      ],
      "stateMutability": "view",
      "type": "function"
    },
    {
      "inputs": [
        {
          "internalType": "bytes32",
          "name": "role",
          "type": "bytes32"
        },
        {
          "internalType": "address",
          "name": "account",
          "type": "address"
        }
      ],
      "name": "hasRoleWithSwitch",
      "outputs": [
        {
          "internalType": "bool",
          "name": "",
          "type": "bool"
        }
      ],
      "stateMutability": "view",
      "type": "function"
    },
    {
      "inputs": [
        {
          "internalType": "address",
          "name": "_defaultAdmin",
          "type": "address"
        }
      ],
      "name": "initialize",
      "outputs": [],
      "stateMutability": "nonpayable",
      "type": "function"
    },
    {
      "inputs": [
        {
          "internalType": "address",
          "name": "_signer",
          "type": "address"
        }
      ],
      "name": "isValidSigner",
      "outputs": [
        {
          "internalType": "bool",
          "name": "",
          "type": "bool"
        }
      ],
      "stateMutability": "view",
      "type": "function"
    },
    {
      "inputs": [
        {
          "internalType": "bytes[]",
          "name": "data",
          "type": "bytes[]"
        }
      ],
      "name": "multicall",
      "outputs": [
        {
          "internalType": "bytes[]",
          "name": "results",
          "type": "bytes[]"
        }
      ],
      "stateMutability": "nonpayable",
      "type": "function"
    },
    {
      "inputs": [],
      "name": "nonce",
      "outputs": [
        {
          "internalType": "uint256",
          "name": "",
          "type": "uint256"
        }
      ],
      "stateMutability": "view",
      "type": "function"
    },
    {
      "inputs": [
        {
          "internalType": "address",
          "name": "",
          "type": "address"
        },
        {
          "internalType": "address",
          "name": "",
          "type": "address"
        },
        {
          "internalType": "uint256[]",
          "name": "",
          "type": "uint256[]"
        },
        {
          "internalType": "uint256[]",
          "name": "",
          "type": "uint256[]"
        },
        {
          "internalType": "bytes",
          "name": "",
          "type": "bytes"
        }
      ],
      "name": "onERC1155BatchReceived",
      "outputs": [
        {
          "internalType": "bytes4",
          "name": "",
          "type": "bytes4"
        }
      ],
      "stateMutability": "nonpayable",
      "type": "function"
    },
    {
      "inputs": [
        {
          "internalType": "address",
          "name": "",
          "type": "address"
        },
        {
          "internalType": "address",
          "name": "",
          "type": "address"
        },
        {
          "internalType": "uint256",
          "name": "",
          "type": "uint256"
        },
        {
          "internalType": "uint256",
          "name": "",
          "type": "uint256"
        },
        {
          "internalType": "bytes",
          "name": "",
          "type": "bytes"
        }
      ],
      "name": "onERC1155Received",
      "outputs": [
        {
          "internalType": "bytes4",
          "name": "",
          "type": "bytes4"
        }
      ],
      "stateMutability": "nonpayable",
      "type": "function"
    },
    {
      "inputs": [
        {
          "internalType": "address",
          "name": "",
          "type": "address"
        },
        {
          "internalType": "address",
          "name": "",
          "type": "address"
        },
        {
          "internalType": "uint256",
          "name": "",
          "type": "uint256"
        },
        {
          "internalType": "bytes",
          "name": "",
          "type": "bytes"
        }
      ],
      "name": "onERC721Received",
      "outputs": [
        {
          "internalType": "bytes4",
          "name": "",
          "type": "bytes4"
        }
      ],
      "stateMutability": "nonpayable",
      "type": "function"
    },
    {
      "inputs": [
        {
          "internalType": "bytes32",
          "name": "role",
          "type": "bytes32"
        },
        {
          "internalType": "address",
          "name": "account",
          "type": "address"
        }
      ],
      "name": "renounceRole",
      "outputs": [],
      "stateMutability": "nonpayable",
      "type": "function"
    },
    {
      "inputs": [
        {
          "internalType": "bytes32",
          "name": "role",
          "type": "bytes32"
        },
        {
          "internalType": "address",
          "name": "account",
          "type": "address"
        }
      ],
      "name": "revokeRole",
      "outputs": [],
      "stateMutability": "nonpayable",
      "type": "function"
    },
    {
      "inputs": [
        {
          "internalType": "string",
          "name": "_uri",
          "type": "string"
        }
      ],
      "name": "setContractURI",
      "outputs": [],
      "stateMutability": "nonpayable",
      "type": "function"
    },
    {
      "inputs": [
        {
          "internalType": "bytes4",
          "name": "interfaceId",
          "type": "bytes4"
        }
      ],
      "name": "supportsInterface",
      "outputs": [
        {
          "internalType": "bool",
          "name": "",
          "type": "bool"
        }
      ],
      "stateMutability": "view",
      "type": "function"
    },
    {
      "inputs": [
        {
          "components": [
            {
              "internalType": "address",
              "name": "sender",
              "type": "address"
            },
            {
              "internalType": "uint256",
              "name": "nonce",
              "type": "uint256"
            },
            {
              "internalType": "bytes",
              "name": "initCode",
              "type": "bytes"
            },
            {
              "internalType": "bytes",
              "name": "callData",
              "type": "bytes"
            },
            {
              "internalType": "uint256",
              "name": "callGasLimit",
              "type": "uint256"
            },
            {
              "internalType": "uint256",
              "name": "verificationGasLimit",
              "type": "uint256"
            },
            {
              "internalType": "uint256",
              "name": "preVerificationGas",
              "type": "uint256"
            },
            {
              "internalType": "uint256",
              "name": "maxFeePerGas",
              "type": "uint256"
            },
            {
              "internalType": "uint256",
              "name": "maxPriorityFeePerGas",
              "type": "uint256"
            },
            {
              "internalType": "bytes",
              "name": "paymasterAndData",
              "type": "bytes"
            },
            {
              "internalType": "bytes",
              "name": "signature",
              "type": "bytes"
            }
          ],
          "internalType": "struct UserOperation",
          "name": "userOp",
          "type": "tuple"
        },
        {
          "internalType": "bytes32",
          "name": "userOpHash",
          "type": "bytes32"
        },
        {
          "internalType": "uint256",
          "name": "missingAccountFunds",
          "type": "uint256"
        }
      ],
      "name": "validateUserOp",
      "outputs": [
        {
          "internalType": "uint256",
          "name": "validationData",
          "type": "uint256"
        }
      ],
      "stateMutability": "nonpayable",
      "type": "function"
    },
    {
      "inputs": [
        {
          "internalType": "address payable",
          "name": "withdrawAddress",
          "type": "address"
        },
        {
          "internalType": "uint256",
          "name": "amount",
          "type": "uint256"
        }
      ],
      "name": "withdrawDepositTo",
      "outputs": [],
      "stateMutability": "nonpayable",
      "type": "function"
    },
    {
      "stateMutability": "payable",
      "type": "receive"
    }
  ],
  "bytecode": {
    "object": "0x60a06040523480156200001157600080fd5b50604051620028f8380380620028f8833981016040819052620000349162000046565b6001600160a01b031660805262000078565b6000602082840312156200005957600080fd5b81516001600160a01b03811681146200007157600080fd5b9392505050565b60805161283a620000be6000396000818161048a015281816107a501528181610916015281816109a201528181610d1a01528181610db301526112b7015261283a6000f3fe6080604052600436106101b05760003560e01c8063a217fddf116100ec578063c399ec881161008a578063d547741f11610064578063d547741f1461054f578063d5f505821461056f578063e8a3d4851461058f578063f23a6e61146105b157600080fd5b8063c399ec88146104fa578063c4d66de81461050f578063ca15c8731461052f57600080fd5b8063affed0e0116100c6578063affed0e014610447578063b0d691fe1461047b578063b61d27f6146104ae578063bc197c81146104ce57600080fd5b8063a217fddf146103e5578063a32fa5b3146103fa578063ac9650d81461041a57600080fd5b806347e1da2a116101595780639010d07c116101335780639010d07c1461033957806391d1485414610371578063938e3d7b14610391578063a1ebf35d146103b157600080fd5b806347e1da2a146102f15780634a58db19146103115780634d44560d1461031957600080fd5b80632f2ff15d1161018a5780632f2ff15d1461028f57806336568abe146102b15780633a871cdd146102d157600080fd5b806301ffc9a7146101bc578063150b7a02146101f1578063248a9ca31461023557600080fd5b366101b757005b600080fd5b3480156101c857600080fd5b506101dc6101d7366004611ea4565b6105dd565b60405190151581526020015b60405180910390f35b3480156101fd57600080fd5b5061021c61020c366004611fa2565b630a85bd0160e11b949350505050565b6040516001600160e01b031990911681526020016101e8565b34801561024157600080fd5b5061028161025036600461200e565b60009081527fd0ebebe8e6445c62babf8fef767eb39f1002bb957bb5b83258275a4e46428ed6602052604090205490565b6040519081526020016101e8565b34801561029b57600080fd5b506102af6102aa366004612027565b610623565b005b3480156102bd57600080fd5b506102af6102cc366004612027565b6106f0565b3480156102dd57600080fd5b506102816102ec366004612057565b610756565b3480156102fd57600080fd5b506102af61030c3660046120f0565b61079a565b6102af610914565b34801561032557600080fd5b506102af61033436600461218a565b610994565b34801561034557600080fd5b506103596103543660046121b6565b610a21565b6040516001600160a01b0390911681526020016101e8565b34801561037d57600080fd5b506101dc61038c366004612027565b610b2f565b34801561039d57600080fd5b506102af6103ac3660046121d8565b610b67565b3480156103bd57600080fd5b506102817fe2f4eaae4a9751e85a3e4a7b9587827a877f29914755229b07a7b2da98285f7081565b3480156103f157600080fd5b50610281600081565b34801561040657600080fd5b506101dc610415366004612027565b610bb8565b34801561042657600080fd5b5061043a610435366004612229565b610c1a565b6040516101e891906122c3565b34801561045357600080fd5b507f6f265e404054a781955e6f16f70e749f59f16f06413e507cab627ce5381a9e3354610281565b34801561048757600080fd5b507f0000000000000000000000000000000000000000000000000000000000000000610359565b3480156104ba57600080fd5b506102af6104c9366004612325565b610d0f565b3480156104da57600080fd5b5061021c6104e936600461242e565b63bc197c8160e01b95945050505050565b34801561050657600080fd5b50610281610daf565b34801561051b57600080fd5b506102af61052a3660046124dc565b610e41565b34801561053b57600080fd5b5061028161054a36600461200e565b610f71565b34801561055b57600080fd5b506102af61056a366004612027565b61101a565b34801561057b57600080fd5b506101dc61058a3660046124dc565b61106c565b34801561059b57600080fd5b506105a46110a9565b6040516101e891906124f9565b3480156105bd57600080fd5b5061021c6105cc36600461250c565b63f23a6e6160e01b95945050505050565b60006001600160e01b03198216630271189760e51b148061060e57506001600160e01b03198216630a85bd0160e11b145b8061061d575061061d8261115f565b92915050565b60008281527fd0ebebe8e6445c62babf8fef767eb39f1002bb957bb5b83258275a4e46428ed660205260409020546000805160206127be8339815191529061066b9033611194565b6000838152602082815260408083206001600160a01b038616845290915290205460ff16156106e15760405162461bcd60e51b815260206004820152601d60248201527f43616e206f6e6c79206772616e7420746f206e6f6e20686f6c6465727300000060448201526064015b60405180910390fd5b6106eb8383611222565b505050565b336001600160a01b038216146107485760405162461bcd60e51b815260206004820152601a60248201527f43616e206f6e6c792072656e6f756e636520666f722073656c6600000000000060448201526064016106d8565b6107528282611236565b5050565b60006107606112ac565b61076a8484611326565b90506107796040850185612575565b1515905061078a5761078a846113f7565b6107938261148a565b9392505050565b336001600160a01b037f00000000000000000000000000000000000000000000000000000000000000001614806107d757506107d7600033610b2f565b6107f35760405162461bcd60e51b81526004016106d8906125bc565b848114801561080157508483145b61084d5760405162461bcd60e51b815260206004820152601f60248201527f54574163636f756e743a2077726f6e67206172726179206c656e677468732e0060448201526064016106d8565b60005b8581101561090b576108f987878381811061086d5761086d6125ff565b905060200201602081019061088291906124dc565b868684818110610894576108946125ff565b905060200201358585858181106108ad576108ad6125ff565b90506020028101906108bf9190612575565b8080601f0160208091040260200160405190810160405280939291908181526020018383808284376000920191909152506114d792505050565b806109038161262b565b915050610850565b50505050505050565b7f000000000000000000000000000000000000000000000000000000000000000060405163b760faf960e01b81523060048201526001600160a01b03919091169063b760faf99034906024016000604051808303818588803b15801561097957600080fd5b505af115801561098d573d6000803e3d6000fd5b5050505050565b60006109a08133611194565b7f000000000000000000000000000000000000000000000000000000000000000060405163040b850f60e31b81526001600160a01b03858116600483015260248201859052919091169063205c287890604401600060405180830381600087803b158015610a0d57600080fd5b505af115801561090b573d6000803e3d6000fd5b60008281527f0c4ba382c0009cf238e4c1ca1a52f51c61e6248a70bdfb34e5ed49d5578a5c0c6020819052604082205482805b82811015610b25576000878152602085815260408083208484526001019091529020546001600160a01b031615610ad05785821415610abe576000878152602094855260408082209282526001909201909452909220546001600160a01b0316925061061d915050565b610ac9600183612646565b9150610b13565b610adb876000610b2f565b8015610b00575060008781526020858152604080832083805260020190915290205481145b15610b1357610b10600183612646565b91505b610b1e600182612646565b9050610a54565b5050505092915050565b60009182526000805160206127be833981519152602090815260408084206001600160a01b0393909316845291905290205460ff1690565b610b6f611547565b610bac5760405162461bcd60e51b815260206004820152600e60248201526d139bdd08185d5d1a1bdc9a5e995960921b60448201526064016106d8565b610bb581611553565b50565b60008281526000805160206127be8339815191526020818152604080842084805290915282205460ff16610c10576000848152602091825260408082206001600160a01b0386168352909252205460ff16905061061d565b5060019392505050565b60608167ffffffffffffffff811115610c3557610c35611ee3565b604051908082528060200260200182016040528015610c6857816020015b6060815260200190600190039081610c535790505b50905060005b82811015610d0857610cd830858584818110610c8c57610c8c6125ff565b9050602002810190610c9e9190612575565b8080601f01602080910402602001604051908101604052809392919081815260200183838082843760009201919091525061165792505050565b828281518110610cea57610cea6125ff565b60200260200101819052508080610d009061262b565b915050610c6e565b5092915050565b336001600160a01b037f0000000000000000000000000000000000000000000000000000000000000000161480610d4c5750610d4c600033610b2f565b610d685760405162461bcd60e51b81526004016106d8906125bc565b610da9848484848080601f0160208091040260200160405190810160405280939291908181526020018383808284376000920191909152506114d792505050565b50505050565b60007f00000000000000000000000000000000000000000000000000000000000000006040516370a0823160e01b81523060048201526001600160a01b0391909116906370a0823190602401602060405180830381865afa158015610e18573d6000803e3d6000fd5b505050506040513d601f19601f82011682018060405250810190610e3c919061265e565b905090565b7f627d6cbb4eb558f37de3c2ec08b04710e54e06be936a302f087f7bfb80f39ae0805460ff808216916101009004168015808015610e82575060018360ff16105b80610e9a5750303b158015610e9a57508260ff166001145b610efd5760405162461bcd60e51b815260206004820152602e60248201527f496e697469616c697a61626c653a20636f6e747261637420697320616c72656160448201526d191e481a5b9a5d1a585b1a5e995960921b60648201526084016106d8565b835460ff191660011784558015610f1c57835461ff0019166101001784555b610f27600086611222565b801561098d57835461ff0019168455604051600181527f7f26b83ff96e1f2b6a682f133852f6798a09c465da95921460cefb38474024989060200160405180910390a15050505050565b60008181527f0c4ba382c0009cf238e4c1ca1a52f51c61e6248a70bdfb34e5ed49d5578a5c0c60208190526040822054825b81811015610ff4576000858152602084815260408083208484526001019091529020546001600160a01b031615610fe257610fdf600185612646565b93505b610fed600182612646565b9050610fa3565b50611000846000610b2f565b1561101357611010600184612646565b92505b5050919050565b60008281527fd0ebebe8e6445c62babf8fef767eb39f1002bb957bb5b83258275a4e46428ed660205260409020546000805160206127be833981519152906110629033611194565b6106eb8383611236565b60006110987fe2f4eaae4a9751e85a3e4a7b9587827a877f29914755229b07a7b2da98285f7083610b2f565b8061061d575061061d600083610b2f565b7fa7d40346e44ca145e94a946aa34a7d4a67245577dc18699a626fe0ffc6ce328180546060919081906110db90612677565b80601f016020809104026020016040519081016040528092919081815260200182805461110790612677565b80156111545780601f1061112957610100808354040283529160200191611154565b820191906000526020600020905b81548152906001019060200180831161113757829003601f168201915b505050505091505090565b60006001600160e01b03198216630271189760e51b148061061d57506301ffc9a760e01b6001600160e01b031983161461061d565b60008281526000805160206127be833981519152602081815260408084206001600160a01b03861685529091529091205460ff166106eb576111e0826001600160a01b0316601461167c565b6111eb84602061167c565b6040516020016111fc9291906126b2565b60408051601f198184030181529082905262461bcd60e51b82526106d8916004016124f9565b61122c8282611818565b6107528282611882565b6112408282611910565b60008281527f0c4ba382c0009cf238e4c1ca1a52f51c61e6248a70bdfb34e5ed49d5578a5c0c602090815260408083206001600160a01b03851680855260028201808552838620805487526001909301855292852080546001600160a01b031916905584529152555050565b336001600160a01b037f000000000000000000000000000000000000000000000000000000000000000016146113245760405162461bcd60e51b815260206004820152601c60248201527f6163636f756e743a206e6f742066726f6d20456e747279506f696e740000000060448201526064016106d8565b565b600080611380836040517f19457468657265756d205369676e6564204d6573736167653a0a3332000000006020820152603c8101829052600090605c01604051602081830303815290604052805190602001209050919050565b905060006113d2611395610140870187612575565b8080601f01602080910402602001604051908101604052809392919081815260200183838082843760009201919091525086939250506119809050565b90506113dd8161106c565b6113ec5760019250505061061d565b506000949350505050565b7f6f265e404054a781955e6f16f70e749f59f16f06413e507cab627ce5381a9e33805460208301351461146c5760405162461bcd60e51b815260206004820152601860248201527f54574163636f756e743a20696e76616c6964206e6f6e6365000000000000000060448201526064016106d8565b60018160000160008282546114819190612646565b90915550505050565b8015610bb557604051600090339060001990849084818181858888f193505050503d806000811461098d576040519150601f19603f3d011682016040523d82523d6000602084013e61098d565b600080846001600160a01b031684846040516114f39190612727565b60006040518083038185875af1925050503d8060008114611530576040519150601f19603f3d011682016040523d82523d6000602084013e611535565b606091505b50915091508161098d57805160208201fd5b6000610e3c8133610b2f565b7fa7d40346e44ca145e94a946aa34a7d4a67245577dc18699a626fe0ffc6ce32818054600090829061158490612677565b80601f01602080910402602001604051908101604052809291908181526020018280546115b090612677565b80156115fd5780601f106115d2576101008083540402835291602001916115fd565b820191906000526020600020905b8154815290600101906020018083116115e057829003601f168201915b50508651939450611618938693506020880192509050611e0b565b507fc9c7c3fe08b88b4df9d4d47ef47d2c43d55c025a0ba88ca442580ed9e7348a16818460405161164a929190612743565b60405180910390a1505050565b606061079383836040518060600160405280602781526020016127de602791396119a4565b6060600061168b836002612771565b611696906002612646565b67ffffffffffffffff8111156116ae576116ae611ee3565b6040519080825280601f01601f1916602001820160405280156116d8576020820181803683370190505b509050600360fc1b816000815181106116f3576116f36125ff565b60200101906001600160f81b031916908160001a905350600f60fb1b81600181518110611722576117226125ff565b60200101906001600160f81b031916908160001a9053506000611746846002612771565b611751906001612646565b90505b60018111156117c9576f181899199a1a9b1b9c1cb0b131b232b360811b85600f1660108110611785576117856125ff565b1a60f81b82828151811061179b5761179b6125ff565b60200101906001600160f81b031916908160001a90535060049490941c936117c281612790565b9050611754565b5083156107935760405162461bcd60e51b815260206004820181905260248201527f537472696e67733a20686578206c656e67746820696e73756666696369656e7460448201526064016106d8565b60008281526000805160206127be833981519152602081815260408084206001600160a01b0386168086529252808420805460ff19166001179055519192339286917f2f8788117e7eff1d82e926ec794901d17c78024a50270940304540a733656f0d91a4505050565b60008281527f0c4ba382c0009cf238e4c1ca1a52f51c61e6248a70bdfb34e5ed49d5578a5c0c60208190526040822080549192600191906118c38385612646565b909155505060009384526020918252604080852082865260018101845281862080546001600160a01b039096166001600160a01b0319909616861790559385526002909301909152912055565b6000805160206127be8339815191526119298383611194565b6000838152602082815260408083206001600160a01b0386168085529252808320805460ff1916905551339286917ff6391f5c32d9c69d2a47ea670b442974b53935d1edc7fd64eb21e047a839171b9190a4505050565b600080600061198f8585611a81565b9150915061199c81611af1565b509392505050565b60606001600160a01b0384163b611a0c5760405162461bcd60e51b815260206004820152602660248201527f416464726573733a2064656c65676174652063616c6c20746f206e6f6e2d636f6044820152651b9d1c9858dd60d21b60648201526084016106d8565b600080856001600160a01b031685604051611a279190612727565b600060405180830381855af49150503d8060008114611a62576040519150601f19603f3d011682016040523d82523d6000602084013e611a67565b606091505b5091509150611a77828286611cac565b9695505050505050565b600080825160411415611ab85760208301516040840151606085015160001a611aac87828585611ce5565b94509450505050611aea565b825160401415611ae25760208301516040840151611ad7868383611dd2565b935093505050611aea565b506000905060025b9250929050565b6000816004811115611b0557611b056127a7565b1415611b0e5750565b6001816004811115611b2257611b226127a7565b1415611b705760405162461bcd60e51b815260206004820152601860248201527f45434453413a20696e76616c6964207369676e6174757265000000000000000060448201526064016106d8565b6002816004811115611b8457611b846127a7565b1415611bd25760405162461bcd60e51b815260206004820152601f60248201527f45434453413a20696e76616c6964207369676e6174757265206c656e6774680060448201526064016106d8565b6003816004811115611be657611be66127a7565b1415611c3f5760405162461bcd60e51b815260206004820152602260248201527f45434453413a20696e76616c6964207369676e6174757265202773272076616c604482015261756560f01b60648201526084016106d8565b6004816004811115611c5357611c536127a7565b1415610bb55760405162461bcd60e51b815260206004820152602260248201527f45434453413a20696e76616c6964207369676e6174757265202776272076616c604482015261756560f01b60648201526084016106d8565b60608315611cbb575081610793565b825115611ccb5782518084602001fd5b8160405162461bcd60e51b81526004016106d891906124f9565b6000807f7fffffffffffffffffffffffffffffff5d576e7357a4501ddfe92f46681b20a0831115611d1c5750600090506003611dc9565b8460ff16601b14158015611d3457508460ff16601c14155b15611d455750600090506004611dc9565b6040805160008082526020820180845289905260ff881692820192909252606081018690526080810185905260019060a0016020604051602081039080840390855afa158015611d99573d6000803e3d6000fd5b5050604051601f1901519150506001600160a01b038116611dc257600060019250925050611dc9565b9150600090505b94509492505050565b6000806001600160ff1b03831681611def60ff86901c601b612646565b9050611dfd87828885611ce5565b935093505050935093915050565b828054611e1790612677565b90600052602060002090601f016020900481019282611e395760008555611e7f565b82601f10611e5257805160ff1916838001178555611e7f565b82800160010185558215611e7f579182015b82811115611e7f578251825591602001919060010190611e64565b50611e8b929150611e8f565b5090565b5b80821115611e8b5760008155600101611e90565b600060208284031215611eb657600080fd5b81356001600160e01b03198116811461079357600080fd5b6001600160a01b0381168114610bb557600080fd5b634e487b7160e01b600052604160045260246000fd5b604051601f8201601f1916810167ffffffffffffffff81118282101715611f2257611f22611ee3565b604052919050565b600067ffffffffffffffff831115611f4457611f44611ee3565b611f57601f8401601f1916602001611ef9565b9050828152838383011115611f6b57600080fd5b828260208301376000602084830101529392505050565b600082601f830112611f9357600080fd5b61079383833560208501611f2a565b60008060008060808587031215611fb857600080fd5b8435611fc381611ece565b93506020850135611fd381611ece565b925060408501359150606085013567ffffffffffffffff811115611ff657600080fd5b61200287828801611f82565b91505092959194509250565b60006020828403121561202057600080fd5b5035919050565b6000806040838503121561203a57600080fd5b82359150602083013561204c81611ece565b809150509250929050565b60008060006060848603121561206c57600080fd5b833567ffffffffffffffff81111561208357600080fd5b8401610160818703121561209657600080fd5b95602085013595506040909401359392505050565b60008083601f8401126120bd57600080fd5b50813567ffffffffffffffff8111156120d557600080fd5b6020830191508360208260051b8501011115611aea57600080fd5b6000806000806000806060878903121561210957600080fd5b863567ffffffffffffffff8082111561212157600080fd5b61212d8a838b016120ab565b9098509650602089013591508082111561214657600080fd5b6121528a838b016120ab565b9096509450604089013591508082111561216b57600080fd5b5061217889828a016120ab565b979a9699509497509295939492505050565b6000806040838503121561219d57600080fd5b82356121a881611ece565b946020939093013593505050565b600080604083850312156121c957600080fd5b50508035926020909101359150565b6000602082840312156121ea57600080fd5b813567ffffffffffffffff81111561220157600080fd5b8201601f8101841361221257600080fd5b61222184823560208401611f2a565b949350505050565b6000806020838503121561223c57600080fd5b823567ffffffffffffffff81111561225357600080fd5b61225f858286016120ab565b90969095509350505050565b60005b8381101561228657818101518382015260200161226e565b83811115610da95750506000910152565b600081518084526122af81602086016020860161226b565b601f01601f19169290920160200192915050565b6000602080830181845280855180835260408601915060408160051b870101925083870160005b8281101561231857603f19888603018452612306858351612297565b945092850192908501906001016122ea565b5092979650505050505050565b6000806000806060858703121561233b57600080fd5b843561234681611ece565b935060208501359250604085013567ffffffffffffffff8082111561236a57600080fd5b818701915087601f83011261237e57600080fd5b81358181111561238d57600080fd5b88602082850101111561239f57600080fd5b95989497505060200194505050565b600082601f8301126123bf57600080fd5b8135602067ffffffffffffffff8211156123db576123db611ee3565b8160051b6123ea828201611ef9565b928352848101820192828101908785111561240457600080fd5b83870192505b848310156124235782358252918301919083019061240a565b979650505050505050565b600080600080600060a0868803121561244657600080fd5b853561245181611ece565b9450602086013561246181611ece565b9350604086013567ffffffffffffffff8082111561247e57600080fd5b61248a89838a016123ae565b945060608801359150808211156124a057600080fd5b6124ac89838a016123ae565b935060808801359150808211156124c257600080fd5b506124cf88828901611f82565b9150509295509295909350565b6000602082840312156124ee57600080fd5b813561079381611ece565b6020815260006107936020830184612297565b600080600080600060a0868803121561252457600080fd5b853561252f81611ece565b9450602086013561253f81611ece565b93506040860135925060608601359150608086013567ffffffffffffffff81111561256957600080fd5b6124cf88828901611f82565b6000808335601e1984360301811261258c57600080fd5b83018035915067ffffffffffffffff8211156125a757600080fd5b602001915036819003821315611aea57600080fd5b60208082526023908201527f54574163636f756e743a206e6f742061646d696e206f7220456e747279506f69604082015262373a1760e91b606082015260800190565b634e487b7160e01b600052603260045260246000fd5b634e487b7160e01b600052601160045260246000fd5b600060001982141561263f5761263f612615565b5060010190565b6000821982111561265957612659612615565b500190565b60006020828403121561267057600080fd5b5051919050565b600181811c9082168061268b57607f821691505b602082108114156126ac57634e487b7160e01b600052602260045260246000fd5b50919050565b7f5065726d697373696f6e733a206163636f756e742000000000000000000000008152600083516126ea81601585016020880161226b565b7001034b99036b4b9b9b4b733903937b6329607d1b601591840191820152835161271b81602684016020880161226b565b01602601949350505050565b6000825161273981846020870161226b565b9190910192915050565b6040815260006127566040830185612297565b82810360208401526127688185612297565b95945050505050565b600081600019048311821515161561278b5761278b612615565b500290565b60008161279f5761279f612615565b506000190190565b634e487b7160e01b600052602160045260246000fdfed0ebebe8e6445c62babf8fef767eb39f1002bb957bb5b83258275a4e46428ed5416464726573733a206c6f772d6c6576656c2064656c65676174652063616c6c206661696c6564a26469706673582212206b0a95824a11bca05aba47b8c241387481d77c92d87cebcfdc403fa4a245912b64736f6c634300080c0033",
    "linkReferences": {}
  },
  "methodIdentifiers": {
    "DEFAULT_ADMIN_ROLE()": "a217fddf",
    "SIGNER_ROLE()": "a1ebf35d",
    "addDeposit()": "4a58db19",
    "contractURI()": "e8a3d485",
    "entryPoint()": "b0d691fe",
    "execute(address,uint256,bytes)": "b61d27f6",
    "executeBatch(address[],uint256[],bytes[])": "47e1da2a",
    "getDeposit()": "c399ec88",
    "getRoleAdmin(bytes32)": "248a9ca3",
    "getRoleMember(bytes32,uint256)": "9010d07c",
    "getRoleMemberCount(bytes32)": "ca15c873",
    "grantRole(bytes32,address)": "2f2ff15d",
    "hasRole(bytes32,address)": "91d14854",
    "hasRoleWithSwitch(bytes32,address)": "a32fa5b3",
    "initialize(address)": "c4d66de8",
    "isValidSigner(address)": "d5f50582",
    "multicall(bytes[])": "ac9650d8",
    "nonce()": "affed0e0",
    "onERC1155BatchReceived(address,address,uint256[],uint256[],bytes)": "bc197c81",
    "onERC1155Received(address,address,uint256,uint256,bytes)": "f23a6e61",
    "onERC721Received(address,address,uint256,bytes)": "150b7a02",
    "renounceRole(bytes32,address)": "36568abe",
    "revokeRole(bytes32,address)": "d547741f",
    "setContractURI(string)": "938e3d7b",
    "supportsInterface(bytes4)": "01ffc9a7",
    "validateUserOp((address,uint256,bytes,bytes,uint256,uint256,uint256,uint256,uint256,bytes,bytes),bytes32,uint256)": "3a871cdd",
    "withdrawDepositTo(address,uint256)": "4d44560d"
  },
  "id": 276
}