{
  "abi": [
    {
      "inputs": [
        {
          "internalType": "contract IEntryPoint",
          "name": "_entrypoint",
          "type": "address"
        }
      ],
      "stateMutability": "nonpayable",
      "type": "constructor"
    },
    {
      "anonymous": false,
      "inputs": [
        {
          "indexed": false,
          "internalType": "string",
          "name": "prevURI",
          "type": "string"
        },
        {
          "indexed": false,
          "internalType": "string",
          "name": "newURI",
          "type": "string"
        }
      ],
      "name": "ContractURIUpdated",
      "type": "event"
    },
    {
      "anonymous": false,
      "inputs": [
        {
          "indexed": true,
          "internalType": "address",
          "name": "extensionAddress",
          "type": "address"
        },
        {
          "indexed": true,
          "internalType": "bytes4",
          "name": "functionSelector",
          "type": "bytes4"
        },
        {
          "indexed": false,
          "internalType": "string",
          "name": "functionSignature",
          "type": "string"
        }
      ],
      "name": "ExtensionAdded",
      "type": "event"
    },
    {
      "anonymous": false,
      "inputs": [
        {
          "indexed": true,
          "internalType": "address",
          "name": "extensionAddress",
          "type": "address"
        },
        {
          "indexed": true,
          "internalType": "bytes4",
          "name": "functionSelector",
          "type": "bytes4"
        },
        {
          "indexed": false,
          "internalType": "string",
          "name": "functionSignature",
          "type": "string"
        }
      ],
      "name": "ExtensionRemoved",
      "type": "event"
    },
    {
      "anonymous": false,
      "inputs": [
        {
          "indexed": true,
          "internalType": "address",
          "name": "oldExtensionAddress",
          "type": "address"
        },
        {
          "indexed": true,
          "internalType": "address",
          "name": "newExtensionAddress",
          "type": "address"
        },
        {
          "indexed": true,
          "internalType": "bytes4",
          "name": "functionSelector",
          "type": "bytes4"
        },
        {
          "indexed": false,
          "internalType": "string",
          "name": "functionSignature",
          "type": "string"
        }
      ],
      "name": "ExtensionUpdated",
      "type": "event"
    },
    {
      "anonymous": false,
      "inputs": [
        {
          "indexed": false,
          "internalType": "uint8",
          "name": "version",
          "type": "uint8"
        }
      ],
      "name": "Initialized",
      "type": "event"
    },
    {
      "anonymous": false,
      "inputs": [
        {
          "indexed": true,
          "internalType": "bytes32",
          "name": "role",
          "type": "bytes32"
        },
        {
          "indexed": true,
          "internalType": "bytes32",
          "name": "previousAdminRole",
          "type": "bytes32"
        },
        {
          "indexed": true,
          "internalType": "bytes32",
          "name": "newAdminRole",
          "type": "bytes32"
        }
      ],
      "name": "RoleAdminChanged",
      "type": "event"
    },
    {
      "anonymous": false,
      "inputs": [
        {
          "indexed": true,
          "internalType": "bytes32",
          "name": "role",
          "type": "bytes32"
        },
        {
          "indexed": true,
          "internalType": "address",
          "name": "account",
          "type": "address"
        },
        {
          "indexed": true,
          "internalType": "address",
          "name": "sender",
          "type": "address"
        }
      ],
      "name": "RoleGranted",
      "type": "event"
    },
    {
      "anonymous": false,
      "inputs": [
        {
          "indexed": true,
          "internalType": "bytes32",
          "name": "role",
          "type": "bytes32"
        },
        {
          "indexed": true,
          "internalType": "address",
          "name": "account",
          "type": "address"
        },
        {
          "indexed": true,
          "internalType": "address",
          "name": "sender",
          "type": "address"
        }
      ],
      "name": "RoleRevoked",
      "type": "event"
    },
    {
      "stateMutability": "payable",
      "type": "fallback"
    },
    {
      "inputs": [],
      "name": "DEFAULT_ADMIN_ROLE",
      "outputs": [
        {
          "internalType": "bytes32",
          "name": "",
          "type": "bytes32"
        }
      ],
      "stateMutability": "view",
      "type": "function"
    },
    {
      "inputs": [],
      "name": "EXTENSION_ADMIN_ROLE",
      "outputs": [
        {
          "internalType": "bytes32",
          "name": "",
          "type": "bytes32"
        }
      ],
      "stateMutability": "view",
      "type": "function"
    },
    {
      "inputs": [],
      "name": "SIGNER_ROLE",
      "outputs": [
        {
          "internalType": "bytes32",
          "name": "",
          "type": "bytes32"
        }
      ],
      "stateMutability": "view",
      "type": "function"
    },
    {
      "inputs": [],
      "name": "addDeposit",
      "outputs": [],
      "stateMutability": "payable",
      "type": "function"
    },
    {
      "inputs": [
        {
          "components": [
            {
              "components": [
                {
                  "internalType": "string",
                  "name": "name",
                  "type": "string"
                },
                {
                  "internalType": "string",
                  "name": "metadataURI",
                  "type": "string"
                },
                {
                  "internalType": "address",
                  "name": "implementation",
                  "type": "address"
                }
              ],
              "internalType": "struct IExtension.ExtensionMetadata",
              "name": "metadata",
              "type": "tuple"
            },
            {
              "components": [
                {
                  "internalType": "bytes4",
                  "name": "functionSelector",
                  "type": "bytes4"
                },
                {
                  "internalType": "string",
                  "name": "functionSignature",
                  "type": "string"
                }
              ],
              "internalType": "struct IExtension.ExtensionFunction[]",
              "name": "functions",
              "type": "tuple[]"
            }
          ],
          "internalType": "struct IExtension.Extension",
          "name": "_extension",
          "type": "tuple"
        }
      ],
      "name": "addExtension",
      "outputs": [],
      "stateMutability": "nonpayable",
      "type": "function"
    },
    {
      "inputs": [],
      "name": "contractURI",
      "outputs": [
        {
          "internalType": "string",
          "name": "",
          "type": "string"
        }
      ],
      "stateMutability": "view",
      "type": "function"
    },
    {
      "inputs": [],
      "name": "entryPoint",
      "outputs": [
        {
          "internalType": "contract IEntryPoint",
          "name": "",
          "type": "address"
        }
      ],
      "stateMutability": "view",
      "type": "function"
    },
    {
      "inputs": [
        {
          "internalType": "address",
          "name": "_target",
          "type": "address"
        },
        {
          "internalType": "uint256",
          "name": "_value",
          "type": "uint256"
        },
        {
          "internalType": "bytes",
          "name": "_calldata",
          "type": "bytes"
        }
      ],
      "name": "execute",
      "outputs": [],
      "stateMutability": "nonpayable",
      "type": "function"
    },
    {
      "inputs": [
        {
          "internalType": "address[]",
          "name": "_target",
          "type": "address[]"
        },
        {
          "internalType": "uint256[]",
          "name": "_value",
          "type": "uint256[]"
        },
        {
          "internalType": "bytes[]",
          "name": "_calldata",
          "type": "bytes[]"
        }
      ],
      "name": "executeBatch",
      "outputs": [],
      "stateMutability": "nonpayable",
      "type": "function"
    },
    {
      "inputs": [],
      "name": "getAllExtensions",
      "outputs": [
        {
          "components": [
            {
              "components": [
                {
                  "internalType": "string",
                  "name": "name",
                  "type": "string"
                },
                {
                  "internalType": "string",
                  "name": "metadataURI",
                  "type": "string"
                },
                {
                  "internalType": "address",
                  "name": "implementation",
                  "type": "address"
                }
              ],
              "internalType": "struct IExtension.ExtensionMetadata",
              "name": "metadata",
              "type": "tuple"
            },
            {
              "components": [
                {
                  "internalType": "bytes4",
                  "name": "functionSelector",
                  "type": "bytes4"
                },
                {
                  "internalType": "string",
                  "name": "functionSignature",
                  "type": "string"
                }
              ],
              "internalType": "struct IExtension.ExtensionFunction[]",
              "name": "functions",
              "type": "tuple[]"
            }
          ],
          "internalType": "struct IExtension.Extension[]",
          "name": "allExtensions",
          "type": "tuple[]"
        }
      ],
      "stateMutability": "view",
      "type": "function"
    },
    {
      "inputs": [
        {
          "internalType": "string",
          "name": "_extensionName",
          "type": "string"
        }
      ],
      "name": "getAllFunctionsOfExtension",
      "outputs": [
        {
          "components": [
            {
              "internalType": "bytes4",
              "name": "functionSelector",
              "type": "bytes4"
            },
            {
              "internalType": "string",
              "name": "functionSignature",
              "type": "string"
            }
          ],
          "internalType": "struct IExtension.ExtensionFunction[]",
          "name": "",
          "type": "tuple[]"
        }
      ],
      "stateMutability": "view",
      "type": "function"
    },
    {
      "inputs": [],
      "name": "getDeposit",
      "outputs": [
        {
          "internalType": "uint256",
          "name": "",
          "type": "uint256"
        }
      ],
      "stateMutability": "view",
      "type": "function"
    },
    {
      "inputs": [
        {
          "internalType": "string",
          "name": "_extensionName",
          "type": "string"
        }
      ],
      "name": "getExtension",
      "outputs": [
        {
          "components": [
            {
              "components": [
                {
                  "internalType": "string",
                  "name": "name",
                  "type": "string"
                },
                {
                  "internalType": "string",
                  "name": "metadataURI",
                  "type": "string"
                },
                {
                  "internalType": "address",
                  "name": "implementation",
                  "type": "address"
                }
              ],
              "internalType": "struct IExtension.ExtensionMetadata",
              "name": "metadata",
              "type": "tuple"
            },
            {
              "components": [
                {
                  "internalType": "bytes4",
                  "name": "functionSelector",
                  "type": "bytes4"
                },
                {
                  "internalType": "string",
                  "name": "functionSignature",
                  "type": "string"
                }
              ],
              "internalType": "struct IExtension.ExtensionFunction[]",
              "name": "functions",
              "type": "tuple[]"
            }
          ],
          "internalType": "struct IExtension.Extension",
          "name": "",
          "type": "tuple"
        }
      ],
      "stateMutability": "view",
      "type": "function"
    },
    {
      "inputs": [
        {
          "internalType": "bytes4",
          "name": "_functionSelector",
          "type": "bytes4"
        }
      ],
      "name": "getExtensionForFunction",
      "outputs": [
        {
          "components": [
            {
              "internalType": "string",
              "name": "name",
              "type": "string"
            },
            {
              "internalType": "string",
              "name": "metadataURI",
              "type": "string"
            },
            {
              "internalType": "address",
              "name": "implementation",
              "type": "address"
            }
          ],
          "internalType": "struct IExtension.ExtensionMetadata",
          "name": "",
          "type": "tuple"
        }
      ],
      "stateMutability": "view",
      "type": "function"
    },
    {
      "inputs": [
        {
          "internalType": "string",
          "name": "_extensionName",
          "type": "string"
        }
      ],
      "name": "getExtensionImplementation",
      "outputs": [
        {
          "internalType": "address",
          "name": "",
          "type": "address"
        }
      ],
      "stateMutability": "view",
      "type": "function"
    },
    {
      "inputs": [
        {
          "internalType": "bytes4",
          "name": "_functionSelector",
          "type": "bytes4"
        }
      ],
      "name": "getImplementationForFunction",
      "outputs": [
        {
          "internalType": "address",
          "name": "extensionAddress",
          "type": "address"
        }
      ],
      "stateMutability": "view",
      "type": "function"
    },
    {
      "inputs": [
        {
          "internalType": "bytes32",
          "name": "role",
          "type": "bytes32"
        }
      ],
      "name": "getRoleAdmin",
      "outputs": [
        {
          "internalType": "bytes32",
          "name": "",
          "type": "bytes32"
        }
      ],
      "stateMutability": "view",
      "type": "function"
    },
    {
      "inputs": [
        {
          "internalType": "bytes32",
          "name": "role",
          "type": "bytes32"
        },
        {
          "internalType": "uint256",
          "name": "index",
          "type": "uint256"
        }
      ],
      "name": "getRoleMember",
      "outputs": [
        {
          "internalType": "address",
          "name": "member",
          "type": "address"
        }
      ],
      "stateMutability": "view",
      "type": "function"
    },
    {
      "inputs": [
        {
          "internalType": "bytes32",
          "name": "role",
          "type": "bytes32"
        }
      ],
      "name": "getRoleMemberCount",
      "outputs": [
        {
          "internalType": "uint256",
          "name": "count",
          "type": "uint256"
        }
      ],
      "stateMutability": "view",
      "type": "function"
    },
    {
      "inputs": [
        {
          "internalType": "bytes32",
          "name": "role",
          "type": "bytes32"
        },
        {
          "internalType": "address",
          "name": "account",
          "type": "address"
        }
      ],
      "name": "grantRole",
      "outputs": [],
      "stateMutability": "nonpayable",
      "type": "function"
    },
    {
      "inputs": [
        {
          "internalType": "bytes32",
          "name": "role",
          "type": "bytes32"
        },
        {
          "internalType": "address",
          "name": "account",
          "type": "address"
        }
      ],
      "name": "hasRole",
      "outputs": [
        {
          "internalType": "bool",
          "name": "",
          "type": "bool"
        }
      ],
      "stateMutability": "view",
      "type": "function"
    },
    {
      "inputs": [
        {
          "internalType": "bytes32",
          "name": "role",
          "type": "bytes32"
        },
        {
          "internalType": "address",
          "name": "account",
          "type": "address"
        }
      ],
      "name": "hasRoleWithSwitch",
      "outputs": [
        {
          "internalType": "bool",
          "name": "",
          "type": "bool"
        }
      ],
      "stateMutability": "view",
      "type": "function"
    },
    {
      "inputs": [
        {
          "internalType": "address",
          "name": "_defaultAdmin",
          "type": "address"
        },
        {
          "internalType": "string",
          "name": "_contractURI",
          "type": "string"
        }
      ],
      "name": "initialize",
      "outputs": [],
      "stateMutability": "nonpayable",
      "type": "function"
    },
    {
      "inputs": [
        {
          "internalType": "address",
          "name": "_signer",
          "type": "address"
        }
      ],
      "name": "isValidSigner",
      "outputs": [
        {
          "internalType": "bool",
          "name": "",
          "type": "bool"
        }
      ],
      "stateMutability": "view",
      "type": "function"
    },
    {
      "inputs": [
        {
          "internalType": "bytes[]",
          "name": "data",
          "type": "bytes[]"
        }
      ],
      "name": "multicall",
      "outputs": [
        {
          "internalType": "bytes[]",
          "name": "results",
          "type": "bytes[]"
        }
      ],
      "stateMutability": "nonpayable",
      "type": "function"
    },
    {
      "inputs": [],
      "name": "nonce",
      "outputs": [
        {
          "internalType": "uint256",
          "name": "",
          "type": "uint256"
        }
      ],
      "stateMutability": "view",
      "type": "function"
    },
    {
      "inputs": [
        {
          "internalType": "address",
          "name": "",
          "type": "address"
        },
        {
          "internalType": "address",
          "name": "",
          "type": "address"
        },
        {
          "internalType": "uint256[]",
          "name": "",
          "type": "uint256[]"
        },
        {
          "internalType": "uint256[]",
          "name": "",
          "type": "uint256[]"
        },
        {
          "internalType": "bytes",
          "name": "",
          "type": "bytes"
        }
      ],
      "name": "onERC1155BatchReceived",
      "outputs": [
        {
          "internalType": "bytes4",
          "name": "",
          "type": "bytes4"
        }
      ],
      "stateMutability": "nonpayable",
      "type": "function"
    },
    {
      "inputs": [
        {
          "internalType": "address",
          "name": "",
          "type": "address"
        },
        {
          "internalType": "address",
          "name": "",
          "type": "address"
        },
        {
          "internalType": "uint256",
          "name": "",
          "type": "uint256"
        },
        {
          "internalType": "uint256",
          "name": "",
          "type": "uint256"
        },
        {
          "internalType": "bytes",
          "name": "",
          "type": "bytes"
        }
      ],
      "name": "onERC1155Received",
      "outputs": [
        {
          "internalType": "bytes4",
          "name": "",
          "type": "bytes4"
        }
      ],
      "stateMutability": "nonpayable",
      "type": "function"
    },
    {
      "inputs": [
        {
          "internalType": "address",
          "name": "",
          "type": "address"
        },
        {
          "internalType": "address",
          "name": "",
          "type": "address"
        },
        {
          "internalType": "uint256",
          "name": "",
          "type": "uint256"
        },
        {
          "internalType": "bytes",
          "name": "",
          "type": "bytes"
        }
      ],
      "name": "onERC721Received",
      "outputs": [
        {
          "internalType": "bytes4",
          "name": "",
          "type": "bytes4"
        }
      ],
      "stateMutability": "nonpayable",
      "type": "function"
    },
    {
      "inputs": [
        {
          "internalType": "string",
          "name": "_extensionName",
          "type": "string"
        }
      ],
      "name": "removeExtension",
      "outputs": [],
      "stateMutability": "nonpayable",
      "type": "function"
    },
    {
      "inputs": [
        {
          "internalType": "bytes32",
          "name": "role",
          "type": "bytes32"
        },
        {
          "internalType": "address",
          "name": "account",
          "type": "address"
        }
      ],
      "name": "renounceRole",
      "outputs": [],
      "stateMutability": "nonpayable",
      "type": "function"
    },
    {
      "inputs": [
        {
          "internalType": "bytes32",
          "name": "role",
          "type": "bytes32"
        },
        {
          "internalType": "address",
          "name": "account",
          "type": "address"
        }
      ],
      "name": "revokeRole",
      "outputs": [],
      "stateMutability": "nonpayable",
      "type": "function"
    },
    {
      "inputs": [
        {
          "internalType": "string",
          "name": "_uri",
          "type": "string"
        }
      ],
      "name": "setContractURI",
      "outputs": [],
      "stateMutability": "nonpayable",
      "type": "function"
    },
    {
      "inputs": [
        {
          "internalType": "bytes4",
          "name": "interfaceId",
          "type": "bytes4"
        }
      ],
      "name": "supportsInterface",
      "outputs": [
        {
          "internalType": "bool",
          "name": "",
          "type": "bool"
        }
      ],
      "stateMutability": "view",
      "type": "function"
    },
    {
      "inputs": [
        {
          "components": [
            {
              "components": [
                {
                  "internalType": "string",
                  "name": "name",
                  "type": "string"
                },
                {
                  "internalType": "string",
                  "name": "metadataURI",
                  "type": "string"
                },
                {
                  "internalType": "address",
                  "name": "implementation",
                  "type": "address"
                }
              ],
              "internalType": "struct IExtension.ExtensionMetadata",
              "name": "metadata",
              "type": "tuple"
            },
            {
              "components": [
                {
                  "internalType": "bytes4",
                  "name": "functionSelector",
                  "type": "bytes4"
                },
                {
                  "internalType": "string",
                  "name": "functionSignature",
                  "type": "string"
                }
              ],
              "internalType": "struct IExtension.ExtensionFunction[]",
              "name": "functions",
              "type": "tuple[]"
            }
          ],
          "internalType": "struct IExtension.Extension",
          "name": "_extension",
          "type": "tuple"
        }
      ],
      "name": "updateExtension",
      "outputs": [],
      "stateMutability": "nonpayable",
      "type": "function"
    },
    {
      "inputs": [
        {
          "components": [
            {
              "internalType": "address",
              "name": "sender",
              "type": "address"
            },
            {
              "internalType": "uint256",
              "name": "nonce",
              "type": "uint256"
            },
            {
              "internalType": "bytes",
              "name": "initCode",
              "type": "bytes"
            },
            {
              "internalType": "bytes",
              "name": "callData",
              "type": "bytes"
            },
            {
              "internalType": "uint256",
              "name": "callGasLimit",
              "type": "uint256"
            },
            {
              "internalType": "uint256",
              "name": "verificationGasLimit",
              "type": "uint256"
            },
            {
              "internalType": "uint256",
              "name": "preVerificationGas",
              "type": "uint256"
            },
            {
              "internalType": "uint256",
              "name": "maxFeePerGas",
              "type": "uint256"
            },
            {
              "internalType": "uint256",
              "name": "maxPriorityFeePerGas",
              "type": "uint256"
            },
            {
              "internalType": "bytes",
              "name": "paymasterAndData",
              "type": "bytes"
            },
            {
              "internalType": "bytes",
              "name": "signature",
              "type": "bytes"
            }
          ],
          "internalType": "struct UserOperation",
          "name": "userOp",
          "type": "tuple"
        },
        {
          "internalType": "bytes32",
          "name": "userOpHash",
          "type": "bytes32"
        },
        {
          "internalType": "uint256",
          "name": "missingAccountFunds",
          "type": "uint256"
        }
      ],
      "name": "validateUserOp",
      "outputs": [
        {
          "internalType": "uint256",
          "name": "validationData",
          "type": "uint256"
        }
      ],
      "stateMutability": "nonpayable",
      "type": "function"
    },
    {
      "inputs": [
        {
          "internalType": "address payable",
          "name": "withdrawAddress",
          "type": "address"
        },
        {
          "internalType": "uint256",
          "name": "amount",
          "type": "uint256"
        }
      ],
      "name": "withdrawDepositTo",
      "outputs": [],
      "stateMutability": "nonpayable",
      "type": "function"
    },
    {
      "stateMutability": "payable",
      "type": "receive"
    }
  ],
  "bytecode": {
    "object": "0x60a06040523480156200001157600080fd5b5060405162004b2b38038062004b2b833981016040819052620000349162000046565b6001600160a01b031660805262000078565b6000602082840312156200005957600080fd5b81516001600160a01b03811681146200007157600080fd5b9392505050565b608051614a6d620000be600039600081816105b801528181610be3015281816110b801528181611144015281816114d1015281816118380152611df80152614a6d6000f3fe60806040526004361061021e5760003560e01c8063a32fa5b311610123578063ca15c873116100ab578063e157be9f1161006f578063e157be9f1461072a578063e8a3d4851461075e578063ee7d2adf14610780578063f23a6e61146107a0578063f399e22e146107cc57610225565b8063ca15c8731461068a578063ce0b6013146106aa578063d547741f146106ca578063d5f50582146106ea578063e05688fe1461070a57610225565b8063b61d27f6116100f2578063b61d27f6146105dc578063bc197c81146105fc578063c22707ee14610628578063c399ec8814610655578063c54c07e11461066a57610225565b8063a32fa5b314610528578063ac9650d814610548578063affed0e014610575578063b0d691fe146105a957610225565b80634a00cc48116101a65780639010d07c116101755780639010d07c1461047f57806391d148541461049f578063938e3d7b146104bf578063a1ebf35d146104df578063a217fddf1461051357610225565b80634a00cc48146103fd5780634a58db191461041f5780634d44560d146104275780637c3b11371461044757610225565b8063248a9ca3116101ed578063248a9ca3146103215780632f2ff15d1461037b57806336568abe1461039d5780633a871cdd146103bd57806347e1da2a146103dd57610225565b8063012b87291461024a57806301ffc9a714610280578063150b7a02146102b0578063212f6912146102f457610225565b3661022557005b600061023c6000356001600160e01b0319166107ec565b905061024781610801565b50005b34801561025657600080fd5b5061026a610265366004613c82565b61082a565b6040516102779190613d16565b60405180910390f35b34801561028c57600080fd5b506102a061029b366004613db1565b61083f565b6040519015158152602001610277565b3480156102bc57600080fd5b506102db6102cb366004613de1565b630a85bd0160e11b949350505050565b6040516001600160e01b03199091168152602001610277565b34801561030057600080fd5b5061031461030f366004613db1565b6108bb565b6040516102779190613e9a565b34801561032d57600080fd5b5061036d61033c366004613ead565b60009081527fd0ebebe8e6445c62babf8fef767eb39f1002bb957bb5b83258275a4e46428ed6602052604090205490565b604051908152602001610277565b34801561038757600080fd5b5061039b610396366004613ec6565b610a66565b005b3480156103a957600080fd5b5061039b6103b8366004613ec6565b610b2e565b3480156103c957600080fd5b5061036d6103d8366004613ef6565b610b94565b3480156103e957600080fd5b5061039b6103f8366004613f8d565b610bd8565b34801561040957600080fd5b50610412610d52565b60405161027791906140bc565b61039b6110b6565b34801561043357600080fd5b5061039b61044236600461411e565b611136565b34801561045357600080fd5b50610467610462366004613c82565b6111c3565b6040516001600160a01b039091168152602001610277565b34801561048b57600080fd5b5061046761049a36600461414a565b6111d9565b3480156104ab57600080fd5b506102a06104ba366004613ec6565b6112e7565b3480156104cb57600080fd5b5061039b6104da366004613c82565b61131f565b3480156104eb57600080fd5b5061036d7fe2f4eaae4a9751e85a3e4a7b9587827a877f29914755229b07a7b2da98285f7081565b34801561051f57600080fd5b5061036d600081565b34801561053457600080fd5b506102a0610543366004613ec6565b611370565b34801561055457600080fd5b5061056861056336600461416c565b6113d2565b60405161027791906141ad565b34801561058157600080fd5b507f6f265e404054a781955e6f16f70e749f59f16f06413e507cab627ce5381a9e335461036d565b3480156105b557600080fd5b507f0000000000000000000000000000000000000000000000000000000000000000610467565b3480156105e857600080fd5b5061039b6105f7366004614202565b6114c6565b34801561060857600080fd5b506102db610617366004614318565b63bc197c8160e01b95945050505050565b34801561063457600080fd5b50610648610643366004613c82565b611566565b60405161027791906143c5565b34801561066157600080fd5b5061036d611834565b34801561067657600080fd5b5061039b6106853660046144a0565b6118c6565b34801561069657600080fd5b5061036d6106a5366004613ead565b6118f3565b3480156106b657600080fd5b506104676106c5366004613db1565b6107ec565b3480156106d657600080fd5b5061039b6106e5366004613ec6565b61199c565b3480156106f657600080fd5b506102a0610705366004614597565b6119ee565b34801561071657600080fd5b5061039b6107253660046144a0565b611a2b565b34801561073657600080fd5b5061036d7ff241310a63b2e1a495f33bb9814fb4b4aed6e04a10982f7afecd61fc37756b0d81565b34801561076a57600080fd5b50610773611a58565b60405161027791906145b4565b34801561078c57600080fd5b5061039b61079b366004613c82565b611b0e565b3480156107ac57600080fd5b506102db6107bb3660046145c7565b63f23a6e6160e01b95945050505050565b3480156107d857600080fd5b5061039b6107e736600461462f565b611b3b565b60006107f7826108bb565b6040015192915050565b3660008037600080366000845af43d6000803e808015610820573d6000f35b3d6000fd5b505050565b606061083582611566565b6020015192915050565b60006001600160e01b0319821663032d9e9760e61b148061087057506001600160e01b0319821663ce0b601360e01b145b8061088b57506001600160e01b03198216630271189760e51b145b806108a657506001600160e01b03198216630a85bd0160e11b145b806108b557506108b582611ca0565b92915050565b6040805160608082018352808252602080830182905260008385018190526001600160e01b0319861681527f1a039940024227c284ceea7ab90e5603ce17de27c93816eef22d65b14ee008769091528390208351918201909352825491926000805160206149d183398151915292829082906109369061467e565b80601f01602080910402602001604051908101604052809291908181526020018280546109629061467e565b80156109af5780601f10610984576101008083540402835291602001916109af565b820191906000526020600020905b81548152906001019060200180831161099257829003601f168201915b505050505081526020016001820180546109c89061467e565b80601f01602080910402602001604051908101604052809291908181526020018280546109f49061467e565b8015610a415780601f10610a1657610100808354040283529160200191610a41565b820191906000526020600020905b815481529060010190602001808311610a2457829003601f168201915b5050509183525050600291909101546001600160a01b03166020909101529392505050565b60008281527fd0ebebe8e6445c62babf8fef767eb39f1002bb957bb5b83258275a4e46428ed660205260409020546000805160206149f183398151915290610aae9033611cd5565b6000838152602082815260408083206001600160a01b038616845290915290205460ff1615610b245760405162461bcd60e51b815260206004820152601d60248201527f43616e206f6e6c79206772616e7420746f206e6f6e20686f6c6465727300000060448201526064015b60405180910390fd5b6108258383611d63565b336001600160a01b03821614610b865760405162461bcd60e51b815260206004820152601a60248201527f43616e206f6e6c792072656e6f756e636520666f722073656c660000000000006044820152606401610b1b565b610b908282611d77565b5050565b6000610b9e611ded565b610ba88484611e67565b9050610bb760408501856146b9565b15159050610bc857610bc884611f38565b610bd182611fcb565b9392505050565b336001600160a01b037f0000000000000000000000000000000000000000000000000000000000000000161480610c155750610c156000336112e7565b610c315760405162461bcd60e51b8152600401610b1b906146ff565b8481148015610c3f57508483145b610c8b5760405162461bcd60e51b815260206004820152601f60248201527f54574163636f756e743a2077726f6e67206172726179206c656e677468732e006044820152606401610b1b565b60005b85811015610d4957610d37878783818110610cab57610cab614742565b9050602002016020810190610cc09190614597565b868684818110610cd257610cd2614742565b90506020020135858585818110610ceb57610ceb614742565b9050602002810190610cfd91906146b9565b8080601f01602080910402602001604051908101604052809392919081815260200183838082843760009201919091525061201892505050565b80610d418161476e565b915050610c8e565b50505050505050565b60606000805160206149d18339815191526000610d6e82612088565b8051909150806001600160401b03811115610d8b57610d8b613b83565b604051908082528060200260200182016040528015610de557816020015b6040805160a08101825260609181018281528282018390526000608083015281526020810191909152815260200190600190039081610da95790505b50935060005b818110156110af5783600201838281518110610e0957610e09614742565b6020026020010151604051610e1e9190614789565b9081526040805191829003602001822060a08301825280549091839190820190839082908290610e4d9061467e565b80601f0160208091040260200160405190810160405280929190818152602001828054610e799061467e565b8015610ec65780601f10610e9b57610100808354040283529160200191610ec6565b820191906000526020600020905b815481529060010190602001808311610ea957829003601f168201915b50505050508152602001600182018054610edf9061467e565b80601f0160208091040260200160405190810160405280929190818152602001828054610f0b9061467e565b8015610f585780601f10610f2d57610100808354040283529160200191610f58565b820191906000526020600020905b815481529060010190602001808311610f3b57829003601f168201915b5050509183525050600291909101546001600160a01b03166020918201529082526003830180546040805182850281018501909152818152938301939260009084015b828210156110785760008481526020908190206040805180820190915260028502909101805460e01b6001600160e01b03191682526001810180549293919291840191610fe79061467e565b80601f01602080910402602001604051908101604052809291908181526020018280546110139061467e565b80156110605780601f1061103557610100808354040283529160200191611060565b820191906000526020600020905b81548152906001019060200180831161104357829003601f168201915b50505050508152505081526020019060010190610f9b565b505050508152505085828151811061109257611092614742565b60209081029190910101526110a86001826147a5565b9050610deb565b5050505090565b7f000000000000000000000000000000000000000000000000000000000000000060405163b760faf960e01b81523060048201526001600160a01b03919091169063b760faf99034906024016000604051808303818588803b15801561111b57600080fd5b505af115801561112f573d6000803e3d6000fd5b5050505050565b60006111428133611cd5565b7f000000000000000000000000000000000000000000000000000000000000000060405163040b850f60e31b81526001600160a01b03858116600483015260248201859052919091169063205c287890604401600060405180830381600087803b1580156111af57600080fd5b505af1158015610d49573d6000803e3d6000fd5b60006111ce82611566565b516040015192915050565b60008281527f0c4ba382c0009cf238e4c1ca1a52f51c61e6248a70bdfb34e5ed49d5578a5c0c6020819052604082205482805b828110156112dd576000878152602085815260408083208484526001019091529020546001600160a01b0316156112885785821415611276576000878152602094855260408082209282526001909201909452909220546001600160a01b031692506108b5915050565b6112816001836147a5565b91506112cb565b6112938760006112e7565b80156112b8575060008781526020858152604080832083805260020190915290205481145b156112cb576112c86001836147a5565b91505b6112d66001826147a5565b905061120c565b5050505092915050565b60009182526000805160206149f1833981519152602090815260408084206001600160a01b0393909316845291905290205460ff1690565b611327612093565b6113645760405162461bcd60e51b815260206004820152600e60248201526d139bdd08185d5d1a1bdc9a5e995960921b6044820152606401610b1b565b61136d8161209f565b50565b60008281526000805160206149f18339815191526020818152604080842084805290915282205460ff166113c8576000848152602091825260408082206001600160a01b0386168352909252205460ff1690506108b5565b5060019392505050565b6060816001600160401b038111156113ec576113ec613b83565b60405190808252806020026020018201604052801561141f57816020015b606081526020019060019003908161140a5790505b50905060005b828110156114bf5761148f3085858481811061144357611443614742565b905060200281019061145591906146b9565b8080601f0160208091040260200160405190810160405280939291908181526020018383808284376000920191909152506121a392505050565b8282815181106114a1576114a1614742565b602002602001018190525080806114b79061476e565b915050611425565b5092915050565b336001600160a01b037f000000000000000000000000000000000000000000000000000000000000000016148061150357506115036000336112e7565b61151f5760405162461bcd60e51b8152600401610b1b906146ff565b611560848484848080601f01602080910402602001604051908101604052809392919081815260200183838082843760009201919091525061201892505050565b50505050565b6040805160a0810182526060818301818152818301829052600060808401528252602082015290516000805160206149d1833981519152907f1a039940024227c284ceea7ab90e5603ce17de27c93816eef22d65b14ee00875906115cb908590614789565b9081526040805191829003602001822060a083018252805490918391908201908390829082906115fa9061467e565b80601f01602080910402602001604051908101604052809291908181526020018280546116269061467e565b80156116735780601f1061164857610100808354040283529160200191611673565b820191906000526020600020905b81548152906001019060200180831161165657829003601f168201915b5050505050815260200160018201805461168c9061467e565b80601f01602080910402602001604051908101604052809291908181526020018280546116b89061467e565b80156117055780601f106116da57610100808354040283529160200191611705565b820191906000526020600020905b8154815290600101906020018083116116e857829003601f168201915b5050509183525050600291909101546001600160a01b03166020918201529082526003830180546040805182850281018501909152818152938301939260009084015b828210156118255760008481526020908190206040805180820190915260028502909101805460e01b6001600160e01b031916825260018101805492939192918401916117949061467e565b80601f01602080910402602001604051908101604052809291908181526020018280546117c09061467e565b801561180d5780601f106117e25761010080835404028352916020019161180d565b820191906000526020600020905b8154815290600101906020018083116117f057829003601f168201915b50505050508152505081526020019060010190611748565b50505091525090949350505050565b60007f00000000000000000000000000000000000000000000000000000000000000006040516370a0823160e01b81523060048201526001600160a01b0391909116906370a0823190602401602060405180830381865afa15801561189d573d6000803e3d6000fd5b505050506040513d601f19601f820116820180604052508101906118c191906147bd565b905090565b6118ce6121c8565b6118ea5760405162461bcd60e51b8152600401610b1b906147d6565b61136d816121f4565b60008181527f0c4ba382c0009cf238e4c1ca1a52f51c61e6248a70bdfb34e5ed49d5578a5c0c60208190526040822054825b81811015611976576000858152602084815260408083208484526001019091529020546001600160a01b031615611964576119616001856147a5565b93505b61196f6001826147a5565b9050611925565b506119828460006112e7565b15611995576119926001846147a5565b92505b5050919050565b60008281527fd0ebebe8e6445c62babf8fef767eb39f1002bb957bb5b83258275a4e46428ed660205260409020546000805160206149f1833981519152906119e49033611cd5565b6108258383611d77565b6000611a1a7fe2f4eaae4a9751e85a3e4a7b9587827a877f29914755229b07a7b2da98285f70836112e7565b806108b557506108b56000836112e7565b611a336121c8565b611a4f5760405162461bcd60e51b8152600401610b1b906147d6565b61136d816127c1565b7fa7d40346e44ca145e94a946aa34a7d4a67245577dc18699a626fe0ffc6ce32818054606091908190611a8a9061467e565b80601f0160208091040260200160405190810160405280929190818152602001828054611ab69061467e565b8015611b035780601f10611ad857610100808354040283529160200191611b03565b820191906000526020600020905b815481529060010190602001808311611ae657829003601f168201915b505050505091505090565b611b166121c8565b611b325760405162461bcd60e51b8152600401610b1b906147d6565b61136d81612c7d565b7f627d6cbb4eb558f37de3c2ec08b04710e54e06be936a302f087f7bfb80f39ae0805460ff808216916101009004168015808015611b7c575060018360ff16105b80611b945750303b158015611b9457508260ff166001145b611bf75760405162461bcd60e51b815260206004820152602e60248201527f496e697469616c697a61626c653a20636f6e747261637420697320616c72656160448201526d191e481a5b9a5d1a585b1a5e995960921b6064820152608401610b1b565b835460ff191660011784558015611c1657835461ff0019166101001784555b611c407ff241310a63b2e1a495f33bb9814fb4b4aed6e04a10982f7afecd61fc37756b0d87611d63565b611c4b600087611d63565b611c548561209f565b8015611c9857835461ff0019168455604051600181527f7f26b83ff96e1f2b6a682f133852f6798a09c465da95921460cefb38474024989060200160405180910390a15b505050505050565b60006001600160e01b03198216630271189760e51b14806108b557506301ffc9a760e01b6001600160e01b03198316146108b5565b60008281526000805160206149f1833981519152602081815260408084206001600160a01b03861685529091529091205460ff1661082557611d21826001600160a01b03166014612f7a565b611d2c846020612f7a565b604051602001611d3d929190614818565b60408051601f198184030181529082905262461bcd60e51b8252610b1b916004016145b4565b611d6d8282613115565b610b90828261317f565b611d81828261320d565b60008281527f0c4ba382c0009cf238e4c1ca1a52f51c61e6248a70bdfb34e5ed49d5578a5c0c602090815260408083206001600160a01b03851680855260028201808552838620805487526001909301855292852080546001600160a01b031916905584529152555050565b336001600160a01b037f00000000000000000000000000000000000000000000000000000000000000001614611e655760405162461bcd60e51b815260206004820152601c60248201527f6163636f756e743a206e6f742066726f6d20456e747279506f696e74000000006044820152606401610b1b565b565b600080611ec1836040517f19457468657265756d205369676e6564204d6573736167653a0a3332000000006020820152603c8101829052600090605c01604051602081830303815290604052805190602001209050919050565b90506000611f13611ed66101408701876146b9565b8080601f016020809104026020016040519081016040528093929190818152602001838380828437600092019190915250869392505061327d9050565b9050611f1e816119ee565b611f2d576001925050506108b5565b506000949350505050565b7f6f265e404054a781955e6f16f70e749f59f16f06413e507cab627ce5381a9e338054602083013514611fad5760405162461bcd60e51b815260206004820152601860248201527f54574163636f756e743a20696e76616c6964206e6f6e636500000000000000006044820152606401610b1b565b6001816000016000828254611fc291906147a5565b90915550505050565b801561136d57604051600090339060001990849084818181858888f193505050503d806000811461112f576040519150601f19603f3d011682016040523d82523d6000602084013e61112f565b600080846001600160a01b031684846040516120349190614789565b60006040518083038185875af1925050503d8060008114612071576040519150601f19603f3d011682016040523d82523d6000602084013e612076565b606091505b50915091508161112f57805160208201fd5b60606108b5826132a1565b60006118c181336112e7565b7fa7d40346e44ca145e94a946aa34a7d4a67245577dc18699a626fe0ffc6ce3281805460009082906120d09061467e565b80601f01602080910402602001604051908101604052809291908181526020018280546120fc9061467e565b80156121495780601f1061211e57610100808354040283529160200191612149565b820191906000526020600020905b81548152906001019060200180831161212c57829003601f168201915b50508651939450612164938693506020880192509050613a68565b507fc9c7c3fe08b88b4df9d4d47ef47d2c43d55c025a0ba88ca442580ed9e7348a16818460405161219692919061488d565b60405180910390a1505050565b6060610bd18383604051806060016040528060278152602001614a116027913961337e565b60006118c17ff241310a63b2e1a495f33bb9814fb4b4aed6e04a10982f7afecd61fc37756b0d336112e7565b8051516000805160206149d183398151915290612211828261345b565b61222d5760405162461bcd60e51b8152600401610b1b906148bb565b600082600201826040516122419190614789565b9081526040805191829003602001909120600201548551909101516001600160a01b039182169250168114156122cb5760405162461bcd60e51b815260206004820152602960248201527f457874656e73696f6e53746174653a2072652d616464696e672073616d6520656044820152683c3a32b739b4b7b71760b91b6064820152608401610b1b565b835160405160028501906122e0908590614789565b9081526040516020918190038201902082518051919261230592849290910190613a68565b50602082810151805161231e9260018501920190613a68565b50604091820151600291820180546001600160a01b0319166001600160a01b03909216919091179055905160009185019061235a908590614789565b9081526020016040518091039020600301805480602002602001604051908101604052809291908181526020016000905b828210156124685760008481526020908190206040805180820190915260028502909101805460e01b6001600160e01b031916825260018101805492939192918401916123d79061467e565b80601f01602080910402602001604051908101604052809291908181526020018280546124039061467e565b80156124505780601f1061242557610100808354040283529160200191612450565b820191906000526020600020905b81548152906001019060200180831161243357829003601f168201915b5050505050815250508152602001906001019061238b565b50505050905060008151905084600201846040516124869190614789565b908152602001604051809103902060030160006124a39190613aec565b60005b8181101561252a578560030160008483815181106124c6576124c6614742565b602090810291909101810151516001600160e01b03191682528101919091526040016000908120906124f88282613b0d565b612506600183016000613b0d565b5060020180546001600160a01b03191690556125236001826147a5565b90506124a6565b5060208601515160005b818110156127b7578760200151818151811061255257612552614742565b60200260200101516020015160405160200161256e9190614789565b604051602081830303815290604052805190602001206001600160e01b031916886020015182815181106125a4576125a4614742565b6020026020010151600001516001600160e01b031916146125d75760405162461bcd60e51b8152600401610b1b90614904565b87600001518760030160008a6020015184815181106125f8576125f8614742565b602090810291909101810151516001600160e01b03191682528181019290925260400160002082518051919261263392849290910190613a68565b50602082810151805161264c9260018501920190613a68565b50604091820151600291820180546001600160a01b0319166001600160a01b03909216919091179055905190880190612686908890614789565b9081526020016040518091039020600301886020015182815181106126ad576126ad614742565b6020908102919091018101518254600180820185556000948552938390208251600290920201805463ffffffff191660e09290921c919091178155818301518051929491936127029392850192910190613a68565b5050508760200151818151811061271b5761271b614742565b6020026020010151600001516001600160e01b0319168860000151604001516001600160a01b0316866001600160a01b03167f7f4649aa14a7e9abd7f21a02ea35b32c907d59bb701c52c0e028ddf57533c74c8b60200151858151811061278457612784614742565b60200260200101516020015160405161279d91906145b4565b60405180910390a46127b06001826147a5565b9050612534565b5050505050505050565b8051516000805160206149d1833981519152906127de8282613467565b61283c5760405162461bcd60e51b815260206004820152602960248201527f457874656e73696f6e53746174653a20657874656e73696f6e20616c726561646044820152683c9032bc34b9ba399760b91b6064820152608401610b1b565b82516040516002840190612851908490614789565b9081526040516020918190038201902082518051919261287692849290910190613a68565b50602082810151805161288f9260018501920190613a68565b5060409182015160029190910180546001600160a01b0319166001600160a01b039283161790558451909101511661292f5760405162461bcd60e51b815260206004820152603860248201527f457874656e73696f6e53746174653a20616464696e6720657874656e73696f6e60448201527f20776974686f757420696d706c656d656e746174696f6e2e00000000000000006064820152608401610b1b565b60208301515160005b8181101561112f578460200151818151811061295657612956614742565b6020026020010151602001516040516020016129729190614789565b604051602081830303815290604052805190602001206001600160e01b031916856020015182815181106129a8576129a8614742565b6020026020010151600001516001600160e01b031916146129db5760405162461bcd60e51b8152600401610b1b90614904565b60006001600160a01b031684600301600087602001518481518110612a0257612a02614742565b602090810291909101810151516001600160e01b0319168252810191909152604001600020600201546001600160a01b031614612aa75760405162461bcd60e51b815260206004820152603660248201527f457874656e73696f6e53746174653a20657874656e73696f6e20616c7265616460448201527f792065786973747320666f722066756e6374696f6e2e000000000000000000006064820152608401610b1b565b846000015184600301600087602001518481518110612ac857612ac8614742565b602090810291909101810151516001600160e01b031916825281810192909252604001600020825180519192612b0392849290910190613a68565b506020828101518051612b1c9260018501920190613a68565b50604091820151600291820180546001600160a01b0319166001600160a01b03909216919091179055905190850190612b56908590614789565b908152602001604051809103902060030185602001518281518110612b7d57612b7d614742565b6020908102919091018101518254600180820185556000948552938390208251600290920201805463ffffffff191660e09290921c91909117815581830151805192949193612bd29392850192910190613a68565b50505084602001518181518110612beb57612beb614742565b6020026020010151600001516001600160e01b0319168560000151604001516001600160a01b03167fb5a3e9571e367979a4a14de42b248d0837c26fd8e879846062abcf7cee17127387602001518481518110612c4a57612c4a614742565b602002602001015160200151604051612c6391906145b4565b60405180910390a3612c766001826147a5565b9050612938565b6000805160206149d1833981519152612c968183613473565b612cb25760405162461bcd60e51b8152600401610b1b906148bb565b60008160020183604051612cc69190614789565b9081526040519081900360200181206002908101546001600160a01b0316925060009190840190612cf8908690614789565b9081526020016040518091039020600301805480602002602001604051908101604052809291908181526020016000905b82821015612e065760008481526020908190206040805180820190915260028502909101805460e01b6001600160e01b03191682526001810180549293919291840191612d759061467e565b80601f0160208091040260200160405190810160405280929190818152602001828054612da19061467e565b8015612dee5780601f10612dc357610100808354040283529160200191612dee565b820191906000526020600020905b815481529060010190602001808311612dd157829003601f168201915b50505050508152505081526020019060010190612d29565b5050505090508260020184604051612e1e9190614789565b90815260405190819003602001902060008181612e3b8282613b0d565b612e49600183016000613b0d565b5060020180546001600160a01b0319169055612e69600383016000613aec565b5050805160005b81811015611c9857828181518110612e8a57612e8a614742565b6020026020010151600001516001600160e01b031916846001600160a01b03167f5968261591c9d57680edfe0bed3bb6a37ab7fb354578affd1e5be8ce18e6c9d3858481518110612edd57612edd614742565b602002602001015160200151604051612ef691906145b4565b60405180910390a3846003016000848381518110612f1657612f16614742565b602090810291909101810151516001600160e01b0319168252810191909152604001600090812090612f488282613b0d565b612f56600183016000613b0d565b5060020180546001600160a01b0319169055612f736001826147a5565b9050612e70565b60606000612f89836002614957565b612f949060026147a5565b6001600160401b03811115612fab57612fab613b83565b6040519080825280601f01601f191660200182016040528015612fd5576020820181803683370190505b509050600360fc1b81600081518110612ff057612ff0614742565b60200101906001600160f81b031916908160001a905350600f60fb1b8160018151811061301f5761301f614742565b60200101906001600160f81b031916908160001a9053506000613043846002614957565b61304e9060016147a5565b90505b60018111156130c6576f181899199a1a9b1b9c1cb0b131b232b360811b85600f166010811061308257613082614742565b1a60f81b82828151811061309857613098614742565b60200101906001600160f81b031916908160001a90535060049490941c936130bf81614976565b9050613051565b508315610bd15760405162461bcd60e51b815260206004820181905260248201527f537472696e67733a20686578206c656e67746820696e73756666696369656e746044820152606401610b1b565b60008281526000805160206149f1833981519152602081815260408084206001600160a01b0386168086529252808420805460ff19166001179055519192339286917f2f8788117e7eff1d82e926ec794901d17c78024a50270940304540a733656f0d91a4505050565b60008281527f0c4ba382c0009cf238e4c1ca1a52f51c61e6248a70bdfb34e5ed49d5578a5c0c60208190526040822080549192600191906131c083856147a5565b909155505060009384526020918252604080852082865260018101845281862080546001600160a01b039096166001600160a01b0319909616861790559385526002909301909152912055565b6000805160206149f18339815191526132268383611cd5565b6000838152602082815260408083206001600160a01b0386168085529252808320805460ff1916905551339286917ff6391f5c32d9c69d2a47ea670b442974b53935d1edc7fd64eb21e047a839171b9190a4505050565b600080600061328c858561347f565b91509150613299816134ef565b509392505050565b606081600001805480602002602001604051908101604052809291908181526020016000905b828210156133735783829060005260206000200180546132e69061467e565b80601f01602080910402602001604051908101604052809291908181526020018280546133129061467e565b801561335f5780601f106133345761010080835404028352916020019161335f565b820191906000526020600020905b81548152906001019060200180831161334257829003601f168201915b5050505050815260200190600101906132c7565b505050509050919050565b60606001600160a01b0384163b6133e65760405162461bcd60e51b815260206004820152602660248201527f416464726573733a2064656c65676174652063616c6c20746f206e6f6e2d636f6044820152651b9d1c9858dd60d21b6064820152608401610b1b565b600080856001600160a01b0316856040516134019190614789565b600060405180830381855af49150503d806000811461343c576040519150601f19603f3d011682016040523d82523d6000602084013e613441565b606091505b50915091506134518282866136aa565b9695505050505050565b6000610bd183836136e3565b6000610bd18383613710565b6000610bd1838361377c565b6000808251604114156134b65760208301516040840151606085015160001a6134aa87828585613942565b945094505050506134e8565b8251604014156134e057602083015160408401516134d5868383613a2f565b9350935050506134e8565b506000905060025b9250929050565b60008160048111156135035761350361498d565b141561350c5750565b60018160048111156135205761352061498d565b141561356e5760405162461bcd60e51b815260206004820152601860248201527f45434453413a20696e76616c6964207369676e617475726500000000000000006044820152606401610b1b565b60028160048111156135825761358261498d565b14156135d05760405162461bcd60e51b815260206004820152601f60248201527f45434453413a20696e76616c6964207369676e6174757265206c656e677468006044820152606401610b1b565b60038160048111156135e4576135e461498d565b141561363d5760405162461bcd60e51b815260206004820152602260248201527f45434453413a20696e76616c6964207369676e6174757265202773272076616c604482015261756560f01b6064820152608401610b1b565b60048160048111156136515761365161498d565b141561136d5760405162461bcd60e51b815260206004820152602260248201527f45434453413a20696e76616c6964207369676e6174757265202776272076616c604482015261756560f01b6064820152608401610b1b565b606083156136b9575081610bd1565b8251156136c95782518084602001fd5b8160405162461bcd60e51b8152600401610b1b91906145b4565b600082600101826040516136f79190614789565b9081526040519081900360200190205415159392505050565b600061371c83836136e3565b61377457825460018101845560008481526020908190208451613746939190910191850190613a68565b508254604051600185019061375c908590614789565b908152604051908190036020019020555060016108b5565b5060006108b5565b60008083600101836040516137919190614789565b9081526020016040518091039020549050806000146139385760006137b76001836149a3565b85549091506000906137cb906001906149a3565b90508181146138d95760008660000182815481106137eb576137eb614742565b9060005260206000200180546138009061467e565b80601f016020809104026020016040519081016040528092919081815260200182805461382c9061467e565b80156138795780601f1061384e57610100808354040283529160200191613879565b820191906000526020600020905b81548152906001019060200180831161385c57829003601f168201915b505050505090508087600001848154811061389657613896614742565b9060005260206000200190805190602001906138b3929190613a68565b508387600101826040516138c79190614789565b90815260405190819003602001902055505b85548690806138ea576138ea6149ba565b6001900381819060005260206000200160006139069190613b0d565b9055856001018560405161391a9190614789565b908152602001604051809103902060009055600193505050506108b5565b60009150506108b5565b6000807f7fffffffffffffffffffffffffffffff5d576e7357a4501ddfe92f46681b20a08311156139795750600090506003613a26565b8460ff16601b1415801561399157508460ff16601c14155b156139a25750600090506004613a26565b6040805160008082526020820180845289905260ff881692820192909252606081018690526080810185905260019060a0016020604051602081039080840390855afa1580156139f6573d6000803e3d6000fd5b5050604051601f1901519150506001600160a01b038116613a1f57600060019250925050613a26565b9150600090505b94509492505050565b6000806001600160ff1b03831681613a4c60ff86901c601b6147a5565b9050613a5a87828885613942565b935093505050935093915050565b828054613a749061467e565b90600052602060002090601f016020900481019282613a965760008555613adc565b82601f10613aaf57805160ff1916838001178555613adc565b82800160010185558215613adc579182015b82811115613adc578251825591602001919060010190613ac1565b50613ae8929150613b43565b5090565b508054600082556002029060005260206000209081019061136d9190613b58565b508054613b199061467e565b6000825580601f10613b29575050565b601f01602090049060005260206000209081019061136d91905b5b80821115613ae85760008155600101613b44565b80821115613ae857805463ffffffff191681556000613b7a6001830182613b0d565b50600201613b58565b634e487b7160e01b600052604160045260246000fd5b604080519081016001600160401b0381118282101715613bbb57613bbb613b83565b60405290565b604051606081016001600160401b0381118282101715613bbb57613bbb613b83565b604051601f8201601f191681016001600160401b0381118282101715613c0b57613c0b613b83565b604052919050565b600082601f830112613c2457600080fd5b81356001600160401b03811115613c3d57613c3d613b83565b613c50601f8201601f1916602001613be3565b818152846020838601011115613c6557600080fd5b816020850160208301376000918101602001919091529392505050565b600060208284031215613c9457600080fd5b81356001600160401b03811115613caa57600080fd5b613cb684828501613c13565b949350505050565b60005b83811015613cd9578181015183820152602001613cc1565b838111156115605750506000910152565b60008151808452613d02816020860160208601613cbe565b601f01601f19169290920160200192915050565b60006020808301818452808551808352604092508286019150828160051b87010184880160005b83811015613d8657888303603f19018552815180516001600160e01b0319168452870151878401879052613d7387850182613cea565b9588019593505090860190600101613d3d565b509098975050505050505050565b80356001600160e01b031981168114613dac57600080fd5b919050565b600060208284031215613dc357600080fd5b610bd182613d94565b6001600160a01b038116811461136d57600080fd5b60008060008060808587031215613df757600080fd5b8435613e0281613dcc565b93506020850135613e1281613dcc565b92506040850135915060608501356001600160401b03811115613e3457600080fd5b613e4087828801613c13565b91505092959194509250565b6000815160608452613e616060850182613cea565b905060208301518482036020860152613e7a8282613cea565b9150506001600160a01b0360408401511660408501528091505092915050565b602081526000610bd16020830184613e4c565b600060208284031215613ebf57600080fd5b5035919050565b60008060408385031215613ed957600080fd5b823591506020830135613eeb81613dcc565b809150509250929050565b600080600060608486031215613f0b57600080fd5b83356001600160401b03811115613f2157600080fd5b84016101608187031215613f3457600080fd5b95602085013595506040909401359392505050565b60008083601f840112613f5b57600080fd5b5081356001600160401b03811115613f7257600080fd5b6020830191508360208260051b85010111156134e857600080fd5b60008060008060008060608789031215613fa657600080fd5b86356001600160401b0380821115613fbd57600080fd5b613fc98a838b01613f49565b90985096506020890135915080821115613fe257600080fd5b613fee8a838b01613f49565b9096509450604089013591508082111561400757600080fd5b5061401489828a01613f49565b979a9699509497509295939492505050565b60006040825181855261403b82860182613e4c565b9050602080850151868303828801528281518085528385019150838160051b860101848401935060005b828110156140ae57868203601f19018452845180516001600160e01b031916835286015186830189905261409b89840182613cea565b9587019594870194925050600101614065565b509998505050505050505050565b6000602080830181845280855180835260408601915060408160051b870101925083870160005b8281101561411157603f198886030184526140ff858351614026565b945092850192908501906001016140e3565b5092979650505050505050565b6000806040838503121561413157600080fd5b823561413c81613dcc565b946020939093013593505050565b6000806040838503121561415d57600080fd5b50508035926020909101359150565b6000806020838503121561417f57600080fd5b82356001600160401b0381111561419557600080fd5b6141a185828601613f49565b90969095509350505050565b6000602080830181845280855180835260408601915060408160051b870101925083870160005b8281101561411157603f198886030184526141f0858351613cea565b945092850192908501906001016141d4565b6000806000806060858703121561421857600080fd5b843561422381613dcc565b93506020850135925060408501356001600160401b038082111561424657600080fd5b818701915087601f83011261425a57600080fd5b81358181111561426957600080fd5b88602082850101111561427b57600080fd5b95989497505060200194505050565b60006001600160401b038211156142a3576142a3613b83565b5060051b60200190565b600082601f8301126142be57600080fd5b813560206142d36142ce8361428a565b613be3565b82815260059290921b840181019181810190868411156142f257600080fd5b8286015b8481101561430d57803583529183019183016142f6565b509695505050505050565b600080600080600060a0868803121561433057600080fd5b853561433b81613dcc565b9450602086013561434b81613dcc565b935060408601356001600160401b038082111561436757600080fd5b61437389838a016142ad565b9450606088013591508082111561438957600080fd5b61439589838a016142ad565b935060808801359150808211156143ab57600080fd5b506143b888828901613c13565b9150509295509295909350565b602081526000610bd16020830184614026565b600082601f8301126143e957600080fd5b813560206143f96142ce8361428a565b82815260059290921b8401810191818101908684111561441857600080fd5b8286015b8481101561430d5780356001600160401b038082111561443c5760008081fd5b908801906040828b03601f19018113156144565760008081fd5b61445e613b99565b614469888501613d94565b815290830135908282111561447e5760008081fd5b61448c8c8984870101613c13565b81890152865250505091830191830161441c565b6000602082840312156144b257600080fd5b81356001600160401b03808211156144c957600080fd5b90830190604082860312156144dd57600080fd5b6144e5613b99565b8235828111156144f457600080fd5b83016060818803121561450657600080fd5b61450e613bc1565b81358481111561451d57600080fd5b61452989828501613c13565b82525060208201358481111561453e57600080fd5b61454a89828501613c13565b6020830152506040820135915061456082613dcc565b6040810191909152815260208301358281111561457c57600080fd5b614588878286016143d8565b60208301525095945050505050565b6000602082840312156145a957600080fd5b8135610bd181613dcc565b602081526000610bd16020830184613cea565b600080600080600060a086880312156145df57600080fd5b85356145ea81613dcc565b945060208601356145fa81613dcc565b9350604086013592506060860135915060808601356001600160401b0381111561462357600080fd5b6143b888828901613c13565b6000806040838503121561464257600080fd5b823561464d81613dcc565b915060208301356001600160401b0381111561466857600080fd5b61467485828601613c13565b9150509250929050565b600181811c9082168061469257607f821691505b602082108114156146b357634e487b7160e01b600052602260045260246000fd5b50919050565b6000808335601e198436030181126146d057600080fd5b8301803591506001600160401b038211156146ea57600080fd5b6020019150368190038213156134e857600080fd5b60208082526023908201527f54574163636f756e743a206e6f742061646d696e206f7220456e747279506f69604082015262373a1760e91b606082015260800190565b634e487b7160e01b600052603260045260246000fd5b634e487b7160e01b600052601160045260246000fd5b600060001982141561478257614782614758565b5060010190565b6000825161479b818460208701613cbe565b9190910192915050565b600082198211156147b8576147b8614758565b500190565b6000602082840312156147cf57600080fd5b5051919050565b60208082526022908201527f42617365526f757465723a2063616c6c6572206e6f7420617574686f72697a65604082015261321760f11b606082015260800190565b7f5065726d697373696f6e733a206163636f756e74200000000000000000000000815260008351614850816015850160208801613cbe565b7001034b99036b4b9b9b4b733903937b6329607d1b6015918401918201528351614881816026840160208801613cbe565b01602601949350505050565b6040815260006148a06040830185613cea565b82810360208401526148b28185613cea565b95945050505050565b60208082526029908201527f457874656e73696f6e53746174653a20657874656e73696f6e20646f6573206e60408201526837ba1032bc34b9ba1760b91b606082015260800190565b60208082526033908201527f457874656e73696f6e53746174653a20666e2073656c6563746f7220616e642060408201527239b4b3b730ba3ab9329036b4b9b6b0ba31b41760691b606082015260800190565b600081600019048311821515161561497157614971614758565b500290565b60008161498557614985614758565b506000190190565b634e487b7160e01b600052602160045260246000fd5b6000828210156149b5576149b5614758565b500390565b634e487b7160e01b600052603160045260246000fdfe1a039940024227c284ceea7ab90e5603ce17de27c93816eef22d65b14ee00873d0ebebe8e6445c62babf8fef767eb39f1002bb957bb5b83258275a4e46428ed5416464726573733a206c6f772d6c6576656c2064656c65676174652063616c6c206661696c6564a2646970667358221220516b7989dfa1809c8d944fa33a3f7ada7bc8103292a534652def51d7bbbd802b64736f6c634300080c0033",
    "linkReferences": {}
  },
  "methodIdentifiers": {
    "DEFAULT_ADMIN_ROLE()": "a217fddf",
    "EXTENSION_ADMIN_ROLE()": "e157be9f",
    "SIGNER_ROLE()": "a1ebf35d",
    "addDeposit()": "4a58db19",
    "addExtension(((string,string,address),(bytes4,string)[]))": "e05688fe",
    "contractURI()": "e8a3d485",
    "entryPoint()": "b0d691fe",
    "execute(address,uint256,bytes)": "b61d27f6",
    "executeBatch(address[],uint256[],bytes[])": "47e1da2a",
    "getAllExtensions()": "4a00cc48",
    "getAllFunctionsOfExtension(string)": "012b8729",
    "getDeposit()": "c399ec88",
    "getExtension(string)": "c22707ee",
    "getExtensionForFunction(bytes4)": "212f6912",
    "getExtensionImplementation(string)": "7c3b1137",
    "getImplementationForFunction(bytes4)": "ce0b6013",
    "getRoleAdmin(bytes32)": "248a9ca3",
    "getRoleMember(bytes32,uint256)": "9010d07c",
    "getRoleMemberCount(bytes32)": "ca15c873",
    "grantRole(bytes32,address)": "2f2ff15d",
    "hasRole(bytes32,address)": "91d14854",
    "hasRoleWithSwitch(bytes32,address)": "a32fa5b3",
    "initialize(address,string)": "f399e22e",
    "isValidSigner(address)": "d5f50582",
    "multicall(bytes[])": "ac9650d8",
    "nonce()": "affed0e0",
    "onERC1155BatchReceived(address,address,uint256[],uint256[],bytes)": "bc197c81",
    "onERC1155Received(address,address,uint256,uint256,bytes)": "f23a6e61",
    "onERC721Received(address,address,uint256,bytes)": "150b7a02",
    "removeExtension(string)": "ee7d2adf",
    "renounceRole(bytes32,address)": "36568abe",
    "revokeRole(bytes32,address)": "d547741f",
    "setContractURI(string)": "938e3d7b",
    "supportsInterface(bytes4)": "01ffc9a7",
    "updateExtension(((string,string,address),(bytes4,string)[]))": "c54c07e1",
    "validateUserOp((address,uint256,bytes,bytes,uint256,uint256,uint256,uint256,uint256,bytes,bytes),bytes32,uint256)": "3a871cdd",
    "withdrawDepositTo(address,uint256)": "4d44560d"
  },
  "id": 278
}