{
  "abi": [
    {
      "inputs": [
        {
          "internalType": "contract IEntryPoint",
          "name": "_entrypoint",
          "type": "address"
        }
      ],
      "stateMutability": "nonpayable",
      "type": "constructor"
    },
    {
      "anonymous": false,
      "inputs": [
        {
          "indexed": false,
          "internalType": "string",
          "name": "prevURI",
          "type": "string"
        },
        {
          "indexed": false,
          "internalType": "string",
          "name": "newURI",
          "type": "string"
        }
      ],
      "name": "ContractURIUpdated",
      "type": "event"
    },
    {
      "anonymous": false,
      "inputs": [
        {
          "indexed": false,
          "internalType": "uint8",
          "name": "version",
          "type": "uint8"
        }
      ],
      "name": "Initialized",
      "type": "event"
    },
    {
      "anonymous": false,
      "inputs": [
        {
          "indexed": true,
          "internalType": "bytes32",
          "name": "role",
          "type": "bytes32"
        },
        {
          "indexed": true,
          "internalType": "bytes32",
          "name": "previousAdminRole",
          "type": "bytes32"
        },
        {
          "indexed": true,
          "internalType": "bytes32",
          "name": "newAdminRole",
          "type": "bytes32"
        }
      ],
      "name": "RoleAdminChanged",
      "type": "event"
    },
    {
      "anonymous": false,
      "inputs": [
        {
          "indexed": true,
          "internalType": "bytes32",
          "name": "role",
          "type": "bytes32"
        },
        {
          "indexed": true,
          "internalType": "address",
          "name": "account",
          "type": "address"
        },
        {
          "indexed": true,
          "internalType": "address",
          "name": "sender",
          "type": "address"
        }
      ],
      "name": "RoleGranted",
      "type": "event"
    },
    {
      "anonymous": false,
      "inputs": [
        {
          "indexed": true,
          "internalType": "bytes32",
          "name": "role",
          "type": "bytes32"
        },
        {
          "indexed": true,
          "internalType": "address",
          "name": "account",
          "type": "address"
        },
        {
          "indexed": true,
          "internalType": "address",
          "name": "sender",
          "type": "address"
        }
      ],
      "name": "RoleRevoked",
      "type": "event"
    },
    {
      "inputs": [],
      "name": "DEFAULT_ADMIN_ROLE",
      "outputs": [
        {
          "internalType": "bytes32",
          "name": "",
          "type": "bytes32"
        }
      ],
      "stateMutability": "view",
      "type": "function"
    },
    {
      "inputs": [],
      "name": "SIGNER_ROLE",
      "outputs": [
        {
          "internalType": "bytes32",
          "name": "",
          "type": "bytes32"
        }
      ],
      "stateMutability": "view",
      "type": "function"
    },
    {
      "inputs": [],
      "name": "addDeposit",
      "outputs": [],
      "stateMutability": "payable",
      "type": "function"
    },
    {
      "inputs": [],
      "name": "contractURI",
      "outputs": [
        {
          "internalType": "string",
          "name": "",
          "type": "string"
        }
      ],
      "stateMutability": "view",
      "type": "function"
    },
    {
      "inputs": [],
      "name": "entryPoint",
      "outputs": [
        {
          "internalType": "contract IEntryPoint",
          "name": "",
          "type": "address"
        }
      ],
      "stateMutability": "view",
      "type": "function"
    },
    {
      "inputs": [
        {
          "internalType": "address",
          "name": "_target",
          "type": "address"
        },
        {
          "internalType": "uint256",
          "name": "_value",
          "type": "uint256"
        },
        {
          "internalType": "bytes",
          "name": "_calldata",
          "type": "bytes"
        }
      ],
      "name": "execute",
      "outputs": [],
      "stateMutability": "nonpayable",
      "type": "function"
    },
    {
      "inputs": [
        {
          "internalType": "address[]",
          "name": "_target",
          "type": "address[]"
        },
        {
          "internalType": "uint256[]",
          "name": "_value",
          "type": "uint256[]"
        },
        {
          "internalType": "bytes[]",
          "name": "_calldata",
          "type": "bytes[]"
        }
      ],
      "name": "executeBatch",
      "outputs": [],
      "stateMutability": "nonpayable",
      "type": "function"
    },
    {
      "inputs": [],
      "name": "getDeposit",
      "outputs": [
        {
          "internalType": "uint256",
          "name": "",
          "type": "uint256"
        }
      ],
      "stateMutability": "view",
      "type": "function"
    },
    {
      "inputs": [],
      "name": "getNonce",
      "outputs": [
        {
          "internalType": "uint256",
          "name": "",
          "type": "uint256"
        }
      ],
      "stateMutability": "view",
      "type": "function"
    },
    {
      "inputs": [
        {
          "internalType": "bytes32",
          "name": "role",
          "type": "bytes32"
        }
      ],
      "name": "getRoleAdmin",
      "outputs": [
        {
          "internalType": "bytes32",
          "name": "",
          "type": "bytes32"
        }
      ],
      "stateMutability": "view",
      "type": "function"
    },
    {
      "inputs": [
        {
          "internalType": "bytes32",
          "name": "role",
          "type": "bytes32"
        },
        {
          "internalType": "uint256",
          "name": "index",
          "type": "uint256"
        }
      ],
      "name": "getRoleMember",
      "outputs": [
        {
          "internalType": "address",
          "name": "member",
          "type": "address"
        }
      ],
      "stateMutability": "view",
      "type": "function"
    },
    {
      "inputs": [
        {
          "internalType": "bytes32",
          "name": "role",
          "type": "bytes32"
        }
      ],
      "name": "getRoleMemberCount",
      "outputs": [
        {
          "internalType": "uint256",
          "name": "count",
          "type": "uint256"
        }
      ],
      "stateMutability": "view",
      "type": "function"
    },
    {
      "inputs": [
        {
          "internalType": "bytes32",
          "name": "role",
          "type": "bytes32"
        },
        {
          "internalType": "address",
          "name": "account",
          "type": "address"
        }
      ],
      "name": "grantRole",
      "outputs": [],
      "stateMutability": "nonpayable",
      "type": "function"
    },
    {
      "inputs": [
        {
          "internalType": "bytes32",
          "name": "role",
          "type": "bytes32"
        },
        {
          "internalType": "address",
          "name": "account",
          "type": "address"
        }
      ],
      "name": "hasRole",
      "outputs": [
        {
          "internalType": "bool",
          "name": "",
          "type": "bool"
        }
      ],
      "stateMutability": "view",
      "type": "function"
    },
    {
      "inputs": [
        {
          "internalType": "bytes32",
          "name": "role",
          "type": "bytes32"
        },
        {
          "internalType": "address",
          "name": "account",
          "type": "address"
        }
      ],
      "name": "hasRoleWithSwitch",
      "outputs": [
        {
          "internalType": "bool",
          "name": "",
          "type": "bool"
        }
      ],
      "stateMutability": "view",
      "type": "function"
    },
    {
      "inputs": [
        {
          "internalType": "address",
          "name": "_defaultAdmin",
          "type": "address"
        }
      ],
      "name": "initialize",
      "outputs": [],
      "stateMutability": "nonpayable",
      "type": "function"
    },
    {
      "inputs": [
        {
          "internalType": "address",
          "name": "_signer",
          "type": "address"
        }
      ],
      "name": "isValidSigner",
      "outputs": [
        {
          "internalType": "bool",
          "name": "",
          "type": "bool"
        }
      ],
      "stateMutability": "view",
      "type": "function"
    },
    {
      "inputs": [
        {
          "internalType": "bytes[]",
          "name": "data",
          "type": "bytes[]"
        }
      ],
      "name": "multicall",
      "outputs": [
        {
          "internalType": "bytes[]",
          "name": "results",
          "type": "bytes[]"
        }
      ],
      "stateMutability": "nonpayable",
      "type": "function"
    },
    {
      "inputs": [
        {
          "internalType": "address",
          "name": "",
          "type": "address"
        },
        {
          "internalType": "address",
          "name": "",
          "type": "address"
        },
        {
          "internalType": "uint256[]",
          "name": "",
          "type": "uint256[]"
        },
        {
          "internalType": "uint256[]",
          "name": "",
          "type": "uint256[]"
        },
        {
          "internalType": "bytes",
          "name": "",
          "type": "bytes"
        }
      ],
      "name": "onERC1155BatchReceived",
      "outputs": [
        {
          "internalType": "bytes4",
          "name": "",
          "type": "bytes4"
        }
      ],
      "stateMutability": "nonpayable",
      "type": "function"
    },
    {
      "inputs": [
        {
          "internalType": "address",
          "name": "",
          "type": "address"
        },
        {
          "internalType": "address",
          "name": "",
          "type": "address"
        },
        {
          "internalType": "uint256",
          "name": "",
          "type": "uint256"
        },
        {
          "internalType": "uint256",
          "name": "",
          "type": "uint256"
        },
        {
          "internalType": "bytes",
          "name": "",
          "type": "bytes"
        }
      ],
      "name": "onERC1155Received",
      "outputs": [
        {
          "internalType": "bytes4",
          "name": "",
          "type": "bytes4"
        }
      ],
      "stateMutability": "nonpayable",
      "type": "function"
    },
    {
      "inputs": [
        {
          "internalType": "address",
          "name": "",
          "type": "address"
        },
        {
          "internalType": "address",
          "name": "",
          "type": "address"
        },
        {
          "internalType": "uint256",
          "name": "",
          "type": "uint256"
        },
        {
          "internalType": "bytes",
          "name": "",
          "type": "bytes"
        }
      ],
      "name": "onERC721Received",
      "outputs": [
        {
          "internalType": "bytes4",
          "name": "",
          "type": "bytes4"
        }
      ],
      "stateMutability": "nonpayable",
      "type": "function"
    },
    {
      "inputs": [
        {
          "internalType": "bytes32",
          "name": "role",
          "type": "bytes32"
        },
        {
          "internalType": "address",
          "name": "account",
          "type": "address"
        }
      ],
      "name": "renounceRole",
      "outputs": [],
      "stateMutability": "nonpayable",
      "type": "function"
    },
    {
      "inputs": [
        {
          "internalType": "bytes32",
          "name": "role",
          "type": "bytes32"
        },
        {
          "internalType": "address",
          "name": "account",
          "type": "address"
        }
      ],
      "name": "revokeRole",
      "outputs": [],
      "stateMutability": "nonpayable",
      "type": "function"
    },
    {
      "inputs": [
        {
          "internalType": "string",
          "name": "_uri",
          "type": "string"
        }
      ],
      "name": "setContractURI",
      "outputs": [],
      "stateMutability": "nonpayable",
      "type": "function"
    },
    {
      "inputs": [
        {
          "internalType": "bytes4",
          "name": "interfaceId",
          "type": "bytes4"
        }
      ],
      "name": "supportsInterface",
      "outputs": [
        {
          "internalType": "bool",
          "name": "",
          "type": "bool"
        }
      ],
      "stateMutability": "view",
      "type": "function"
    },
    {
      "inputs": [
        {
          "components": [
            {
              "internalType": "address",
              "name": "sender",
              "type": "address"
            },
            {
              "internalType": "uint256",
              "name": "nonce",
              "type": "uint256"
            },
            {
              "internalType": "bytes",
              "name": "initCode",
              "type": "bytes"
            },
            {
              "internalType": "bytes",
              "name": "callData",
              "type": "bytes"
            },
            {
              "internalType": "uint256",
              "name": "callGasLimit",
              "type": "uint256"
            },
            {
              "internalType": "uint256",
              "name": "verificationGasLimit",
              "type": "uint256"
            },
            {
              "internalType": "uint256",
              "name": "preVerificationGas",
              "type": "uint256"
            },
            {
              "internalType": "uint256",
              "name": "maxFeePerGas",
              "type": "uint256"
            },
            {
              "internalType": "uint256",
              "name": "maxPriorityFeePerGas",
              "type": "uint256"
            },
            {
              "internalType": "bytes",
              "name": "paymasterAndData",
              "type": "bytes"
            },
            {
              "internalType": "bytes",
              "name": "signature",
              "type": "bytes"
            }
          ],
          "internalType": "struct UserOperation",
          "name": "userOp",
          "type": "tuple"
        },
        {
          "internalType": "bytes32",
          "name": "userOpHash",
          "type": "bytes32"
        },
        {
          "internalType": "uint256",
          "name": "missingAccountFunds",
          "type": "uint256"
        }
      ],
      "name": "validateUserOp",
      "outputs": [
        {
          "internalType": "uint256",
          "name": "validationData",
          "type": "uint256"
        }
      ],
      "stateMutability": "nonpayable",
      "type": "function"
    },
    {
      "inputs": [
        {
          "internalType": "address payable",
          "name": "withdrawAddress",
          "type": "address"
        },
        {
          "internalType": "uint256",
          "name": "amount",
          "type": "uint256"
        }
      ],
      "name": "withdrawDepositTo",
      "outputs": [],
      "stateMutability": "nonpayable",
      "type": "function"
    }
  ],
  "bytecode": {
    "object": "0x60a06040523480156200001157600080fd5b506040516200287938038062002879833981016040819052620000349162000046565b6001600160a01b031660805262000078565b6000602082840312156200005957600080fd5b81516001600160a01b03811681146200007157600080fd5b9392505050565b6080516127b4620000c56000396000818161044b0152818161075d015281816108ce0152818161095a01528181610cd201528181610d8701528181610ff801526112c401526127b46000f3fe6080604052600436106101ac5760003560e01c8063a217fddf116100ec578063c4d66de81161008a578063d547741f11610064578063d547741f14610525578063d5f5058214610545578063e8a3d48514610565578063f23a6e611461058757600080fd5b8063c4d66de8146104d0578063ca15c873146104f0578063d087d2881461051057600080fd5b8063b0d691fe116100c6578063b0d691fe1461043c578063b61d27f61461046f578063bc197c811461048f578063c399ec88146104bb57600080fd5b8063a217fddf146103da578063a32fa5b3146103ef578063ac9650d81461040f57600080fd5b806347e1da2a116101595780639010d07c116101335780639010d07c1461032e57806391d1485414610366578063938e3d7b14610386578063a1ebf35d146103a657600080fd5b806347e1da2a146102e65780634a58db19146103065780634d44560d1461030e57600080fd5b80632f2ff15d1161018a5780632f2ff15d1461028457806336568abe146102a65780633a871cdd146102c657600080fd5b806301ffc9a7146101b1578063150b7a02146101e6578063248a9ca31461022a575b600080fd5b3480156101bd57600080fd5b506101d16101cc366004611e1e565b6105b3565b60405190151581526020015b60405180910390f35b3480156101f257600080fd5b50610211610201366004611f1c565b630a85bd0160e11b949350505050565b6040516001600160e01b031990911681526020016101dd565b34801561023657600080fd5b50610276610245366004611f88565b60009081527fd0ebebe8e6445c62babf8fef767eb39f1002bb957bb5b83258275a4e46428ed6602052604090205490565b6040519081526020016101dd565b34801561029057600080fd5b506102a461029f366004611fa1565b6105f9565b005b3480156102b257600080fd5b506102a46102c1366004611fa1565b6106c6565b3480156102d257600080fd5b506102766102e1366004611fd1565b61072c565b3480156102f257600080fd5b506102a461030136600461206a565b610752565b6102a46108cc565b34801561031a57600080fd5b506102a4610329366004612104565b61094c565b34801561033a57600080fd5b5061034e610349366004612130565b6109d9565b6040516001600160a01b0390911681526020016101dd565b34801561037257600080fd5b506101d1610381366004611fa1565b610ae7565b34801561039257600080fd5b506102a46103a1366004612152565b610b1f565b3480156103b257600080fd5b506102767fe2f4eaae4a9751e85a3e4a7b9587827a877f29914755229b07a7b2da98285f7081565b3480156103e657600080fd5b50610276600081565b3480156103fb57600080fd5b506101d161040a366004611fa1565b610b70565b34801561041b57600080fd5b5061042f61042a3660046121a3565b610bd2565b6040516101dd919061223d565b34801561044857600080fd5b507f000000000000000000000000000000000000000000000000000000000000000061034e565b34801561047b57600080fd5b506102a461048a36600461229f565b610cc7565b34801561049b57600080fd5b506102116104aa3660046123a8565b63bc197c8160e01b95945050505050565b3480156104c757600080fd5b50610276610d67565b3480156104dc57600080fd5b506102a46104eb366004612456565b610df8565b3480156104fc57600080fd5b5061027661050b366004611f88565b610f28565b34801561051c57600080fd5b50610276610fd1565b34801561053157600080fd5b506102a4610540366004611fa1565b611027565b34801561055157600080fd5b506101d1610560366004612456565b611079565b34801561057157600080fd5b5061057a6110b6565b6040516101dd9190612473565b34801561059357600080fd5b506102116105a2366004612486565b63f23a6e6160e01b95945050505050565b60006001600160e01b03198216630271189760e51b14806105e457506001600160e01b03198216630a85bd0160e11b145b806105f357506105f38261116c565b92915050565b60008281527fd0ebebe8e6445c62babf8fef767eb39f1002bb957bb5b83258275a4e46428ed660205260409020546000805160206127388339815191529061064190336111a1565b6000838152602082815260408083206001600160a01b038616845290915290205460ff16156106b75760405162461bcd60e51b815260206004820152601d60248201527f43616e206f6e6c79206772616e7420746f206e6f6e20686f6c6465727300000060448201526064015b60405180910390fd5b6106c1838361122f565b505050565b336001600160a01b0382161461071e5760405162461bcd60e51b815260206004820152601a60248201527f43616e206f6e6c792072656e6f756e636520666f722073656c6600000000000060448201526064016106ae565b6107288282611243565b5050565b60006107366112b9565b6107408484611333565b905061074b82611404565b9392505050565b336001600160a01b037f000000000000000000000000000000000000000000000000000000000000000016148061078f575061078f600033610ae7565b6107ab5760405162461bcd60e51b81526004016106ae906124ef565b84811480156107b957508483145b6108055760405162461bcd60e51b815260206004820152601f60248201527f54574163636f756e743a2077726f6e67206172726179206c656e677468732e0060448201526064016106ae565b60005b858110156108c3576108b187878381811061082557610825612532565b905060200201602081019061083a9190612456565b86868481811061084c5761084c612532565b9050602002013585858581811061086557610865612532565b90506020028101906108779190612548565b8080601f01602080910402602001604051908101604052809392919081815260200183838082843760009201919091525061145192505050565b806108bb816125a5565b915050610808565b50505050505050565b7f000000000000000000000000000000000000000000000000000000000000000060405163b760faf960e01b81523060048201526001600160a01b03919091169063b760faf99034906024016000604051808303818588803b15801561093157600080fd5b505af1158015610945573d6000803e3d6000fd5b5050505050565b600061095881336111a1565b7f000000000000000000000000000000000000000000000000000000000000000060405163040b850f60e31b81526001600160a01b03858116600483015260248201859052919091169063205c287890604401600060405180830381600087803b1580156109c557600080fd5b505af11580156108c3573d6000803e3d6000fd5b60008281527f0c4ba382c0009cf238e4c1ca1a52f51c61e6248a70bdfb34e5ed49d5578a5c0c6020819052604082205482805b82811015610add576000878152602085815260408083208484526001019091529020546001600160a01b031615610a885785821415610a76576000878152602094855260408082209282526001909201909452909220546001600160a01b031692506105f3915050565b610a816001836125c0565b9150610acb565b610a93876000610ae7565b8015610ab8575060008781526020858152604080832083805260020190915290205481145b15610acb57610ac86001836125c0565b91505b610ad66001826125c0565b9050610a0c565b5050505092915050565b6000918252600080516020612738833981519152602090815260408084206001600160a01b0393909316845291905290205460ff1690565b610b276114c1565b610b645760405162461bcd60e51b815260206004820152600e60248201526d139bdd08185d5d1a1bdc9a5e995960921b60448201526064016106ae565b610b6d816114cd565b50565b60008281526000805160206127388339815191526020818152604080842084805290915282205460ff16610bc8576000848152602091825260408082206001600160a01b0386168352909252205460ff1690506105f3565b5060019392505050565b60608167ffffffffffffffff811115610bed57610bed611e5d565b604051908082528060200260200182016040528015610c2057816020015b6060815260200190600190039081610c0b5790505b50905060005b82811015610cc057610c9030858584818110610c4457610c44612532565b9050602002810190610c569190612548565b8080601f0160208091040260200160405190810160405280939291908181526020018383808284376000920191909152506115d192505050565b828281518110610ca257610ca2612532565b60200260200101819052508080610cb8906125a5565b915050610c26565b5092915050565b336001600160a01b037f0000000000000000000000000000000000000000000000000000000000000000161480610d045750610d04600033610ae7565b610d205760405162461bcd60e51b81526004016106ae906124ef565b610d61848484848080601f01602080910402602001604051908101604052809392919081815260200183838082843760009201919091525061145192505050565b50505050565b6040516370a0823160e01b81523060048201526000906001600160a01b037f000000000000000000000000000000000000000000000000000000000000000016906370a08231906024015b602060405180830381865afa158015610dcf573d6000803e3d6000fd5b505050506040513d601f19601f82011682018060405250810190610df391906125d8565b905090565b7f627d6cbb4eb558f37de3c2ec08b04710e54e06be936a302f087f7bfb80f39ae0805460ff808216916101009004168015808015610e39575060018360ff16105b80610e515750303b158015610e5157508260ff166001145b610eb45760405162461bcd60e51b815260206004820152602e60248201527f496e697469616c697a61626c653a20636f6e747261637420697320616c72656160448201526d191e481a5b9a5d1a585b1a5e995960921b60648201526084016106ae565b835460ff191660011784558015610ed357835461ff0019166101001784555b610ede60008661122f565b801561094557835461ff0019168455604051600181527f7f26b83ff96e1f2b6a682f133852f6798a09c465da95921460cefb38474024989060200160405180910390a15050505050565b60008181527f0c4ba382c0009cf238e4c1ca1a52f51c61e6248a70bdfb34e5ed49d5578a5c0c60208190526040822054825b81811015610fab576000858152602084815260408083208484526001019091529020546001600160a01b031615610f9957610f966001856125c0565b93505b610fa46001826125c0565b9050610f5a565b50610fb7846000610ae7565b15610fca57610fc76001846125c0565b92505b5050919050565b604051631aab3f0d60e11b8152306004820152600060248201819052906001600160a01b037f000000000000000000000000000000000000000000000000000000000000000016906335567e1a90604401610db2565b60008281527fd0ebebe8e6445c62babf8fef767eb39f1002bb957bb5b83258275a4e46428ed660205260409020546000805160206127388339815191529061106f90336111a1565b6106c18383611243565b60006110a57fe2f4eaae4a9751e85a3e4a7b9587827a877f29914755229b07a7b2da98285f7083610ae7565b806105f357506105f3600083610ae7565b7fa7d40346e44ca145e94a946aa34a7d4a67245577dc18699a626fe0ffc6ce328180546060919081906110e8906125f1565b80601f0160208091040260200160405190810160405280929190818152602001828054611114906125f1565b80156111615780601f1061113657610100808354040283529160200191611161565b820191906000526020600020905b81548152906001019060200180831161114457829003601f168201915b505050505091505090565b60006001600160e01b03198216630271189760e51b14806105f357506301ffc9a760e01b6001600160e01b03198316146105f3565b6000828152600080516020612738833981519152602081815260408084206001600160a01b03861685529091529091205460ff166106c1576111ed826001600160a01b031660146115f6565b6111f88460206115f6565b60405160200161120992919061262c565b60408051601f198184030181529082905262461bcd60e51b82526106ae91600401612473565b6112398282611792565b61072882826117fc565b61124d828261188a565b60008281527f0c4ba382c0009cf238e4c1ca1a52f51c61e6248a70bdfb34e5ed49d5578a5c0c602090815260408083206001600160a01b03851680855260028201808552838620805487526001909301855292852080546001600160a01b031916905584529152555050565b336001600160a01b037f000000000000000000000000000000000000000000000000000000000000000016146113315760405162461bcd60e51b815260206004820152601c60248201527f6163636f756e743a206e6f742066726f6d20456e747279506f696e740000000060448201526064016106ae565b565b60008061138d836040517f19457468657265756d205369676e6564204d6573736167653a0a3332000000006020820152603c8101829052600090605c01604051602081830303815290604052805190602001209050919050565b905060006113df6113a2610140870187612548565b8080601f01602080910402602001604051908101604052809392919081815260200183838082843760009201919091525086939250506118fa9050565b90506113ea81611079565b6113f9576001925050506105f3565b506000949350505050565b8015610b6d57604051600090339060001990849084818181858888f193505050503d8060008114610945576040519150601f19603f3d011682016040523d82523d6000602084013e610945565b600080846001600160a01b0316848460405161146d91906126a1565b60006040518083038185875af1925050503d80600081146114aa576040519150601f19603f3d011682016040523d82523d6000602084013e6114af565b606091505b50915091508161094557805160208201fd5b6000610df38133610ae7565b7fa7d40346e44ca145e94a946aa34a7d4a67245577dc18699a626fe0ffc6ce3281805460009082906114fe906125f1565b80601f016020809104026020016040519081016040528092919081815260200182805461152a906125f1565b80156115775780601f1061154c57610100808354040283529160200191611577565b820191906000526020600020905b81548152906001019060200180831161155a57829003601f168201915b50508651939450611592938693506020880192509050611d85565b507fc9c7c3fe08b88b4df9d4d47ef47d2c43d55c025a0ba88ca442580ed9e7348a1681846040516115c49291906126bd565b60405180910390a1505050565b606061074b83836040518060600160405280602781526020016127586027913961191e565b606060006116058360026126eb565b6116109060026125c0565b67ffffffffffffffff81111561162857611628611e5d565b6040519080825280601f01601f191660200182016040528015611652576020820181803683370190505b509050600360fc1b8160008151811061166d5761166d612532565b60200101906001600160f81b031916908160001a905350600f60fb1b8160018151811061169c5761169c612532565b60200101906001600160f81b031916908160001a90535060006116c08460026126eb565b6116cb9060016125c0565b90505b6001811115611743576f181899199a1a9b1b9c1cb0b131b232b360811b85600f16601081106116ff576116ff612532565b1a60f81b82828151811061171557611715612532565b60200101906001600160f81b031916908160001a90535060049490941c9361173c8161270a565b90506116ce565b50831561074b5760405162461bcd60e51b815260206004820181905260248201527f537472696e67733a20686578206c656e67746820696e73756666696369656e7460448201526064016106ae565b6000828152600080516020612738833981519152602081815260408084206001600160a01b0386168086529252808420805460ff19166001179055519192339286917f2f8788117e7eff1d82e926ec794901d17c78024a50270940304540a733656f0d91a4505050565b60008281527f0c4ba382c0009cf238e4c1ca1a52f51c61e6248a70bdfb34e5ed49d5578a5c0c602081905260408220805491926001919061183d83856125c0565b909155505060009384526020918252604080852082865260018101845281862080546001600160a01b039096166001600160a01b0319909616861790559385526002909301909152912055565b6000805160206127388339815191526118a383836111a1565b6000838152602082815260408083206001600160a01b0386168085529252808320805460ff1916905551339286917ff6391f5c32d9c69d2a47ea670b442974b53935d1edc7fd64eb21e047a839171b9190a4505050565b600080600061190985856119fb565b9150915061191681611a6b565b509392505050565b60606001600160a01b0384163b6119865760405162461bcd60e51b815260206004820152602660248201527f416464726573733a2064656c65676174652063616c6c20746f206e6f6e2d636f6044820152651b9d1c9858dd60d21b60648201526084016106ae565b600080856001600160a01b0316856040516119a191906126a1565b600060405180830381855af49150503d80600081146119dc576040519150601f19603f3d011682016040523d82523d6000602084013e6119e1565b606091505b50915091506119f1828286611c26565b9695505050505050565b600080825160411415611a325760208301516040840151606085015160001a611a2687828585611c5f565b94509450505050611a64565b825160401415611a5c5760208301516040840151611a51868383611d4c565b935093505050611a64565b506000905060025b9250929050565b6000816004811115611a7f57611a7f612721565b1415611a885750565b6001816004811115611a9c57611a9c612721565b1415611aea5760405162461bcd60e51b815260206004820152601860248201527f45434453413a20696e76616c6964207369676e6174757265000000000000000060448201526064016106ae565b6002816004811115611afe57611afe612721565b1415611b4c5760405162461bcd60e51b815260206004820152601f60248201527f45434453413a20696e76616c6964207369676e6174757265206c656e6774680060448201526064016106ae565b6003816004811115611b6057611b60612721565b1415611bb95760405162461bcd60e51b815260206004820152602260248201527f45434453413a20696e76616c6964207369676e6174757265202773272076616c604482015261756560f01b60648201526084016106ae565b6004816004811115611bcd57611bcd612721565b1415610b6d5760405162461bcd60e51b815260206004820152602260248201527f45434453413a20696e76616c6964207369676e6174757265202776272076616c604482015261756560f01b60648201526084016106ae565b60608315611c3557508161074b565b825115611c455782518084602001fd5b8160405162461bcd60e51b81526004016106ae9190612473565b6000807f7fffffffffffffffffffffffffffffff5d576e7357a4501ddfe92f46681b20a0831115611c965750600090506003611d43565b8460ff16601b14158015611cae57508460ff16601c14155b15611cbf5750600090506004611d43565b6040805160008082526020820180845289905260ff881692820192909252606081018690526080810185905260019060a0016020604051602081039080840390855afa158015611d13573d6000803e3d6000fd5b5050604051601f1901519150506001600160a01b038116611d3c57600060019250925050611d43565b9150600090505b94509492505050565b6000806001600160ff1b03831681611d6960ff86901c601b6125c0565b9050611d7787828885611c5f565b935093505050935093915050565b828054611d91906125f1565b90600052602060002090601f016020900481019282611db35760008555611df9565b82601f10611dcc57805160ff1916838001178555611df9565b82800160010185558215611df9579182015b82811115611df9578251825591602001919060010190611dde565b50611e05929150611e09565b5090565b5b80821115611e055760008155600101611e0a565b600060208284031215611e3057600080fd5b81356001600160e01b03198116811461074b57600080fd5b6001600160a01b0381168114610b6d57600080fd5b634e487b7160e01b600052604160045260246000fd5b604051601f8201601f1916810167ffffffffffffffff81118282101715611e9c57611e9c611e5d565b604052919050565b600067ffffffffffffffff831115611ebe57611ebe611e5d565b611ed1601f8401601f1916602001611e73565b9050828152838383011115611ee557600080fd5b828260208301376000602084830101529392505050565b600082601f830112611f0d57600080fd5b61074b83833560208501611ea4565b60008060008060808587031215611f3257600080fd5b8435611f3d81611e48565b93506020850135611f4d81611e48565b925060408501359150606085013567ffffffffffffffff811115611f7057600080fd5b611f7c87828801611efc565b91505092959194509250565b600060208284031215611f9a57600080fd5b5035919050565b60008060408385031215611fb457600080fd5b823591506020830135611fc681611e48565b809150509250929050565b600080600060608486031215611fe657600080fd5b833567ffffffffffffffff811115611ffd57600080fd5b8401610160818703121561201057600080fd5b95602085013595506040909401359392505050565b60008083601f84011261203757600080fd5b50813567ffffffffffffffff81111561204f57600080fd5b6020830191508360208260051b8501011115611a6457600080fd5b6000806000806000806060878903121561208357600080fd5b863567ffffffffffffffff8082111561209b57600080fd5b6120a78a838b01612025565b909850965060208901359150808211156120c057600080fd5b6120cc8a838b01612025565b909650945060408901359150808211156120e557600080fd5b506120f289828a01612025565b979a9699509497509295939492505050565b6000806040838503121561211757600080fd5b823561212281611e48565b946020939093013593505050565b6000806040838503121561214357600080fd5b50508035926020909101359150565b60006020828403121561216457600080fd5b813567ffffffffffffffff81111561217b57600080fd5b8201601f8101841361218c57600080fd5b61219b84823560208401611ea4565b949350505050565b600080602083850312156121b657600080fd5b823567ffffffffffffffff8111156121cd57600080fd5b6121d985828601612025565b90969095509350505050565b60005b838110156122005781810151838201526020016121e8565b83811115610d615750506000910152565b600081518084526122298160208601602086016121e5565b601f01601f19169290920160200192915050565b6000602080830181845280855180835260408601915060408160051b870101925083870160005b8281101561229257603f19888603018452612280858351612211565b94509285019290850190600101612264565b5092979650505050505050565b600080600080606085870312156122b557600080fd5b84356122c081611e48565b935060208501359250604085013567ffffffffffffffff808211156122e457600080fd5b818701915087601f8301126122f857600080fd5b81358181111561230757600080fd5b88602082850101111561231957600080fd5b95989497505060200194505050565b600082601f83011261233957600080fd5b8135602067ffffffffffffffff82111561235557612355611e5d565b8160051b612364828201611e73565b928352848101820192828101908785111561237e57600080fd5b83870192505b8483101561239d57823582529183019190830190612384565b979650505050505050565b600080600080600060a086880312156123c057600080fd5b85356123cb81611e48565b945060208601356123db81611e48565b9350604086013567ffffffffffffffff808211156123f857600080fd5b61240489838a01612328565b9450606088013591508082111561241a57600080fd5b61242689838a01612328565b9350608088013591508082111561243c57600080fd5b5061244988828901611efc565b9150509295509295909350565b60006020828403121561246857600080fd5b813561074b81611e48565b60208152600061074b6020830184612211565b600080600080600060a0868803121561249e57600080fd5b85356124a981611e48565b945060208601356124b981611e48565b93506040860135925060608601359150608086013567ffffffffffffffff8111156124e357600080fd5b61244988828901611efc565b60208082526023908201527f54574163636f756e743a206e6f742061646d696e206f7220456e747279506f69604082015262373a1760e91b606082015260800190565b634e487b7160e01b600052603260045260246000fd5b6000808335601e1984360301811261255f57600080fd5b83018035915067ffffffffffffffff82111561257a57600080fd5b602001915036819003821315611a6457600080fd5b634e487b7160e01b600052601160045260246000fd5b60006000198214156125b9576125b961258f565b5060010190565b600082198211156125d3576125d361258f565b500190565b6000602082840312156125ea57600080fd5b5051919050565b600181811c9082168061260557607f821691505b6020821081141561262657634e487b7160e01b600052602260045260246000fd5b50919050565b7f5065726d697373696f6e733a206163636f756e742000000000000000000000008152600083516126648160158501602088016121e5565b7001034b99036b4b9b9b4b733903937b6329607d1b60159184019182015283516126958160268401602088016121e5565b01602601949350505050565b600082516126b38184602087016121e5565b9190910192915050565b6040815260006126d06040830185612211565b82810360208401526126e28185612211565b95945050505050565b60008160001904831182151516156127055761270561258f565b500290565b6000816127195761271961258f565b506000190190565b634e487b7160e01b600052602160045260246000fdfed0ebebe8e6445c62babf8fef767eb39f1002bb957bb5b83258275a4e46428ed5416464726573733a206c6f772d6c6576656c2064656c65676174652063616c6c206661696c6564a26469706673582212200014c72100a68c0084c11573b2432f284ae7b5a739d3bc6c3ceed02abd1c5eac64736f6c634300080c0033",
    "linkReferences": {}
  },
  "methodIdentifiers": {
    "DEFAULT_ADMIN_ROLE()": "a217fddf",
    "SIGNER_ROLE()": "a1ebf35d",
    "addDeposit()": "4a58db19",
    "contractURI()": "e8a3d485",
    "entryPoint()": "b0d691fe",
    "execute(address,uint256,bytes)": "b61d27f6",
    "executeBatch(address[],uint256[],bytes[])": "47e1da2a",
    "getDeposit()": "c399ec88",
    "getNonce()": "d087d288",
    "getRoleAdmin(bytes32)": "248a9ca3",
    "getRoleMember(bytes32,uint256)": "9010d07c",
    "getRoleMemberCount(bytes32)": "ca15c873",
    "grantRole(bytes32,address)": "2f2ff15d",
    "hasRole(bytes32,address)": "91d14854",
    "hasRoleWithSwitch(bytes32,address)": "a32fa5b3",
    "initialize(address)": "c4d66de8",
    "isValidSigner(address)": "d5f50582",
    "multicall(bytes[])": "ac9650d8",
    "onERC1155BatchReceived(address,address,uint256[],uint256[],bytes)": "bc197c81",
    "onERC1155Received(address,address,uint256,uint256,bytes)": "f23a6e61",
    "onERC721Received(address,address,uint256,bytes)": "150b7a02",
    "renounceRole(bytes32,address)": "36568abe",
    "revokeRole(bytes32,address)": "d547741f",
    "setContractURI(string)": "938e3d7b",
    "supportsInterface(bytes4)": "01ffc9a7",
    "validateUserOp((address,uint256,bytes,bytes,uint256,uint256,uint256,uint256,uint256,bytes,bytes),bytes32,uint256)": "3a871cdd",
    "withdrawDepositTo(address,uint256)": "4d44560d"
  },
  "id": 117
}