{
  "abi": [
    {
      "inputs": [
        {
          "internalType": "contract TWAccountRouter",
          "name": "router",
          "type": "address"
        }
      ],
      "stateMutability": "nonpayable",
      "type": "constructor"
    },
    {
      "anonymous": false,
      "inputs": [
        {
          "indexed": true,
          "internalType": "address",
          "name": "account",
          "type": "address"
        },
        {
          "indexed": false,
          "internalType": "bytes32",
          "name": "salt",
          "type": "bytes32"
        }
      ],
      "name": "AccountCreated",
      "type": "event"
    },
    {
      "inputs": [],
      "name": "accountImplementation",
      "outputs": [
        {
          "internalType": "address",
          "name": "",
          "type": "address"
        }
      ],
      "stateMutability": "view",
      "type": "function"
    },
    {
      "inputs": [
        {
          "internalType": "bytes32",
          "name": "_salt",
          "type": "bytes32"
        },
        {
          "internalType": "bytes",
          "name": "_initData",
          "type": "bytes"
        }
      ],
      "name": "createAccount",
      "outputs": [
        {
          "internalType": "address",
          "name": "account",
          "type": "address"
        }
      ],
      "stateMutability": "nonpayable",
      "type": "function"
    },
    {
      "inputs": [
        {
          "internalType": "bytes32",
          "name": "_salt",
          "type": "bytes32"
        }
      ],
      "name": "getAddress",
      "outputs": [
        {
          "internalType": "address",
          "name": "",
          "type": "address"
        }
      ],
      "stateMutability": "view",
      "type": "function"
    },
    {
      "inputs": [
        {
          "internalType": "bytes[]",
          "name": "data",
          "type": "bytes[]"
        }
      ],
      "name": "multicall",
      "outputs": [
        {
          "internalType": "bytes[]",
          "name": "results",
          "type": "bytes[]"
        }
      ],
      "stateMutability": "nonpayable",
      "type": "function"
    }
  ],
  "bytecode": {
    "object": "0x60a060405234801561001057600080fd5b5060405161092238038061092283398101604081905261002f91610040565b6001600160a01b0316608052610070565b60006020828403121561005257600080fd5b81516001600160a01b038116811461006957600080fd5b9392505050565b60805161088b6100976000396000818160530152818160dd0152610201015261088b6000f3fe608060405234801561001057600080fd5b506004361061004c5760003560e01c806311464fbe1461005157806321f8a72114610090578063ac9650d8146100a3578063f8a59370146100c3575b600080fd5b7f00000000000000000000000000000000000000000000000000000000000000005b6040516001600160a01b0390911681526020015b60405180910390f35b61007361009e366004610555565b6100d6565b6100b66100b136600461056e565b610108565b604051610087919061063f565b6100736100d13660046106a1565b6101fd565b60006101027f000000000000000000000000000000000000000000000000000000000000000083610308565b92915050565b60608167ffffffffffffffff8111156101235761012361071d565b60405190808252806020026020018201604052801561015657816020015b60608152602001906001900390816101415790505b50905060005b828110156101f6576101c63085858481811061017a5761017a610733565b905060200281019061018c9190610749565b8080601f01602080910402602001604051908101604052809392919081815260200183838082843760009201919091525061037592505050565b8282815181106101d8576101d8610733565b602002602001018190525080806101ee90610797565b91505061015c565b5092915050565b60007f000000000000000000000000000000000000000000000000000000000000000061022a818661039a565b9150816001600160a01b03167f8fe66a5d954d6d3e0306797e31e226812a9916895165c96c367ef528076319518660405161026791815260200190565b60405180910390a2821561030057600080836001600160a01b031686866040516102929291906107c0565b6000604051808303816000865af19150503d80600081146102cf576040519150601f19603f3d011682016040523d82523d6000602084013e6102d4565b606091505b50915091506102fc82826040518060600160405280602f8152602001610800602f913961043f565b5050505b509392505050565b600061036e838330604051733d602d80600a3d3981f3363d3d373d3d3d363d7360601b8152606093841b60148201526f5af43d82803e903d91602b57fd5bf3ff60801b6028820152921b6038830152604c8201526037808220606c830152605591012090565b9392505050565b606061036e838360405180606001604052806027815260200161082f60279139610478565b6000604051733d602d80600a3d3981f3363d3d373d3d3d363d7360601b81528360601b60148201526e5af43d82803e903d91602b57fd5bf360881b6028820152826037826000f59150506001600160a01b0381166101025760405162461bcd60e51b815260206004820152601760248201527f455243313136373a2063726561746532206661696c656400000000000000000060448201526064015b60405180910390fd5b6060831561044e57508161036e565b82511561045e5782518084602001fd5b8160405162461bcd60e51b815260040161043691906107d0565b60606001600160a01b0384163b6104e05760405162461bcd60e51b815260206004820152602660248201527f416464726573733a2064656c65676174652063616c6c20746f206e6f6e2d636f6044820152651b9d1c9858dd60d21b6064820152608401610436565b600080856001600160a01b0316856040516104fb91906107e3565b600060405180830381855af49150503d8060008114610536576040519150601f19603f3d011682016040523d82523d6000602084013e61053b565b606091505b509150915061054b82828661043f565b9695505050505050565b60006020828403121561056757600080fd5b5035919050565b6000806020838503121561058157600080fd5b823567ffffffffffffffff8082111561059957600080fd5b818501915085601f8301126105ad57600080fd5b8135818111156105bc57600080fd5b8660208260051b85010111156105d157600080fd5b60209290920196919550909350505050565b60005b838110156105fe5781810151838201526020016105e6565b8381111561060d576000848401525b50505050565b6000815180845261062b8160208601602086016105e3565b601f01601f19169290920160200192915050565b6000602080830181845280855180835260408601915060408160051b870101925083870160005b8281101561069457603f19888603018452610682858351610613565b94509285019290850190600101610666565b5092979650505050505050565b6000806000604084860312156106b657600080fd5b83359250602084013567ffffffffffffffff808211156106d557600080fd5b818601915086601f8301126106e957600080fd5b8135818111156106f857600080fd5b87602082850101111561070a57600080fd5b6020830194508093505050509250925092565b634e487b7160e01b600052604160045260246000fd5b634e487b7160e01b600052603260045260246000fd5b6000808335601e1984360301811261076057600080fd5b83018035915067ffffffffffffffff82111561077b57600080fd5b60200191503681900382131561079057600080fd5b9250929050565b60006000198214156107b957634e487b7160e01b600052601160045260246000fd5b5060010190565b8183823760009101908152919050565b60208152600061036e6020830184610613565b600082516107f58184602087016105e3565b919091019291505056fe54574163636f756e74466163746f72793a206661696c656420746f20696e697469616c697a65206163636f756e742e416464726573733a206c6f772d6c6576656c2064656c65676174652063616c6c206661696c6564a264697066735822122043ff482740d3575faf0437047850ae16a39e296ac0f7221584c39745dfc32e0264736f6c634300080c0033",
    "linkReferences": {}
  },
  "methodIdentifiers": {
    "accountImplementation()": "11464fbe",
    "createAccount(bytes32,bytes)": "f8a59370",
    "getAddress(bytes32)": "21f8a721",
    "multicall(bytes[])": "ac9650d8"
  },
  "id": 275
}