{
  "abi": [
    {
      "inputs": [
        {
          "internalType": "contract IEntryPoint",
          "name": "_entrypoint",
          "type": "address"
        }
      ],
      "stateMutability": "nonpayable",
      "type": "constructor"
    },
    {
      "anonymous": false,
      "inputs": [
        {
          "indexed": true,
          "internalType": "address",
          "name": "account",
          "type": "address"
        },
        {
          "indexed": true,
          "internalType": "address",
          "name": "accountAdmin",
          "type": "address"
        }
      ],
      "name": "AccountCreated",
      "type": "event"
    },
    {
      "inputs": [],
      "name": "accountImplementation",
      "outputs": [
        {
          "internalType": "address",
          "name": "",
          "type": "address"
        }
      ],
      "stateMutability": "view",
      "type": "function"
    },
    {
      "inputs": [
        {
          "internalType": "address",
          "name": "_admin",
          "type": "address"
        },
        {
          "internalType": "bytes32",
          "name": "_salt",
          "type": "bytes32"
        }
      ],
      "name": "createAccount",
      "outputs": [
        {
          "internalType": "address",
          "name": "",
          "type": "address"
        }
      ],
      "stateMutability": "nonpayable",
      "type": "function"
    },
    {
      "inputs": [
        {
          "internalType": "bytes32",
          "name": "_salt",
          "type": "bytes32"
        }
      ],
      "name": "getAddress",
      "outputs": [
        {
          "internalType": "address",
          "name": "",
          "type": "address"
        }
      ],
      "stateMutability": "view",
      "type": "function"
    },
    {
      "inputs": [
        {
          "internalType": "bytes[]",
          "name": "data",
          "type": "bytes[]"
        }
      ],
      "name": "multicall",
      "outputs": [
        {
          "internalType": "bytes[]",
          "name": "results",
          "type": "bytes[]"
        }
      ],
      "stateMutability": "nonpayable",
      "type": "function"
    }
  ],
  "bytecode": {
    "object": "0x60a060405234801561001057600080fd5b5060405161549538038061549583398101604081905261002f91610088565b8060405161003c9061007b565b6001600160a01b039091168152602001604051809103906000f080158015610068573d6000803e3d6000fd5b506001600160a01b0316608052506100b8565b614bc7806108ce83390190565b60006020828403121561009a57600080fd5b81516001600160a01b03811681146100b157600080fd5b9392505050565b6080516107ef6100df6000396000818160530152818160dd015261020101526107ef6000f3fe608060405234801561001057600080fd5b506004361061004c5760003560e01c806311464fbe1461005157806321f8a72114610090578063ac9650d8146100a3578063f14ddffc146100c3575b600080fd5b7f00000000000000000000000000000000000000000000000000000000000000005b6040516001600160a01b0390911681526020015b60405180910390f35b61007361009e36600461053c565b6100d6565b6100b66100b1366004610555565b610108565b6040516100879190610626565b6100736100d1366004610688565b6101fd565b60006101027f0000000000000000000000000000000000000000000000000000000000000000836102ef565b92915050565b60608167ffffffffffffffff811115610123576101236106c0565b60405190808252806020026020018201604052801561015657816020015b60608152602001906001900390816101415790505b50905060005b828110156101f6576101c63085858481811061017a5761017a6106d6565b905060200281019061018c91906106ec565b8080601f01602080910402602001604051908101604052809392919081815260200183838082843760009201919091525061035c92505050565b8282815181106101d8576101d86106d6565b602002602001018190525080806101ee9061073a565b91505061015c565b5092915050565b60007f00000000000000000000000000000000000000000000000000000000000000008161022b82856102ef565b90506001600160a01b0381163b156102465791506101029050565b6102508285610381565b60405163189acdbd60e31b81526001600160a01b0387811660048301529192509082169063c4d66de890602401600060405180830381600087803b15801561029757600080fd5b505af11580156102ab573d6000803e3d6000fd5b50506040516001600160a01b038089169350841691507fac631f3001b55ea1509cf3d7e74898f85392a61a76e8149181ae1259622dabc890600090a3949350505050565b6000610355838330604051733d602d80600a3d3981f3363d3d373d3d3d363d7360601b8152606093841b60148201526f5af43d82803e903d91602b57fd5bf3ff60801b6028820152921b6038830152604c8201526037808220606c830152605591012090565b9392505050565b6060610355838360405180606001604052806027815260200161079360279139610426565b6000604051733d602d80600a3d3981f3363d3d373d3d3d363d7360601b81528360601b60148201526e5af43d82803e903d91602b57fd5bf360881b6028820152826037826000f59150506001600160a01b0381166101025760405162461bcd60e51b815260206004820152601760248201527f455243313136373a2063726561746532206661696c656400000000000000000060448201526064015b60405180910390fd5b60606001600160a01b0384163b61048e5760405162461bcd60e51b815260206004820152602660248201527f416464726573733a2064656c65676174652063616c6c20746f206e6f6e2d636f6044820152651b9d1c9858dd60d21b606482015260840161041d565b600080856001600160a01b0316856040516104a99190610763565b600060405180830381855af49150503d80600081146104e4576040519150601f19603f3d011682016040523d82523d6000602084013e6104e9565b606091505b50915091506104f9828286610503565b9695505050505050565b60608315610512575081610355565b8251156105225782518084602001fd5b8160405162461bcd60e51b815260040161041d919061077f565b60006020828403121561054e57600080fd5b5035919050565b6000806020838503121561056857600080fd5b823567ffffffffffffffff8082111561058057600080fd5b818501915085601f83011261059457600080fd5b8135818111156105a357600080fd5b8660208260051b85010111156105b857600080fd5b60209290920196919550909350505050565b60005b838110156105e55781810151838201526020016105cd565b838111156105f4576000848401525b50505050565b600081518084526106128160208601602086016105ca565b601f01601f19169290920160200192915050565b6000602080830181845280855180835260408601915060408160051b870101925083870160005b8281101561067b57603f198886030184526106698583516105fa565b9450928501929085019060010161064d565b5092979650505050505050565b6000806040838503121561069b57600080fd5b82356001600160a01b03811681146106b257600080fd5b946020939093013593505050565b634e487b7160e01b600052604160045260246000fd5b634e487b7160e01b600052603260045260246000fd5b6000808335601e1984360301811261070357600080fd5b83018035915067ffffffffffffffff82111561071e57600080fd5b60200191503681900382131561073357600080fd5b9250929050565b600060001982141561075c57634e487b7160e01b600052601160045260246000fd5b5060010190565b600082516107758184602087016105ca565b9190910192915050565b60208152600061035560208301846105fa56fe416464726573733a206c6f772d6c6576656c2064656c65676174652063616c6c206661696c6564a2646970667358221220ca420214ad5043d0bbe0e76dab251ee77999f5a45b8ad6736b956516fbc7c7ba64736f6c634300080c003360a06040523480156200001157600080fd5b5060405162004bc738038062004bc7833981016040819052620000349162000046565b6001600160a01b031660805262000078565b6000602082840312156200005957600080fd5b81516001600160a01b03811681146200007157600080fd5b9392505050565b608051614b09620000be600039600081816105b801528181610bef015281816110c401528181611150015281816114dd015281816118440152611d7b0152614b096000f3fe60806040526004361061021e5760003560e01c8063a32fa5b311610123578063c54c07e1116100ab578063e05688fe1161006f578063e05688fe1461072a578063e157be9f1461074a578063e8a3d4851461077e578063ee7d2adf146107a0578063f23a6e61146107c057610225565b8063c54c07e11461068a578063ca15c873146106aa578063ce0b6013146106ca578063d547741f146106ea578063d5f505821461070a57610225565b8063b61d27f6116100f2578063b61d27f6146105dc578063bc197c81146105fc578063c22707ee14610628578063c399ec8814610655578063c4d66de81461066a57610225565b8063a32fa5b314610528578063ac9650d814610548578063affed0e014610575578063b0d691fe146105a957610225565b80634a00cc48116101a65780639010d07c116101755780639010d07c1461047f57806391d148541461049f578063938e3d7b146104bf578063a1ebf35d146104df578063a217fddf1461051357610225565b80634a00cc48146103fd5780634a58db191461041f5780634d44560d146104275780637c3b11371461044757610225565b8063248a9ca3116101ed578063248a9ca3146103215780632f2ff15d1461037b57806336568abe1461039d5780633a871cdd146103bd57806347e1da2a146103dd57610225565b8063012b87291461024a57806301ffc9a714610280578063150b7a02146102b0578063212f6912146102f457610225565b3661022557005b600061023c6000356001600160e01b0319166107ec565b905061024781610801565b50005b34801561025657600080fd5b5061026a610265366004613d1f565b61082a565b6040516102779190613db3565b60405180910390f35b34801561028c57600080fd5b506102a061029b366004613e4e565b61083f565b6040519015158152602001610277565b3480156102bc57600080fd5b506102db6102cb366004613e7e565b630a85bd0160e11b949350505050565b6040516001600160e01b03199091168152602001610277565b34801561030057600080fd5b5061031461030f366004613e4e565b6108c7565b6040516102779190613f37565b34801561032d57600080fd5b5061036d61033c366004613f4a565b60009081527fd0ebebe8e6445c62babf8fef767eb39f1002bb957bb5b83258275a4e46428ed6602052604090205490565b604051908152602001610277565b34801561038757600080fd5b5061039b610396366004613f63565b610a72565b005b3480156103a957600080fd5b5061039b6103b8366004613f63565b610b3a565b3480156103c957600080fd5b5061036d6103d8366004613f93565b610ba0565b3480156103e957600080fd5b5061039b6103f836600461402a565b610be4565b34801561040957600080fd5b50610412610d5e565b6040516102779190614159565b61039b6110c2565b34801561043357600080fd5b5061039b6104423660046141bb565b611142565b34801561045357600080fd5b50610467610462366004613d1f565b6111cf565b6040516001600160a01b039091168152602001610277565b34801561048b57600080fd5b5061046761049a3660046141e7565b6111e5565b3480156104ab57600080fd5b506102a06104ba366004613f63565b6112f3565b3480156104cb57600080fd5b5061039b6104da366004613d1f565b61132b565b3480156104eb57600080fd5b5061036d7fe2f4eaae4a9751e85a3e4a7b9587827a877f29914755229b07a7b2da98285f7081565b34801561051f57600080fd5b5061036d600081565b34801561053457600080fd5b506102a0610543366004613f63565b61137c565b34801561055457600080fd5b50610568610563366004614209565b6113de565b604051610277919061424a565b34801561058157600080fd5b507f6f265e404054a781955e6f16f70e749f59f16f06413e507cab627ce5381a9e335461036d565b3480156105b557600080fd5b507f0000000000000000000000000000000000000000000000000000000000000000610467565b3480156105e857600080fd5b5061039b6105f736600461429f565b6114d2565b34801561060857600080fd5b506102db6106173660046143b5565b63bc197c8160e01b95945050505050565b34801561063457600080fd5b50610648610643366004613d1f565b611572565b6040516102779190614462565b34801561066157600080fd5b5061036d611840565b34801561067657600080fd5b5061039b610685366004614475565b6118d2565b34801561069657600080fd5b5061039b6106a536600461455a565b6119e3565b3480156106b657600080fd5b5061036d6106c5366004613f4a565b611a10565b3480156106d657600080fd5b506104676106e5366004613e4e565b6107ec565b3480156106f657600080fd5b5061039b610705366004613f63565b611ab9565b34801561071657600080fd5b506102a0610725366004614475565b611b0b565b34801561073657600080fd5b5061039b61074536600461455a565b611b48565b34801561075657600080fd5b5061036d7ff241310a63b2e1a495f33bb9814fb4b4aed6e04a10982f7afecd61fc37756b0d81565b34801561078a57600080fd5b50610793611b75565b6040516102779190614651565b3480156107ac57600080fd5b5061039b6107bb366004613d1f565b611c2b565b3480156107cc57600080fd5b506102db6107db366004614664565b63f23a6e6160e01b95945050505050565b60006107f7826108c7565b6040015192915050565b3660008037600080366000845af43d6000803e808015610820573d6000f35b3d6000fd5b505050565b606061083582611572565b6020015192915050565b60006001600160e01b0319821663032d9e9760e61b148061087057506001600160e01b0319821663ce0b601360e01b145b8061088b57506001600160e01b03198216630271189760e51b145b806108a657506001600160e01b03198216630a85bd0160e11b145b806108c1575063032d9e9760e61b6001600160e01b03198316145b92915050565b6040805160608082018352808252602080830182905260008385018190526001600160e01b0319861681527f1a039940024227c284ceea7ab90e5603ce17de27c93816eef22d65b14ee00876909152839020835191820190935282549192600080516020614a6d8339815191529282908290610942906146cc565b80601f016020809104026020016040519081016040528092919081815260200182805461096e906146cc565b80156109bb5780601f10610990576101008083540402835291602001916109bb565b820191906000526020600020905b81548152906001019060200180831161099e57829003601f168201915b505050505081526020016001820180546109d4906146cc565b80601f0160208091040260200160405190810160405280929190818152602001828054610a00906146cc565b8015610a4d5780601f10610a2257610100808354040283529160200191610a4d565b820191906000526020600020905b815481529060010190602001808311610a3057829003601f168201915b5050509183525050600291909101546001600160a01b03166020909101529392505050565b60008281527fd0ebebe8e6445c62babf8fef767eb39f1002bb957bb5b83258275a4e46428ed66020526040902054600080516020614a8d83398151915290610aba9033611c58565b6000838152602082815260408083206001600160a01b038616845290915290205460ff1615610b305760405162461bcd60e51b815260206004820152601d60248201527f43616e206f6e6c79206772616e7420746f206e6f6e20686f6c6465727300000060448201526064015b60405180910390fd5b6108258383611ce6565b336001600160a01b03821614610b925760405162461bcd60e51b815260206004820152601a60248201527f43616e206f6e6c792072656e6f756e636520666f722073656c660000000000006044820152606401610b27565b610b9c8282611cfa565b5050565b6000610baa611d70565b610bb48484611dea565b9050610bc36040850185614707565b15159050610bd457610bd484611f2e565b610bdd82611fc1565b9392505050565b336001600160a01b037f0000000000000000000000000000000000000000000000000000000000000000161480610c215750610c216000336112f3565b610c3d5760405162461bcd60e51b8152600401610b279061474d565b8481148015610c4b57508483145b610c975760405162461bcd60e51b815260206004820152601f60248201527f54574163636f756e743a2077726f6e67206172726179206c656e677468732e006044820152606401610b27565b60005b85811015610d5557610d43878783818110610cb757610cb7614790565b9050602002016020810190610ccc9190614475565b868684818110610cde57610cde614790565b90506020020135858585818110610cf757610cf7614790565b9050602002810190610d099190614707565b8080601f01602080910402602001604051908101604052809392919081815260200183838082843760009201919091525061200e92505050565b80610d4d816147bc565b915050610c9a565b50505050505050565b6060600080516020614a6d8339815191526000610d7a8261207e565b8051909150806001600160401b03811115610d9757610d97613c20565b604051908082528060200260200182016040528015610df157816020015b6040805160a08101825260609181018281528282018390526000608083015281526020810191909152815260200190600190039081610db55790505b50935060005b818110156110bb5783600201838281518110610e1557610e15614790565b6020026020010151604051610e2a91906147d7565b9081526040805191829003602001822060a08301825280549091839190820190839082908290610e59906146cc565b80601f0160208091040260200160405190810160405280929190818152602001828054610e85906146cc565b8015610ed25780601f10610ea757610100808354040283529160200191610ed2565b820191906000526020600020905b815481529060010190602001808311610eb557829003601f168201915b50505050508152602001600182018054610eeb906146cc565b80601f0160208091040260200160405190810160405280929190818152602001828054610f17906146cc565b8015610f645780601f10610f3957610100808354040283529160200191610f64565b820191906000526020600020905b815481529060010190602001808311610f4757829003601f168201915b5050509183525050600291909101546001600160a01b03166020918201529082526003830180546040805182850281018501909152818152938301939260009084015b828210156110845760008481526020908190206040805180820190915260028502909101805460e01b6001600160e01b03191682526001810180549293919291840191610ff3906146cc565b80601f016020809104026020016040519081016040528092919081815260200182805461101f906146cc565b801561106c5780601f106110415761010080835404028352916020019161106c565b820191906000526020600020905b81548152906001019060200180831161104f57829003601f168201915b50505050508152505081526020019060010190610fa7565b505050508152505085828151811061109e5761109e614790565b60209081029190910101526110b46001826147f3565b9050610df7565b5050505090565b7f000000000000000000000000000000000000000000000000000000000000000060405163b760faf960e01b81523060048201526001600160a01b03919091169063b760faf99034906024016000604051808303818588803b15801561112757600080fd5b505af115801561113b573d6000803e3d6000fd5b5050505050565b600061114e8133611c58565b7f000000000000000000000000000000000000000000000000000000000000000060405163040b850f60e31b81526001600160a01b03858116600483015260248201859052919091169063205c287890604401600060405180830381600087803b1580156111bb57600080fd5b505af1158015610d55573d6000803e3d6000fd5b60006111da82611572565b516040015192915050565b60008281527f0c4ba382c0009cf238e4c1ca1a52f51c61e6248a70bdfb34e5ed49d5578a5c0c6020819052604082205482805b828110156112e9576000878152602085815260408083208484526001019091529020546001600160a01b0316156112945785821415611282576000878152602094855260408082209282526001909201909452909220546001600160a01b031692506108c1915050565b61128d6001836147f3565b91506112d7565b61129f8760006112f3565b80156112c4575060008781526020858152604080832083805260020190915290205481145b156112d7576112d46001836147f3565b91505b6112e26001826147f3565b9050611218565b5050505092915050565b6000918252600080516020614a8d833981519152602090815260408084206001600160a01b0393909316845291905290205460ff1690565b611333612089565b6113705760405162461bcd60e51b815260206004820152600e60248201526d139bdd08185d5d1a1bdc9a5e995960921b6044820152606401610b27565b61137981612095565b50565b6000828152600080516020614a8d8339815191526020818152604080842084805290915282205460ff166113d4576000848152602091825260408082206001600160a01b0386168352909252205460ff1690506108c1565b5060019392505050565b6060816001600160401b038111156113f8576113f8613c20565b60405190808252806020026020018201604052801561142b57816020015b60608152602001906001900390816114165790505b50905060005b828110156114cb5761149b3085858481811061144f5761144f614790565b90506020028101906114619190614707565b8080601f01602080910402602001604051908101604052809392919081815260200183838082843760009201919091525061219992505050565b8282815181106114ad576114ad614790565b602002602001018190525080806114c3906147bc565b915050611431565b5092915050565b336001600160a01b037f000000000000000000000000000000000000000000000000000000000000000016148061150f575061150f6000336112f3565b61152b5760405162461bcd60e51b8152600401610b279061474d565b61156c848484848080601f01602080910402602001604051908101604052809392919081815260200183838082843760009201919091525061200e92505050565b50505050565b6040805160a081018252606081830181815281830182905260006080840152825260208201529051600080516020614a6d833981519152907f1a039940024227c284ceea7ab90e5603ce17de27c93816eef22d65b14ee00875906115d79085906147d7565b9081526040805191829003602001822060a08301825280549091839190820190839082908290611606906146cc565b80601f0160208091040260200160405190810160405280929190818152602001828054611632906146cc565b801561167f5780601f106116545761010080835404028352916020019161167f565b820191906000526020600020905b81548152906001019060200180831161166257829003601f168201915b50505050508152602001600182018054611698906146cc565b80601f01602080910402602001604051908101604052809291908181526020018280546116c4906146cc565b80156117115780601f106116e657610100808354040283529160200191611711565b820191906000526020600020905b8154815290600101906020018083116116f457829003601f168201915b5050509183525050600291909101546001600160a01b03166020918201529082526003830180546040805182850281018501909152818152938301939260009084015b828210156118315760008481526020908190206040805180820190915260028502909101805460e01b6001600160e01b031916825260018101805492939192918401916117a0906146cc565b80601f01602080910402602001604051908101604052809291908181526020018280546117cc906146cc565b80156118195780601f106117ee57610100808354040283529160200191611819565b820191906000526020600020905b8154815290600101906020018083116117fc57829003601f168201915b50505050508152505081526020019060010190611754565b50505091525090949350505050565b60007f00000000000000000000000000000000000000000000000000000000000000006040516370a0823160e01b81523060048201526001600160a01b0391909116906370a0823190602401602060405180830381865afa1580156118a9573d6000803e3d6000fd5b505050506040513d601f19601f820116820180604052508101906118cd919061480b565b905090565b7f627d6cbb4eb558f37de3c2ec08b04710e54e06be936a302f087f7bfb80f39ae0805460ff808216916101009004168015808015611913575060018360ff16105b8061192b5750303b15801561192b57508260ff166001145b6119475760405162461bcd60e51b8152600401610b2790614824565b835460ff19166001178455801561196657835461ff0019166101001784555b6119907ff241310a63b2e1a495f33bb9814fb4b4aed6e04a10982f7afecd61fc37756b0d86611ce6565b611999856121be565b801561113b57835461ff0019168455604051600181527f7f26b83ff96e1f2b6a682f133852f6798a09c465da95921460cefb38474024989060200160405180910390a15050505050565b6119eb61225d565b611a075760405162461bcd60e51b8152600401610b2790614872565b61137981612289565b60008181527f0c4ba382c0009cf238e4c1ca1a52f51c61e6248a70bdfb34e5ed49d5578a5c0c60208190526040822054825b81811015611a93576000858152602084815260408083208484526001019091529020546001600160a01b031615611a8157611a7e6001856147f3565b93505b611a8c6001826147f3565b9050611a42565b50611a9f8460006112f3565b15611ab257611aaf6001846147f3565b92505b5050919050565b60008281527fd0ebebe8e6445c62babf8fef767eb39f1002bb957bb5b83258275a4e46428ed66020526040902054600080516020614a8d83398151915290611b019033611c58565b6108258383611cfa565b6000611b377fe2f4eaae4a9751e85a3e4a7b9587827a877f29914755229b07a7b2da98285f70836112f3565b806108c157506108c16000836112f3565b611b5061225d565b611b6c5760405162461bcd60e51b8152600401610b2790614872565b61137981612856565b7fa7d40346e44ca145e94a946aa34a7d4a67245577dc18699a626fe0ffc6ce32818054606091908190611ba7906146cc565b80601f0160208091040260200160405190810160405280929190818152602001828054611bd3906146cc565b8015611c205780601f10611bf557610100808354040283529160200191611c20565b820191906000526020600020905b815481529060010190602001808311611c0357829003601f168201915b505050505091505090565b611c3361225d565b611c4f5760405162461bcd60e51b8152600401610b2790614872565b61137981612d12565b6000828152600080516020614a8d833981519152602081815260408084206001600160a01b03861685529091529091205460ff1661082557611ca4826001600160a01b03166014613017565b611caf846020613017565b604051602001611cc09291906148b4565b60408051601f198184030181529082905262461bcd60e51b8252610b2791600401614651565b611cf082826131b2565b610b9c828261321c565b611d0482826132aa565b60008281527f0c4ba382c0009cf238e4c1ca1a52f51c61e6248a70bdfb34e5ed49d5578a5c0c602090815260408083206001600160a01b03851680855260028201808552838620805487526001909301855292852080546001600160a01b031916905584529152555050565b336001600160a01b037f00000000000000000000000000000000000000000000000000000000000000001614611de85760405162461bcd60e51b815260206004820152601c60248201527f6163636f756e743a206e6f742066726f6d20456e747279506f696e74000000006044820152606401610b27565b565b60007fa7ccc54391ad205b5bf1c1d4cf4d299360028d13109f7ac4de775e094daee01a82604051611e1d91815260200190565b60405180910390a16000611e7e836040517f19457468657265756d205369676e6564204d6573736167653a0a3332000000006020820152603c8101829052600090605c01604051602081830303815290604052805190602001209050919050565b90507f2a06a035e7b559c24a267b48441e225b7799813ef5ec642c974189cd568ae7b481604051611eb191815260200190565b60405180910390a16000611f09611ecc610140870187614707565b8080601f016020809104026020016040519081016040528093929190818152602001838380828437600092019190915250869392505061331a9050565b9050611f1481611b0b565b611f23576001925050506108c1565b506000949350505050565b7f6f265e404054a781955e6f16f70e749f59f16f06413e507cab627ce5381a9e338054602083013514611fa35760405162461bcd60e51b815260206004820152601860248201527f54574163636f756e743a20696e76616c6964206e6f6e636500000000000000006044820152606401610b27565b6001816000016000828254611fb891906147f3565b90915550505050565b801561137957604051600090339060001990849084818181858888f193505050503d806000811461113b576040519150601f19603f3d011682016040523d82523d6000602084013e61113b565b600080846001600160a01b0316848460405161202a91906147d7565b60006040518083038185875af1925050503d8060008114612067576040519150601f19603f3d011682016040523d82523d6000602084013e61206c565b606091505b50915091508161113b57805160208201fd5b60606108c18261333e565b60006118cd81336112f3565b7fa7d40346e44ca145e94a946aa34a7d4a67245577dc18699a626fe0ffc6ce3281805460009082906120c6906146cc565b80601f01602080910402602001604051908101604052809291908181526020018280546120f2906146cc565b801561213f5780601f106121145761010080835404028352916020019161213f565b820191906000526020600020905b81548152906001019060200180831161212257829003601f168201915b5050865193945061215a938693506020880192509050613b05565b507fc9c7c3fe08b88b4df9d4d47ef47d2c43d55c025a0ba88ca442580ed9e7348a16818460405161218c929190614929565b60405180910390a1505050565b6060610bdd8383604051806060016040528060278152602001614aad6027913961341b565b7f627d6cbb4eb558f37de3c2ec08b04710e54e06be936a302f087f7bfb80f39ae0805460ff8082169161010090041680158080156121ff575060018360ff16105b806122175750303b15801561221757508260ff166001145b6122335760405162461bcd60e51b8152600401610b2790614824565b835460ff19166001178455801561225257835461ff0019166101001784555b611999600086611ce6565b60006118cd7ff241310a63b2e1a495f33bb9814fb4b4aed6e04a10982f7afecd61fc37756b0d336112f3565b805151600080516020614a6d833981519152906122a682826134f8565b6122c25760405162461bcd60e51b8152600401610b2790614957565b600082600201826040516122d691906147d7565b9081526040805191829003602001909120600201548551909101516001600160a01b039182169250168114156123605760405162461bcd60e51b815260206004820152602960248201527f457874656e73696f6e53746174653a2072652d616464696e672073616d6520656044820152683c3a32b739b4b7b71760b91b6064820152608401610b27565b835160405160028501906123759085906147d7565b9081526040516020918190038201902082518051919261239a92849290910190613b05565b5060208281015180516123b39260018501920190613b05565b50604091820151600291820180546001600160a01b0319166001600160a01b0390921691909117905590516000918501906123ef9085906147d7565b9081526020016040518091039020600301805480602002602001604051908101604052809291908181526020016000905b828210156124fd5760008481526020908190206040805180820190915260028502909101805460e01b6001600160e01b0319168252600181018054929391929184019161246c906146cc565b80601f0160208091040260200160405190810160405280929190818152602001828054612498906146cc565b80156124e55780601f106124ba576101008083540402835291602001916124e5565b820191906000526020600020905b8154815290600101906020018083116124c857829003601f168201915b50505050508152505081526020019060010190612420565b505050509050600081519050846002018460405161251b91906147d7565b908152602001604051809103902060030160006125389190613b89565b60005b818110156125bf5785600301600084838151811061255b5761255b614790565b602090810291909101810151516001600160e01b031916825281019190915260400160009081209061258d8282613baa565b61259b600183016000613baa565b5060020180546001600160a01b03191690556125b86001826147f3565b905061253b565b5060208601515160005b8181101561284c57876020015181815181106125e7576125e7614790565b60200260200101516020015160405160200161260391906147d7565b604051602081830303815290604052805190602001206001600160e01b0319168860200151828151811061263957612639614790565b6020026020010151600001516001600160e01b0319161461266c5760405162461bcd60e51b8152600401610b27906149a0565b87600001518760030160008a60200151848151811061268d5761268d614790565b602090810291909101810151516001600160e01b0319168252818101929092526040016000208251805191926126c892849290910190613b05565b5060208281015180516126e19260018501920190613b05565b50604091820151600291820180546001600160a01b0319166001600160a01b0390921691909117905590519088019061271b9088906147d7565b90815260200160405180910390206003018860200151828151811061274257612742614790565b6020908102919091018101518254600180820185556000948552938390208251600290920201805463ffffffff191660e09290921c919091178155818301518051929491936127979392850192910190613b05565b505050876020015181815181106127b0576127b0614790565b6020026020010151600001516001600160e01b0319168860000151604001516001600160a01b0316866001600160a01b03167f7f4649aa14a7e9abd7f21a02ea35b32c907d59bb701c52c0e028ddf57533c74c8b60200151858151811061281957612819614790565b6020026020010151602001516040516128329190614651565b60405180910390a46128456001826147f3565b90506125c9565b5050505050505050565b805151600080516020614a6d833981519152906128738282613504565b6128d15760405162461bcd60e51b815260206004820152602960248201527f457874656e73696f6e53746174653a20657874656e73696f6e20616c726561646044820152683c9032bc34b9ba399760b91b6064820152608401610b27565b825160405160028401906128e69084906147d7565b9081526040516020918190038201902082518051919261290b92849290910190613b05565b5060208281015180516129249260018501920190613b05565b5060409182015160029190910180546001600160a01b0319166001600160a01b03928316179055845190910151166129c45760405162461bcd60e51b815260206004820152603860248201527f457874656e73696f6e53746174653a20616464696e6720657874656e73696f6e60448201527f20776974686f757420696d706c656d656e746174696f6e2e00000000000000006064820152608401610b27565b60208301515160005b8181101561113b57846020015181815181106129eb576129eb614790565b602002602001015160200151604051602001612a0791906147d7565b604051602081830303815290604052805190602001206001600160e01b03191685602001518281518110612a3d57612a3d614790565b6020026020010151600001516001600160e01b03191614612a705760405162461bcd60e51b8152600401610b27906149a0565b60006001600160a01b031684600301600087602001518481518110612a9757612a97614790565b602090810291909101810151516001600160e01b0319168252810191909152604001600020600201546001600160a01b031614612b3c5760405162461bcd60e51b815260206004820152603660248201527f457874656e73696f6e53746174653a20657874656e73696f6e20616c7265616460448201527f792065786973747320666f722066756e6374696f6e2e000000000000000000006064820152608401610b27565b846000015184600301600087602001518481518110612b5d57612b5d614790565b602090810291909101810151516001600160e01b031916825281810192909252604001600020825180519192612b9892849290910190613b05565b506020828101518051612bb19260018501920190613b05565b50604091820151600291820180546001600160a01b0319166001600160a01b03909216919091179055905190850190612beb9085906147d7565b908152602001604051809103902060030185602001518281518110612c1257612c12614790565b6020908102919091018101518254600180820185556000948552938390208251600290920201805463ffffffff191660e09290921c91909117815581830151805192949193612c679392850192910190613b05565b50505084602001518181518110612c8057612c80614790565b6020026020010151600001516001600160e01b0319168560000151604001516001600160a01b03167fb5a3e9571e367979a4a14de42b248d0837c26fd8e879846062abcf7cee17127387602001518481518110612cdf57612cdf614790565b602002602001015160200151604051612cf89190614651565b60405180910390a3612d0b6001826147f3565b90506129cd565b600080516020614a6d833981519152612d2b8183613510565b612d475760405162461bcd60e51b8152600401610b2790614957565b60008160020183604051612d5b91906147d7565b9081526040519081900360200181206002908101546001600160a01b0316925060009190840190612d8d9086906147d7565b9081526020016040518091039020600301805480602002602001604051908101604052809291908181526020016000905b82821015612e9b5760008481526020908190206040805180820190915260028502909101805460e01b6001600160e01b03191682526001810180549293919291840191612e0a906146cc565b80601f0160208091040260200160405190810160405280929190818152602001828054612e36906146cc565b8015612e835780601f10612e5857610100808354040283529160200191612e83565b820191906000526020600020905b815481529060010190602001808311612e6657829003601f168201915b50505050508152505081526020019060010190612dbe565b5050505090508260020184604051612eb391906147d7565b90815260405190819003602001902060008181612ed08282613baa565b612ede600183016000613baa565b5060020180546001600160a01b0319169055612efe600383016000613b89565b5050805160005b8181101561300f57828181518110612f1f57612f1f614790565b6020026020010151600001516001600160e01b031916846001600160a01b03167f5968261591c9d57680edfe0bed3bb6a37ab7fb354578affd1e5be8ce18e6c9d3858481518110612f7257612f72614790565b602002602001015160200151604051612f8b9190614651565b60405180910390a3846003016000848381518110612fab57612fab614790565b602090810291909101810151516001600160e01b0319168252810191909152604001600090812090612fdd8282613baa565b612feb600183016000613baa565b5060020180546001600160a01b03191690556130086001826147f3565b9050612f05565b505050505050565b606060006130268360026149f3565b6130319060026147f3565b6001600160401b0381111561304857613048613c20565b6040519080825280601f01601f191660200182016040528015613072576020820181803683370190505b509050600360fc1b8160008151811061308d5761308d614790565b60200101906001600160f81b031916908160001a905350600f60fb1b816001815181106130bc576130bc614790565b60200101906001600160f81b031916908160001a90535060006130e08460026149f3565b6130eb9060016147f3565b90505b6001811115613163576f181899199a1a9b1b9c1cb0b131b232b360811b85600f166010811061311f5761311f614790565b1a60f81b82828151811061313557613135614790565b60200101906001600160f81b031916908160001a90535060049490941c9361315c81614a12565b90506130ee565b508315610bdd5760405162461bcd60e51b815260206004820181905260248201527f537472696e67733a20686578206c656e67746820696e73756666696369656e746044820152606401610b27565b6000828152600080516020614a8d833981519152602081815260408084206001600160a01b0386168086529252808420805460ff19166001179055519192339286917f2f8788117e7eff1d82e926ec794901d17c78024a50270940304540a733656f0d91a4505050565b60008281527f0c4ba382c0009cf238e4c1ca1a52f51c61e6248a70bdfb34e5ed49d5578a5c0c602081905260408220805491926001919061325d83856147f3565b909155505060009384526020918252604080852082865260018101845281862080546001600160a01b039096166001600160a01b0319909616861790559385526002909301909152912055565b600080516020614a8d8339815191526132c38383611c58565b6000838152602082815260408083206001600160a01b0386168085529252808320805460ff1916905551339286917ff6391f5c32d9c69d2a47ea670b442974b53935d1edc7fd64eb21e047a839171b9190a4505050565b6000806000613329858561351c565b915091506133368161358c565b509392505050565b606081600001805480602002602001604051908101604052809291908181526020016000905b82821015613410578382906000526020600020018054613383906146cc565b80601f01602080910402602001604051908101604052809291908181526020018280546133af906146cc565b80156133fc5780601f106133d1576101008083540402835291602001916133fc565b820191906000526020600020905b8154815290600101906020018083116133df57829003601f168201915b505050505081526020019060010190613364565b505050509050919050565b60606001600160a01b0384163b6134835760405162461bcd60e51b815260206004820152602660248201527f416464726573733a2064656c65676174652063616c6c20746f206e6f6e2d636f6044820152651b9d1c9858dd60d21b6064820152608401610b27565b600080856001600160a01b03168560405161349e91906147d7565b600060405180830381855af49150503d80600081146134d9576040519150601f19603f3d011682016040523d82523d6000602084013e6134de565b606091505b50915091506134ee828286613747565b9695505050505050565b6000610bdd8383613780565b6000610bdd83836137ad565b6000610bdd8383613819565b6000808251604114156135535760208301516040840151606085015160001a613547878285856139df565b94509450505050613585565b82516040141561357d5760208301516040840151613572868383613acc565b935093505050613585565b506000905060025b9250929050565b60008160048111156135a0576135a0614a29565b14156135a95750565b60018160048111156135bd576135bd614a29565b141561360b5760405162461bcd60e51b815260206004820152601860248201527f45434453413a20696e76616c6964207369676e617475726500000000000000006044820152606401610b27565b600281600481111561361f5761361f614a29565b141561366d5760405162461bcd60e51b815260206004820152601f60248201527f45434453413a20696e76616c6964207369676e6174757265206c656e677468006044820152606401610b27565b600381600481111561368157613681614a29565b14156136da5760405162461bcd60e51b815260206004820152602260248201527f45434453413a20696e76616c6964207369676e6174757265202773272076616c604482015261756560f01b6064820152608401610b27565b60048160048111156136ee576136ee614a29565b14156113795760405162461bcd60e51b815260206004820152602260248201527f45434453413a20696e76616c6964207369676e6174757265202776272076616c604482015261756560f01b6064820152608401610b27565b60608315613756575081610bdd565b8251156137665782518084602001fd5b8160405162461bcd60e51b8152600401610b279190614651565b6000826001018260405161379491906147d7565b9081526040519081900360200190205415159392505050565b60006137b98383613780565b613811578254600181018455600084815260209081902084516137e3939190910191850190613b05565b50825460405160018501906137f99085906147d7565b908152604051908190036020019020555060016108c1565b5060006108c1565b600080836001018360405161382e91906147d7565b9081526020016040518091039020549050806000146139d5576000613854600183614a3f565b855490915060009061386890600190614a3f565b905081811461397657600086600001828154811061388857613888614790565b90600052602060002001805461389d906146cc565b80601f01602080910402602001604051908101604052809291908181526020018280546138c9906146cc565b80156139165780601f106138eb57610100808354040283529160200191613916565b820191906000526020600020905b8154815290600101906020018083116138f957829003601f168201915b505050505090508087600001848154811061393357613933614790565b906000526020600020019080519060200190613950929190613b05565b5083876001018260405161396491906147d7565b90815260405190819003602001902055505b855486908061398757613987614a56565b6001900381819060005260206000200160006139a39190613baa565b905585600101856040516139b791906147d7565b908152602001604051809103902060009055600193505050506108c1565b60009150506108c1565b6000807f7fffffffffffffffffffffffffffffff5d576e7357a4501ddfe92f46681b20a0831115613a165750600090506003613ac3565b8460ff16601b14158015613a2e57508460ff16601c14155b15613a3f5750600090506004613ac3565b6040805160008082526020820180845289905260ff881692820192909252606081018690526080810185905260019060a0016020604051602081039080840390855afa158015613a93573d6000803e3d6000fd5b5050604051601f1901519150506001600160a01b038116613abc57600060019250925050613ac3565b9150600090505b94509492505050565b6000806001600160ff1b03831681613ae960ff86901c601b6147f3565b9050613af7878288856139df565b935093505050935093915050565b828054613b11906146cc565b90600052602060002090601f016020900481019282613b335760008555613b79565b82601f10613b4c57805160ff1916838001178555613b79565b82800160010185558215613b79579182015b82811115613b79578251825591602001919060010190613b5e565b50613b85929150613be0565b5090565b50805460008255600202906000526020600020908101906113799190613bf5565b508054613bb6906146cc565b6000825580601f10613bc6575050565b601f01602090049060005260206000209081019061137991905b5b80821115613b855760008155600101613be1565b80821115613b8557805463ffffffff191681556000613c176001830182613baa565b50600201613bf5565b634e487b7160e01b600052604160045260246000fd5b604080519081016001600160401b0381118282101715613c5857613c58613c20565b60405290565b604051606081016001600160401b0381118282101715613c5857613c58613c20565b604051601f8201601f191681016001600160401b0381118282101715613ca857613ca8613c20565b604052919050565b600082601f830112613cc157600080fd5b81356001600160401b03811115613cda57613cda613c20565b613ced601f8201601f1916602001613c80565b818152846020838601011115613d0257600080fd5b816020850160208301376000918101602001919091529392505050565b600060208284031215613d3157600080fd5b81356001600160401b03811115613d4757600080fd5b613d5384828501613cb0565b949350505050565b60005b83811015613d76578181015183820152602001613d5e565b8381111561156c5750506000910152565b60008151808452613d9f816020860160208601613d5b565b601f01601f19169290920160200192915050565b60006020808301818452808551808352604092508286019150828160051b87010184880160005b83811015613e2357888303603f19018552815180516001600160e01b0319168452870151878401879052613e1087850182613d87565b9588019593505090860190600101613dda565b509098975050505050505050565b80356001600160e01b031981168114613e4957600080fd5b919050565b600060208284031215613e6057600080fd5b610bdd82613e31565b6001600160a01b038116811461137957600080fd5b60008060008060808587031215613e9457600080fd5b8435613e9f81613e69565b93506020850135613eaf81613e69565b92506040850135915060608501356001600160401b03811115613ed157600080fd5b613edd87828801613cb0565b91505092959194509250565b6000815160608452613efe6060850182613d87565b905060208301518482036020860152613f178282613d87565b9150506001600160a01b0360408401511660408501528091505092915050565b602081526000610bdd6020830184613ee9565b600060208284031215613f5c57600080fd5b5035919050565b60008060408385031215613f7657600080fd5b823591506020830135613f8881613e69565b809150509250929050565b600080600060608486031215613fa857600080fd5b83356001600160401b03811115613fbe57600080fd5b84016101608187031215613fd157600080fd5b95602085013595506040909401359392505050565b60008083601f840112613ff857600080fd5b5081356001600160401b0381111561400f57600080fd5b6020830191508360208260051b850101111561358557600080fd5b6000806000806000806060878903121561404357600080fd5b86356001600160401b038082111561405a57600080fd5b6140668a838b01613fe6565b9098509650602089013591508082111561407f57600080fd5b61408b8a838b01613fe6565b909650945060408901359150808211156140a457600080fd5b506140b189828a01613fe6565b979a9699509497509295939492505050565b6000604082518185526140d882860182613ee9565b9050602080850151868303828801528281518085528385019150838160051b860101848401935060005b8281101561414b57868203601f19018452845180516001600160e01b031916835286015186830189905261413889840182613d87565b9587019594870194925050600101614102565b509998505050505050505050565b6000602080830181845280855180835260408601915060408160051b870101925083870160005b828110156141ae57603f1988860301845261419c8583516140c3565b94509285019290850190600101614180565b5092979650505050505050565b600080604083850312156141ce57600080fd5b82356141d981613e69565b946020939093013593505050565b600080604083850312156141fa57600080fd5b50508035926020909101359150565b6000806020838503121561421c57600080fd5b82356001600160401b0381111561423257600080fd5b61423e85828601613fe6565b90969095509350505050565b6000602080830181845280855180835260408601915060408160051b870101925083870160005b828110156141ae57603f1988860301845261428d858351613d87565b94509285019290850190600101614271565b600080600080606085870312156142b557600080fd5b84356142c081613e69565b93506020850135925060408501356001600160401b03808211156142e357600080fd5b818701915087601f8301126142f757600080fd5b81358181111561430657600080fd5b88602082850101111561431857600080fd5b95989497505060200194505050565b60006001600160401b0382111561434057614340613c20565b5060051b60200190565b600082601f83011261435b57600080fd5b8135602061437061436b83614327565b613c80565b82815260059290921b8401810191818101908684111561438f57600080fd5b8286015b848110156143aa5780358352918301918301614393565b509695505050505050565b600080600080600060a086880312156143cd57600080fd5b85356143d881613e69565b945060208601356143e881613e69565b935060408601356001600160401b038082111561440457600080fd5b61441089838a0161434a565b9450606088013591508082111561442657600080fd5b61443289838a0161434a565b9350608088013591508082111561444857600080fd5b5061445588828901613cb0565b9150509295509295909350565b602081526000610bdd60208301846140c3565b60006020828403121561448757600080fd5b8135610bdd81613e69565b600082601f8301126144a357600080fd5b813560206144b361436b83614327565b82815260059290921b840181019181810190868411156144d257600080fd5b8286015b848110156143aa5780356001600160401b03808211156144f65760008081fd5b908801906040828b03601f19018113156145105760008081fd5b614518613c36565b614523888501613e31565b81529083013590828211156145385760008081fd5b6145468c8984870101613cb0565b8189015286525050509183019183016144d6565b60006020828403121561456c57600080fd5b81356001600160401b038082111561458357600080fd5b908301906040828603121561459757600080fd5b61459f613c36565b8235828111156145ae57600080fd5b8301606081880312156145c057600080fd5b6145c8613c5e565b8135848111156145d757600080fd5b6145e389828501613cb0565b8252506020820135848111156145f857600080fd5b61460489828501613cb0565b6020830152506040820135915061461a82613e69565b6040810191909152815260208301358281111561463657600080fd5b61464287828601614492565b60208301525095945050505050565b602081526000610bdd6020830184613d87565b600080600080600060a0868803121561467c57600080fd5b853561468781613e69565b9450602086013561469781613e69565b9350604086013592506060860135915060808601356001600160401b038111156146c057600080fd5b61445588828901613cb0565b600181811c908216806146e057607f821691505b6020821081141561470157634e487b7160e01b600052602260045260246000fd5b50919050565b6000808335601e1984360301811261471e57600080fd5b8301803591506001600160401b0382111561473857600080fd5b60200191503681900382131561358557600080fd5b60208082526023908201527f54574163636f756e743a206e6f742061646d696e206f7220456e747279506f69604082015262373a1760e91b606082015260800190565b634e487b7160e01b600052603260045260246000fd5b634e487b7160e01b600052601160045260246000fd5b60006000198214156147d0576147d06147a6565b5060010190565b600082516147e9818460208701613d5b565b9190910192915050565b60008219821115614806576148066147a6565b500190565b60006020828403121561481d57600080fd5b5051919050565b6020808252602e908201527f496e697469616c697a61626c653a20636f6e747261637420697320616c72656160408201526d191e481a5b9a5d1a585b1a5e995960921b606082015260800190565b60208082526022908201527f42617365526f757465723a2063616c6c6572206e6f7420617574686f72697a65604082015261321760f11b606082015260800190565b7f5065726d697373696f6e733a206163636f756e742000000000000000000000008152600083516148ec816015850160208801613d5b565b7001034b99036b4b9b9b4b733903937b6329607d1b601591840191820152835161491d816026840160208801613d5b565b01602601949350505050565b60408152600061493c6040830185613d87565b828103602084015261494e8185613d87565b95945050505050565b60208082526029908201527f457874656e73696f6e53746174653a20657874656e73696f6e20646f6573206e60408201526837ba1032bc34b9ba1760b91b606082015260800190565b60208082526033908201527f457874656e73696f6e53746174653a20666e2073656c6563746f7220616e642060408201527239b4b3b730ba3ab9329036b4b9b6b0ba31b41760691b606082015260800190565b6000816000190483118215151615614a0d57614a0d6147a6565b500290565b600081614a2157614a216147a6565b506000190190565b634e487b7160e01b600052602160045260246000fd5b600082821015614a5157614a516147a6565b500390565b634e487b7160e01b600052603160045260246000fdfe1a039940024227c284ceea7ab90e5603ce17de27c93816eef22d65b14ee00873d0ebebe8e6445c62babf8fef767eb39f1002bb957bb5b83258275a4e46428ed5416464726573733a206c6f772d6c6576656c2064656c65676174652063616c6c206661696c6564a2646970667358221220bae4ecbd2501a031499e21d08da5529459ef9159d9fe136a0db485553d8809dc64736f6c634300080c0033",
    "linkReferences": {}
  },
  "methodIdentifiers": {
    "accountImplementation()": "11464fbe",
    "createAccount(address,bytes32)": "f14ddffc",
    "getAddress(bytes32)": "21f8a721",
    "multicall(bytes[])": "ac9650d8"
  },
  "id": 279
}